{
  "_format": "hh-sol-artifact-1",
  "contractName": "AgentRegistry",
  "sourceName": "src/AgentRegistry.sol",
  "abi": [
    {
      "inputs": [],
      "stateMutability": "nonpayable",
      "type": "constructor"
    },
    {
      "inputs": [],
      "name": "AccessControlBadConfirmation",
      "type": "error"
    },
    {
      "inputs": [
        {
          "internalType": "address",
          "name": "account",
          "type": "address"
        },
        {
          "internalType": "bytes32",
          "name": "neededRole",
          "type": "bytes32"
        }
      ],
      "name": "AccessControlUnauthorizedAccount",
      "type": "error"
    },
    {
      "inputs": [],
      "name": "ECDSAInvalidSignature",
      "type": "error"
    },
    {
      "inputs": [
        {
          "internalType": "uint256",
          "name": "length",
          "type": "uint256"
        }
      ],
      "name": "ECDSAInvalidSignatureLength",
      "type": "error"
    },
    {
      "inputs": [
        {
          "internalType": "bytes32",
          "name": "s",
          "type": "bytes32"
        }
      ],
      "name": "ECDSAInvalidSignatureS",
      "type": "error"
    },
    {
      "inputs": [],
      "name": "ReentrancyGuardReentrantCall",
      "type": "error"
    },
    {
      "anonymous": false,
      "inputs": [
        {
          "indexed": true,
          "internalType": "bytes32",
          "name": "agentId",
          "type": "bytes32"
        },
        {
          "indexed": true,
          "internalType": "address",
          "name": "owner",
          "type": "address"
        },
        {
          "indexed": false,
          "internalType": "address",
          "name": "agentWallet",
          "type": "address"
        },
        {
          "indexed": false,
          "internalType": "enum AgentRegistry.AgentType",
          "name": "agentType",
          "type": "uint8"
        }
      ],
      "name": "AgentRegistered",
      "type": "event"
    },
    {
      "anonymous": false,
      "inputs": [
        {
          "indexed": true,
          "internalType": "bytes32",
          "name": "agentId",
          "type": "bytes32"
        },
        {
          "indexed": false,
          "internalType": "enum AgentRegistry.AgentStatus",
          "name": "status",
          "type": "uint8"
        }
      ],
      "name": "AgentStatusUpdated",
      "type": "event"
    },
    {
      "anonymous": false,
      "inputs": [
        {
          "indexed": true,
          "internalType": "bytes32",
          "name": "agentId",
          "type": "bytes32"
        },
        {
          "indexed": false,
          "internalType": "bytes32",
          "name": "attestationHash",
          "type": "bytes32"
        }
      ],
      "name": "AttestationUpdated",
      "type": "event"
    },
    {
      "anonymous": false,
      "inputs": [
        {
          "indexed": true,
          "internalType": "bytes32",
          "name": "agentId",
          "type": "bytes32"
        },
        {
          "indexed": false,
          "internalType": "string",
          "name": "capability",
          "type": "string"
        }
      ],
      "name": "CapabilityAdded",
      "type": "event"
    },
    {
      "anonymous": false,
      "inputs": [
        {
          "indexed": true,
          "internalType": "bytes32",
          "name": "agentId",
          "type": "bytes32"
        },
        {
          "indexed": false,
          "internalType": "string",
          "name": "capability",
          "type": "string"
        }
      ],
      "name": "CapabilityRemoved",
      "type": "event"
    },
    {
      "anonymous": false,
      "inputs": [
        {
          "indexed": true,
          "internalType": "bytes32",
          "name": "agentId",
          "type": "bytes32"
        },
        {
          "indexed": false,
          "internalType": "uint256",
          "name": "newScore",
          "type": "uint256"
        }
      ],
      "name": "ReputationUpdated",
      "type": "event"
    },
    {
      "anonymous": false,
      "inputs": [
        {
          "indexed": true,
          "internalType": "bytes32",
          "name": "role",
          "type": "bytes32"
        },
        {
          "indexed": true,
          "internalType": "bytes32",
          "name": "previousAdminRole",
          "type": "bytes32"
        },
        {
          "indexed": true,
          "internalType": "bytes32",
          "name": "newAdminRole",
          "type": "bytes32"
        }
      ],
      "name": "RoleAdminChanged",
      "type": "event"
    },
    {
      "anonymous": false,
      "inputs": [
        {
          "indexed": true,
          "internalType": "bytes32",
          "name": "role",
          "type": "bytes32"
        },
        {
          "indexed": true,
          "internalType": "address",
          "name": "account",
          "type": "address"
        },
        {
          "indexed": true,
          "internalType": "address",
          "name": "sender",
          "type": "address"
        }
      ],
      "name": "RoleGranted",
      "type": "event"
    },
    {
      "anonymous": false,
      "inputs": [
        {
          "indexed": true,
          "internalType": "bytes32",
          "name": "role",
          "type": "bytes32"
        },
        {
          "indexed": true,
          "internalType": "address",
          "name": "account",
          "type": "address"
        },
        {
          "indexed": true,
          "internalType": "address",
          "name": "sender",
          "type": "address"
        }
      ],
      "name": "RoleRevoked",
      "type": "event"
    },
    {
      "inputs": [],
      "name": "ATTESTATION_EXPIRY",
      "outputs": [
        {
          "internalType": "uint256",
          "name": "",
          "type": "uint256"
        }
      ],
      "stateMutability": "view",
      "type": "function"
    },
    {
      "inputs": [],
      "name": "ATTESTATION_VERIFIER_ROLE",
      "outputs": [
        {
          "internalType": "bytes32",
          "name": "",
          "type": "bytes32"
        }
      ],
      "stateMutability": "view",
      "type": "function"
    },
    {
      "inputs": [],
      "name": "DEFAULT_ADMIN_ROLE",
      "outputs": [
        {
          "internalType": "bytes32",
          "name": "",
          "type": "bytes32"
        }
      ],
      "stateMutability": "view",
      "type": "function"
    },
    {
      "inputs": [],
      "name": "MIN_SYNDICATE_REPUTATION",
      "outputs": [
        {
          "internalType": "uint256",
          "name": "",
          "type": "uint256"
        }
      ],
      "stateMutability": "view",
      "type": "function"
    },
    {
      "inputs": [],
      "name": "REGISTRAR_ROLE",
      "outputs": [
        {
          "internalType": "bytes32",
          "name": "",
          "type": "bytes32"
        }
      ],
      "stateMutability": "view",
      "type": "function"
    },
    {
      "inputs": [],
      "name": "activeAgentCount",
      "outputs": [
        {
          "internalType": "uint256",
          "name": "",
          "type": "uint256"
        }
      ],
      "stateMutability": "view",
      "type": "function"
    },
    {
      "inputs": [
        {
          "internalType": "bytes32",
          "name": "agentId",
          "type": "bytes32"
        },
        {
          "internalType": "string",
          "name": "capability",
          "type": "string"
        }
      ],
      "name": "addCapability",
      "outputs": [],
      "stateMutability": "nonpayable",
      "type": "function"
    },
    {
      "inputs": [
        {
          "internalType": "address",
          "name": "",
          "type": "address"
        }
      ],
      "name": "agentIdByWallet",
      "outputs": [
        {
          "internalType": "bytes32",
          "name": "",
          "type": "bytes32"
        }
      ],
      "stateMutability": "view",
      "type": "function"
    },
    {
      "inputs": [
        {
          "internalType": "bytes32",
          "name": "",
          "type": "bytes32"
        }
      ],
      "name": "agents",
      "outputs": [
        {
          "internalType": "bytes32",
          "name": "agentId",
          "type": "bytes32"
        },
        {
          "internalType": "address",
          "name": "owner",
          "type": "address"
        },
        {
          "internalType": "address payable",
          "name": "agentWallet",
          "type": "address"
        },
        {
          "internalType": "bytes",
          "name": "publicKey",
          "type": "bytes"
        },
        {
          "internalType": "enum AgentRegistry.AgentType",
          "name": "agentType",
          "type": "uint8"
        },
        {
          "internalType": "enum AgentRegistry.AgentStatus",
          "name": "status",
          "type": "uint8"
        },
        {
          "internalType": "uint256",
          "name": "registeredAt",
          "type": "uint256"
        },
        {
          "internalType": "uint256",
          "name": "lastAttestation",
          "type": "uint256"
        },
        {
          "internalType": "bytes32",
          "name": "attestationHash",
          "type": "bytes32"
        },
        {
          "internalType": "uint256",
          "name": "reputationScore",
          "type": "uint256"
        },
        {
          "internalType": "string",
          "name": "metadataURI",
          "type": "string"
        }
      ],
      "stateMutability": "view",
      "type": "function"
    },
    {
      "inputs": [
        {
          "internalType": "address",
          "name": "",
          "type": "address"
        },
        {
          "internalType": "uint256",
          "name": "",
          "type": "uint256"
        }
      ],
      "name": "agentsByOwner",
      "outputs": [
        {
          "internalType": "bytes32",
          "name": "",
          "type": "bytes32"
        }
      ],
      "stateMutability": "view",
      "type": "function"
    },
    {
      "inputs": [
        {
          "internalType": "uint256",
          "name": "",
          "type": "uint256"
        }
      ],
      "name": "allAgentIds",
      "outputs": [
        {
          "internalType": "bytes32",
          "name": "",
          "type": "bytes32"
        }
      ],
      "stateMutability": "view",
      "type": "function"
    },
    {
      "inputs": [
        {
          "internalType": "bytes32",
          "name": "agentId",
          "type": "bytes32"
        }
      ],
      "name": "getAgent",
      "outputs": [
        {
          "internalType": "address",
          "name": "owner",
          "type": "address"
        },
        {
          "internalType": "address",
          "name": "agentWallet",
          "type": "address"
        },
        {
          "internalType": "enum AgentRegistry.AgentType",
          "name": "agentType",
          "type": "uint8"
        },
        {
          "internalType": "enum AgentRegistry.AgentStatus",
          "name": "status",
          "type": "uint8"
        },
        {
          "internalType": "uint256",
          "name": "registeredAt",
          "type": "uint256"
        },
        {
          "internalType": "uint256",
          "name": "reputationScore",
          "type": "uint256"
        },
        {
          "internalType": "bool",
          "name": "attestationValid",
          "type": "bool"
        }
      ],
      "stateMutability": "view",
      "type": "function"
    },
    {
      "inputs": [
        {
          "internalType": "address",
          "name": "owner",
          "type": "address"
        }
      ],
      "name": "getAgentsByOwner",
      "outputs": [
        {
          "internalType": "bytes32[]",
          "name": "",
          "type": "bytes32[]"
        }
      ],
      "stateMutability": "view",
      "type": "function"
    },
    {
      "inputs": [
        {
          "internalType": "bytes32",
          "name": "agentId",
          "type": "bytes32"
        }
      ],
      "name": "getCapabilities",
      "outputs": [
        {
          "internalType": "string[]",
          "name": "",
          "type": "string[]"
        }
      ],
      "stateMutability": "view",
      "type": "function"
    },
    {
      "inputs": [
        {
          "internalType": "bytes32",
          "name": "role",
          "type": "bytes32"
        }
      ],
      "name": "getRoleAdmin",
      "outputs": [
        {
          "internalType": "bytes32",
          "name": "",
          "type": "bytes32"
        }
      ],
      "stateMutability": "view",
      "type": "function"
    },
    {
      "inputs": [
        {
          "internalType": "bytes32",
          "name": "role",
          "type": "bytes32"
        },
        {
          "internalType": "address",
          "name": "account",
          "type": "address"
        }
      ],
      "name": "grantRole",
      "outputs": [],
      "stateMutability": "nonpayable",
      "type": "function"
    },
    {
      "inputs": [
        {
          "internalType": "bytes32",
          "name": "role",
          "type": "bytes32"
        },
        {
          "internalType": "address",
          "name": "account",
          "type": "address"
        }
      ],
      "name": "hasRole",
      "outputs": [
        {
          "internalType": "bool",
          "name": "",
          "type": "bool"
        }
      ],
      "stateMutability": "view",
      "type": "function"
    },
    {
      "inputs": [
        {
          "internalType": "bytes32",
          "name": "agentId",
          "type": "bytes32"
        }
      ],
      "name": "isAttestationValid",
      "outputs": [
        {
          "internalType": "bool",
          "name": "",
          "type": "bool"
        }
      ],
      "stateMutability": "view",
      "type": "function"
    },
    {
      "inputs": [
        {
          "internalType": "bytes32",
          "name": "agentId",
          "type": "bytes32"
        }
      ],
      "name": "isSyndicateEligible",
      "outputs": [
        {
          "internalType": "bool",
          "name": "",
          "type": "bool"
        }
      ],
      "stateMutability": "view",
      "type": "function"
    },
    {
      "inputs": [
        {
          "internalType": "bytes32",
          "name": "agentId",
          "type": "bytes32"
        },
        {
          "internalType": "address payable",
          "name": "agentWallet",
          "type": "address"
        },
        {
          "internalType": "bytes",
          "name": "publicKey",
          "type": "bytes"
        },
        {
          "internalType": "enum AgentRegistry.AgentType",
          "name": "agentType",
          "type": "uint8"
        },
        {
          "internalType": "string[]",
          "name": "capabilities",
          "type": "string[]"
        },
        {
          "internalType": "string",
          "name": "metadataURI",
          "type": "string"
        }
      ],
      "name": "registerAgent",
      "outputs": [],
      "stateMutability": "nonpayable",
      "type": "function"
    },
    {
      "inputs": [
        {
          "internalType": "bytes32",
          "name": "role",
          "type": "bytes32"
        },
        {
          "internalType": "address",
          "name": "callerConfirmation",
          "type": "address"
        }
      ],
      "name": "renounceRole",
      "outputs": [],
      "stateMutability": "nonpayable",
      "type": "function"
    },
    {
      "inputs": [
        {
          "internalType": "bytes32",
          "name": "role",
          "type": "bytes32"
        },
        {
          "internalType": "address",
          "name": "account",
          "type": "address"
        }
      ],
      "name": "revokeRole",
      "outputs": [],
      "stateMutability": "nonpayable",
      "type": "function"
    },
    {
      "inputs": [
        {
          "internalType": "bytes4",
          "name": "interfaceId",
          "type": "bytes4"
        }
      ],
      "name": "supportsInterface",
      "outputs": [
        {
          "internalType": "bool",
          "name": "",
          "type": "bool"
        }
      ],
      "stateMutability": "view",
      "type": "function"
    },
    {
      "inputs": [],
      "name": "totalAgents",
      "outputs": [
        {
          "internalType": "uint256",
          "name": "",
          "type": "uint256"
        }
      ],
      "stateMutability": "view",
      "type": "function"
    },
    {
      "inputs": [
        {
          "internalType": "bytes32",
          "name": "agentId",
          "type": "bytes32"
        },
        {
          "internalType": "int256",
          "name": "delta",
          "type": "int256"
        }
      ],
      "name": "updateReputation",
      "outputs": [],
      "stateMutability": "nonpayable",
      "type": "function"
    },
    {
      "inputs": [
        {
          "internalType": "bytes32",
          "name": "agentId",
          "type": "bytes32"
        },
        {
          "internalType": "enum AgentRegistry.AgentStatus",
          "name": "status",
          "type": "uint8"
        }
      ],
      "name": "updateStatus",
      "outputs": [],
      "stateMutability": "nonpayable",
      "type": "function"
    },
    {
      "inputs": [
        {
          "internalType": "bytes32",
          "name": "agentId",
          "type": "bytes32"
        },
        {
          "internalType": "bytes32",
          "name": "attestationHash",
          "type": "bytes32"
        },
        {
          "internalType": "bytes",
          "name": "signature",
          "type": "bytes"
        }
      ],
      "name": "verifyAttestation",
      "outputs": [],
      "stateMutability": "nonpayable",
      "type": "function"
    }
  ],
  "bytecode": "0x608060405234620000425760018055620000193362000047565b506200002533620000c7565b50620000313362000169565b50604051611a929081620002078239f35b600080fd5b6001600160a01b031660008181527fad3228b676f7d3cd4284a5443f17f1962b36e491b30a40b2405849e597ba5fb5602052604081205490919060ff16620000c357818052816020526040822081835260205260408220600160ff19825416179055339160008051602062001c998339815191528180a4600190565b5090565b6001600160a01b031660008181527f01ddc098da42acdf4176da08ec75800bc0fb2bce2be978b2037bcb0ae696651960205260408120549091907fedcc084d3dcd65a1f7f23c65c46722faca6953d28e43150a467cf43e5c3092389060ff166200016457808352826020526040832082845260205260408320600160ff1982541617905560008051602062001c99833981519152339380a4600190565b505090565b6001600160a01b031660008181527f68d8e801f6fa7711cfe52ea661e7062d523ceee5c32eade18290ee5a73f4780360205260408120549091907f365613ab96fef39a9e7934cc5d7c323b2235514c6df4c30831bf2f7b8e6f47049060ff166200016457808352826020526040832082845260205260408320600160ff1982541617905560008051602062001c99833981519152339380a460019056fe608080604052600436101561001357600080fd5b60003560e01c90816301ffc9a7146113e657508063054372ed146112c957806315b1bac7146112ac5780631ab6f888146111f8578063248a9ca3146111c95780632e20ee18146110c15780632f2ff15d1461108257806336568abe1461103b578063383e6f9514610fb55780636a55a85014610f975780636fb98a1314610f2257806376863a1914610ee7578063768eb96f14610e9d578063840f3c0f1461095957806391d148541461090c57806398be7c8d146108d5578063a217fddf146108b9578063a65542ca1461064f578063a6c2af01146105b6578063b53a7dfa146104c0578063bfcf3f9e14610380578063c505371214610362578063d3ef47e81461022b578063d547741f146101ea578063dcc8bd14146101b0578063e30bb563146101885763f68e95531461014857600080fd5b346101835760003660031901126101835760206040517fedcc084d3dcd65a1f7f23c65c46722faca6953d28e43150a467cf43e5c3092388152f35b600080fd5b346101835760203660031901126101835760206101a6600435611a1f565b6040519015158152f35b34610183576020366003190112610183576001600160a01b036101d1611439565b1660005260036020526020604060002054604051908152f35b346101835760403660031901126101835761022960043561020961144f565b9080600052600060205261022460016040600020015461164a565b6116ee565b005b34610183576040366003190112610183573360009081527f01ddc098da42acdf4176da08ec75800bc0fb2bce2be978b2037bcb0ae6966519602052604090205460043590602435907fedcc084d3dcd65a1f7f23c65c46722faca6953d28e43150a467cf43e5c3092389060ff16156103445750816000526002602052600960406000206102bd60058201541515611885565b019081546000828201928312911290801582169115161761032e577f643d988938d60eb0f25f427e235470754905356536009cff1faf041b0e510b2e9160209160008112610326575b6103e880821361031e575b50809155604051908152a2005b905085610311565b506000610306565b634e487b7160e01b600052601160045260246000fd5b6044906040519063e2517d3f60e01b82523360048301526024820152fd5b34610183576000366003190112610183576020600554604051908152f35b346101835760403660031901126101835760043560243567ffffffffffffffff8111610183576103b490369060040161161c565b82600052600260205260406000206103d160058201541515611885565b60018101546001600160a01b0316330361048f576008018054600160401b8110156104795761040591600182018155611604565b6104635782610438837f6f80033091ade88a6aadd795353010f2ed3948866d4895d213607c2006eeb11f956040946117c1565b82825193849260208452816020850152848401376000828201840152601f01601f19168101030190a2005b634e487b7160e01b600052600060045260246000fd5b634e487b7160e01b600052604160045260246000fd5b60405162461bcd60e51b81526020600482015260096024820152682737ba1037bbb732b960b91b6044820152606490fd5b34610183576020806003193601126101835760043560005260028152600860406000200180549067ffffffffffffffff82116104795782906040519261050b838260051b0185611535565b8084528284018092600052836000206000915b8383106105855750505050604051918083019381845251809452604083019360408160051b85010192916000955b8287106105595785850386f35b909192938280610575600193603f198a82030186528851611557565b960192019601959291909261054c565b60018681926040999899516105a58161059e818961149f565b0382611535565b81520192019201919095949561051e565b346101835760203660031901126101835760e0600435806000526002602052604060002060018060a01b0391826001830154169260028301541691600481015460ff8082169160081c16906106146009600585015494015494611a1f565b94604051968752602087015261062981611597565b604086015261063781611597565b6060850152608084015260a0830152151560c0820152f35b346101835760603660031901126101835760043567ffffffffffffffff6024356044358281116101835761068790369060040161161c565b3360009081527f68d8e801f6fa7711cfe52ea661e7062d523ceee5c32eade18290ee5a73f478036020908152604090912054909492917f365613ab96fef39a9e7934cc5d7c323b2235514c6df4c30831bf2f7b8e6f47049160ff161561089a57866000526002865260406000209361070460058601541515611885565b6040519087820191898352876040820152604081526060810192818410838511176104795783604052815190207f19457468657265756d205369676e6564204d6573736167653a0a333200000000600052601c52603c60002091841161047957610777601f8501601f19168a0184611535565b8383523684870111610183576080848261079d966107a6998460009601370101526118c8565b90939193611994565b600090815280855260408082206001600160a01b039093168252918552205460ff161561086157906004828260077ff548ca5d6537e427ed352f10ca2a443db16b5f063a752dd31e215d42c53b0cf49695015542600682015501805460ff8160081c1661081281611597565b15610823575b5050604051908152a2005b6101009061ff001916179055837f8f95c0fce60bbce52c2737b54ae071e31a6a9c014da368d5a38632f2d502d5368360405160018152a28480610818565b60405162461bcd60e51b8152600481018490526011602482015270496e76616c6964207369676e617475726560781b6044820152606490fd5b60405163e2517d3f60e01b815233600482015260248101839052604490fd5b3461018357600036600319011261018357602060405160008152f35b3461018357602036600319011261018357600435600554811015610183576108fe6020916115b7565b90546040519160031b1c8152f35b346101835760403660031901126101835761092561144f565b600435600052600060205260406000209060018060a01b0316600052602052602060ff604060002054166040519015158152f35b346101835760c0366003190112610183576024356001600160a01b03811681036101835760443567ffffffffffffffff81116101835761099d90369060040161161c565b600460649392933510156101835767ffffffffffffffff60843511610183573660236084350112156101835767ffffffffffffffff6084356004013511610183573660246084356004013560051b6084350101116101835760a43567ffffffffffffffff811161018357610a1590369060040161161c565b91600260015414610e8b5760026001556004356000526002602052600560406000200154610e46576001600160a01b038416600090815260036020526040902054610e0b5760208103610dc65760043560008181526002602081905260409091209182556001820180546001600160a01b0319908116331790915590820180549091166001600160a01b0387161790559467ffffffffffffffff8211610479578190610ad182610ac860038a0154611465565b60038a0161177a565b600090601f8311600114610d5557600092610d4a575b50508160011b916000199060031b1c19161760038501555b60048401610b0e606435611597565b805461ffff191660643560ff161790554260058501556000600685018190556007850155600160401b6004608435013511610479576008840180546004608435013591829055908111610ccc575b50602460843501600885016000526020600020906000905b608435600401358210610c7757505050600a8460646009610b9896970155016117c1565b60018060a01b03811660005260036020526004356040600020553360005260046020526040600020805490600160401b8210156104795781610be2916001610bfe94018155611604565b6004929192359083549060031b91821b91600019901b19161790565b9055600554600160401b81101561047957610be2816001610c2293016005556115b7565b90556040516001600160a01b039091168152610c3f606435611597565b606435602082015233907f35714739a0ba98fddbe7f2ef4af04402f3cf8a615bcd4e9492ad37fdc514453d604060043592a360018055005b8035608435360360421901811215610183576084350160248101359067ffffffffffffffff82116101835760440190803603821361018357600192610cc06020928594886117c1565b01930191019091610b74565b600885016000526020600020906084356004013582015b8183018110610cf3575050610b5c565b80610d0060019254611465565b80610d0d575b5001610ce3565b601f81118314610d235750600081555b88610d06565b600090828252610d41601f60208420920160051c8201858301611763565b81835555610d1d565b013590508680610ae7565b909250600387016000526020600020906000935b601f1984168510610dae576001945083601f19811610610d94575b505050811b016003850155610aff565b0135600019600384901b60f8161c19169055868080610d84565b81810135835560209485019460019093019201610d69565b60405162461bcd60e51b815260206004820152601960248201527f496e76616c6964207075626c6963206b6579206c656e677468000000000000006044820152606490fd5b60405162461bcd60e51b815260206004820152601360248201527215d85b1b195d08185b1c9958591e481d5cd959606a1b6044820152606490fd5b60405162461bcd60e51b815260206004820152601860248201527f4167656e7420616c7265616479207265676973746572656400000000000000006044820152606490fd5b604051633ee5aeb560e01b8152600490fd5b3461018357604036600319011261018357610eb6611439565b6001600160a01b0316600090815260046020526040902080546024359190821015610183576020916108fe91611604565b346101835760003660031901126101835760206040517f365613ab96fef39a9e7934cc5d7c323b2235514c6df4c30831bf2f7b8e6f47048152f35b346101835760203660031901126101835760206004358060005260028252604060002090600160ff600484015460081c16610f5c81611597565b149182610f86575b5081610f76575b506040519015158152f35b610f809150611a1f565b82610f6b565b6009015461012c1115915083610f64565b34610183576000366003190112610183576020604051620151808152f35b3461018357600036600319011261018357600080600554905b818110610fe057602083604051908152f35b610fe9816115b7565b90549060031b1c6000526002602052600160ff60046040600020015460081c1661101281611597565b14611026575b61102190611a4d565b610fce565b9161103361102191611a4d565b929050611018565b346101835760403660031901126101835761105461144f565b336001600160a01b0382160361107057610229906004356116ee565b60405163334bd91960e11b8152600490fd5b34610183576040366003190112610183576102296004356110a161144f565b908060005260006020526110bc60016040600020015461164a565b611670565b34610183576020366003190112610183576004356000526002602052604060002080546111c560018060a01b0392600a8460018301541694600283015416916040519261111c84611115816003860161149f565b0385611535565b60048201549360ff8086169560081c1660058401549061118460068601549360078701549561116160098901549861115a604051809c81930161149f565b038a611535565b6040519c8d9c8d5260208d015260408c01526101608060608d01528b0190611557565b9661118e81611597565b60808a015261119c81611597565b60a089015260c088015260e0870152610100860152610120850152838203610140850152611557565b0390f35b346101835760203660031901126101835760043560005260006020526020600160406000200154604051908152f35b3461018357602080600319360112610183576001600160a01b0361121a611439565b1660005260048152604060002060405190818382549182815201908192600052846000209060005b8682821061129857868661125882880383611535565b604051928392818401908285525180915260408401929160005b82811061128157505050500390f35b835185528695509381019392810192600101611272565b835485529093019260019283019201611242565b3461018357600036600319011261018357602060405161012c8152f35b3461018357604036600319011261018357600435602435600481101561018357816000526002602052604060002061130660058201541515611885565b60018101546001600160a01b0316331480156113ae575b15611378577f8f95c0fce60bbce52c2737b54ae071e31a6a9c014da368d5a38632f2d502d5369160046020920161135382611597565b805461ff001916600883901b61ff00161790556040519061137381611597565b8152a2005b60405162461bcd60e51b815260206004820152600e60248201526d139bdd08185d5d1a1bdc9a5e995960921b6044820152606490fd5b503360009081527fad3228b676f7d3cd4284a5443f17f1962b36e491b30a40b2405849e597ba5fb5602052604090205460ff1661131d565b34610183576020366003190112610183576004359063ffffffff60e01b821680920361018357602091637965db0b60e01b8114908115611428575b5015158152f35b6301ffc9a760e01b14905083611421565b600435906001600160a01b038216820361018357565b602435906001600160a01b038216820361018357565b90600182811c92168015611495575b602083101461147f57565b634e487b7160e01b600052602260045260246000fd5b91607f1691611474565b90600092918054916114b083611465565b91828252600193848116908160001461151257506001146114d2575b50505050565b90919394506000526020928360002092846000945b8386106114fe5750505050010190388080806114cc565b8054858701830152940193859082016114e7565b9294505050602093945060ff191683830152151560051b010190388080806114cc565b90601f8019910116810190811067ffffffffffffffff82111761047957604052565b919082519283825260005b848110611583575050826000602080949584010152601f8019910116010190565b602081830181015184830182015201611562565b600411156115a157565b634e487b7160e01b600052602160045260246000fd5b6005548110156115ee5760056000527f036b6384b5eca791c62761152d0c79bb0604c104a5fb6f4eb0703f3154bb3db00190600090565b634e487b7160e01b600052603260045260246000fd5b80548210156115ee5760005260206000200190600090565b9181601f840112156101835782359167ffffffffffffffff8311610183576020838186019501011161018357565b80600052600060205260406000203360005260205260ff60406000205416156103445750565b9060009180835282602052604083209160018060a01b03169182845260205260ff604084205416156000146116e957808352826020526040832082845260205260408320600160ff198254161790557f2f8788117e7eff1d82e926ec794901d17c78024a50270940304540a733656f0d339380a4600190565b505090565b9060009180835282602052604083209160018060a01b03169182845260205260ff6040842054166000146116e95780835282602052604083208284526020526040832060ff1981541690557ff6391f5c32d9c69d2a47ea670b442974b53935d1edc7fd64eb21e047a839171b339380a4600190565b81811061176e575050565b60008155600101611763565b9190601f811161178957505050565b6117b5926000526020600020906020601f840160051c830193106117b7575b601f0160051c0190611763565b565b90915081906117a8565b90929167ffffffffffffffff8111610479576117e7816117e18454611465565b8461177a565b6000601f82116001146118215781929394600092611816575b50508160011b916000199060031b1c1916179055565b013590503880611800565b601f198216948382526020918281209281905b88821061186d57505083600195969710611853575b505050811b019055565b0135600019600384901b60f8161c19169055388080611849565b80600184968294958701358155019501920190611834565b1561188c57565b60405162461bcd60e51b81526020600482015260146024820152731059d95b9d081b9bdd081c9959da5cdd195c995960621b6044820152606490fd5b81519190604183036118f9576118f292506020820151906060604084015193015160001a90611904565b9192909190565b505060009160029190565b91907f7fffffffffffffffffffffffffffffff5d576e7357a4501ddfe92f46681b20a0841161198857926020929160ff608095604051948552168484015260408301526060820152600092839182805260015afa1561197c5780516001600160a01b0381161561197357918190565b50809160019190565b604051903d90823e3d90fd5b50505060009160039190565b61199d81611597565b806119a6575050565b6119af81611597565b600181036119c95760405163f645eedf60e01b8152600490fd5b6119d281611597565b600281036119f35760405163fce698f760e01b815260048101839052602490fd5b806119ff600392611597565b14611a075750565b602490604051906335e2f38360e21b82526004820152fd5b60005260026020526006604060002001548015611a4757420342811161032e57620151801190565b50600090565b600019811461032e576001019056fea2646970667358221220db9401138399004ffc721e0508ce836b53ee3f897d376ff5c8208bef37dd2f8c64736f6c634300081400332f8788117e7eff1d82e926ec794901d17c78024a50270940304540a733656f0d",
  "linkReferences": {},
  "deployedLinkReferences": {}
}