{
  "_format": "hh-sol-artifact-1",
  "contractName": "SyndicateVault",
  "sourceName": "src/SyndicateVault.sol",
  "abi": [
    {
      "inputs": [
        {
          "internalType": "address",
          "name": "_agentRegistry",
          "type": "address"
        }
      ],
      "stateMutability": "nonpayable",
      "type": "constructor"
    },
    {
      "inputs": [],
      "name": "AccessControlBadConfirmation",
      "type": "error"
    },
    {
      "inputs": [
        {
          "internalType": "address",
          "name": "account",
          "type": "address"
        },
        {
          "internalType": "bytes32",
          "name": "neededRole",
          "type": "bytes32"
        }
      ],
      "name": "AccessControlUnauthorizedAccount",
      "type": "error"
    },
    {
      "inputs": [],
      "name": "ReentrancyGuardReentrantCall",
      "type": "error"
    },
    {
      "inputs": [
        {
          "internalType": "address",
          "name": "token",
          "type": "address"
        }
      ],
      "name": "SafeERC20FailedOperation",
      "type": "error"
    },
    {
      "anonymous": false,
      "inputs": [
        {
          "indexed": true,
          "internalType": "bytes32",
          "name": "syndicateId",
          "type": "bytes32"
        },
        {
          "indexed": false,
          "internalType": "address",
          "name": "token",
          "type": "address"
        },
        {
          "indexed": false,
          "internalType": "uint256",
          "name": "amount",
          "type": "uint256"
        }
      ],
      "name": "DepositReceived",
      "type": "event"
    },
    {
      "anonymous": false,
      "inputs": [
        {
          "indexed": true,
          "internalType": "bytes32",
          "name": "syndicateId",
          "type": "bytes32"
        },
        {
          "indexed": true,
          "internalType": "bytes32",
          "name": "agentId",
          "type": "bytes32"
        }
      ],
      "name": "MemberJoined",
      "type": "event"
    },
    {
      "anonymous": false,
      "inputs": [
        {
          "indexed": true,
          "internalType": "bytes32",
          "name": "syndicateId",
          "type": "bytes32"
        },
        {
          "indexed": true,
          "internalType": "bytes32",
          "name": "agentId",
          "type": "bytes32"
        }
      ],
      "name": "MemberLeft",
      "type": "event"
    },
    {
      "anonymous": false,
      "inputs": [
        {
          "indexed": true,
          "internalType": "bytes32",
          "name": "syndicateId",
          "type": "bytes32"
        },
        {
          "indexed": false,
          "internalType": "uint256",
          "name": "totalAmount",
          "type": "uint256"
        }
      ],
      "name": "ProfitsDistributed",
      "type": "event"
    },
    {
      "anonymous": false,
      "inputs": [
        {
          "indexed": true,
          "internalType": "bytes32",
          "name": "syndicateId",
          "type": "bytes32"
        },
        {
          "indexed": true,
          "internalType": "bytes32",
          "name": "proposalId",
          "type": "bytes32"
        },
        {
          "indexed": false,
          "internalType": "enum SyndicateVault.ProposalType",
          "name": "proposalType",
          "type": "uint8"
        }
      ],
      "name": "ProposalCreated",
      "type": "event"
    },
    {
      "anonymous": false,
      "inputs": [
        {
          "indexed": true,
          "internalType": "bytes32",
          "name": "syndicateId",
          "type": "bytes32"
        },
        {
          "indexed": true,
          "internalType": "bytes32",
          "name": "proposalId",
          "type": "bytes32"
        },
        {
          "indexed": false,
          "internalType": "bool",
          "name": "success",
          "type": "bool"
        }
      ],
      "name": "ProposalExecuted",
      "type": "event"
    },
    {
      "anonymous": false,
      "inputs": [
        {
          "indexed": true,
          "internalType": "bytes32",
          "name": "role",
          "type": "bytes32"
        },
        {
          "indexed": true,
          "internalType": "bytes32",
          "name": "previousAdminRole",
          "type": "bytes32"
        },
        {
          "indexed": true,
          "internalType": "bytes32",
          "name": "newAdminRole",
          "type": "bytes32"
        }
      ],
      "name": "RoleAdminChanged",
      "type": "event"
    },
    {
      "anonymous": false,
      "inputs": [
        {
          "indexed": true,
          "internalType": "bytes32",
          "name": "role",
          "type": "bytes32"
        },
        {
          "indexed": true,
          "internalType": "address",
          "name": "account",
          "type": "address"
        },
        {
          "indexed": true,
          "internalType": "address",
          "name": "sender",
          "type": "address"
        }
      ],
      "name": "RoleGranted",
      "type": "event"
    },
    {
      "anonymous": false,
      "inputs": [
        {
          "indexed": true,
          "internalType": "bytes32",
          "name": "role",
          "type": "bytes32"
        },
        {
          "indexed": true,
          "internalType": "address",
          "name": "account",
          "type": "address"
        },
        {
          "indexed": true,
          "internalType": "address",
          "name": "sender",
          "type": "address"
        }
      ],
      "name": "RoleRevoked",
      "type": "event"
    },
    {
      "anonymous": false,
      "inputs": [
        {
          "indexed": true,
          "internalType": "bytes32",
          "name": "syndicateId",
          "type": "bytes32"
        },
        {
          "indexed": false,
          "internalType": "string",
          "name": "name",
          "type": "string"
        },
        {
          "indexed": false,
          "internalType": "address",
          "name": "founder",
          "type": "address"
        }
      ],
      "name": "SyndicateCreated",
      "type": "event"
    },
    {
      "anonymous": false,
      "inputs": [
        {
          "indexed": true,
          "internalType": "bytes32",
          "name": "proposalId",
          "type": "bytes32"
        },
        {
          "indexed": true,
          "internalType": "bytes32",
          "name": "agentId",
          "type": "bytes32"
        },
        {
          "indexed": false,
          "internalType": "bool",
          "name": "approve",
          "type": "bool"
        }
      ],
      "name": "Voted",
      "type": "event"
    },
    {
      "anonymous": false,
      "inputs": [
        {
          "indexed": true,
          "internalType": "bytes32",
          "name": "syndicateId",
          "type": "bytes32"
        },
        {
          "indexed": false,
          "internalType": "address",
          "name": "token",
          "type": "address"
        },
        {
          "indexed": false,
          "internalType": "address",
          "name": "to",
          "type": "address"
        },
        {
          "indexed": false,
          "internalType": "uint256",
          "name": "amount",
          "type": "uint256"
        }
      ],
      "name": "Withdrawal",
      "type": "event"
    },
    {
      "inputs": [],
      "name": "DEFAULT_ADMIN_ROLE",
      "outputs": [
        {
          "internalType": "bytes32",
          "name": "",
          "type": "bytes32"
        }
      ],
      "stateMutability": "view",
      "type": "function"
    },
    {
      "inputs": [],
      "name": "EXECUTOR_ROLE",
      "outputs": [
        {
          "internalType": "bytes32",
          "name": "",
          "type": "bytes32"
        }
      ],
      "stateMutability": "view",
      "type": "function"
    },
    {
      "inputs": [],
      "name": "SYNDICATE_ADMIN_ROLE",
      "outputs": [
        {
          "internalType": "bytes32",
          "name": "",
          "type": "bytes32"
        }
      ],
      "stateMutability": "view",
      "type": "function"
    },
    {
      "inputs": [
        {
          "internalType": "bytes32",
          "name": "syndicateId",
          "type": "bytes32"
        },
        {
          "internalType": "bytes32",
          "name": "agentId",
          "type": "bytes32"
        },
        {
          "internalType": "uint256",
          "name": "votingPower",
          "type": "uint256"
        }
      ],
      "name": "addMember",
      "outputs": [],
      "stateMutability": "nonpayable",
      "type": "function"
    },
    {
      "inputs": [],
      "name": "agentRegistry",
      "outputs": [
        {
          "internalType": "contract AgentRegistry",
          "name": "",
          "type": "address"
        }
      ],
      "stateMutability": "view",
      "type": "function"
    },
    {
      "inputs": [
        {
          "internalType": "uint256",
          "name": "",
          "type": "uint256"
        }
      ],
      "name": "allSyndicateIds",
      "outputs": [
        {
          "internalType": "bytes32",
          "name": "",
          "type": "bytes32"
        }
      ],
      "stateMutability": "view",
      "type": "function"
    },
    {
      "inputs": [
        {
          "internalType": "bytes32",
          "name": "syndicateId",
          "type": "bytes32"
        },
        {
          "internalType": "string",
          "name": "name",
          "type": "string"
        },
        {
          "internalType": "uint256",
          "name": "minReputation",
          "type": "uint256"
        },
        {
          "internalType": "uint256",
          "name": "maxMembers",
          "type": "uint256"
        },
        {
          "internalType": "uint256",
          "name": "votingThresholdBps",
          "type": "uint256"
        },
        {
          "internalType": "uint256",
          "name": "proposalDuration",
          "type": "uint256"
        },
        {
          "internalType": "uint256",
          "name": "syndicateFeeBps",
          "type": "uint256"
        },
        {
          "internalType": "bool",
          "name": "requiresProof",
          "type": "bool"
        }
      ],
      "name": "createSyndicate",
      "outputs": [],
      "stateMutability": "nonpayable",
      "type": "function"
    },
    {
      "inputs": [
        {
          "internalType": "bytes32",
          "name": "syndicateId",
          "type": "bytes32"
        }
      ],
      "name": "depositETH",
      "outputs": [],
      "stateMutability": "payable",
      "type": "function"
    },
    {
      "inputs": [
        {
          "internalType": "bytes32",
          "name": "syndicateId",
          "type": "bytes32"
        },
        {
          "internalType": "address",
          "name": "token",
          "type": "address"
        },
        {
          "internalType": "uint256",
          "name": "amount",
          "type": "uint256"
        }
      ],
      "name": "depositToken",
      "outputs": [],
      "stateMutability": "nonpayable",
      "type": "function"
    },
    {
      "inputs": [
        {
          "internalType": "bytes32",
          "name": "syndicateId",
          "type": "bytes32"
        },
        {
          "internalType": "address",
          "name": "token",
          "type": "address"
        },
        {
          "internalType": "uint256",
          "name": "amount",
          "type": "uint256"
        }
      ],
      "name": "distributeProfits",
      "outputs": [],
      "stateMutability": "nonpayable",
      "type": "function"
    },
    {
      "inputs": [
        {
          "internalType": "bytes32",
          "name": "",
          "type": "bytes32"
        }
      ],
      "name": "ethTreasury",
      "outputs": [
        {
          "internalType": "uint256",
          "name": "",
          "type": "uint256"
        }
      ],
      "stateMutability": "view",
      "type": "function"
    },
    {
      "inputs": [
        {
          "internalType": "bytes32",
          "name": "syndicateId",
          "type": "bytes32"
        },
        {
          "internalType": "bytes32",
          "name": "proposalId",
          "type": "bytes32"
        }
      ],
      "name": "executeProposal",
      "outputs": [],
      "stateMutability": "nonpayable",
      "type": "function"
    },
    {
      "inputs": [
        {
          "internalType": "bytes32",
          "name": "syndicateId",
          "type": "bytes32"
        }
      ],
      "name": "getMemberCount",
      "outputs": [
        {
          "internalType": "uint256",
          "name": "",
          "type": "uint256"
        }
      ],
      "stateMutability": "view",
      "type": "function"
    },
    {
      "inputs": [
        {
          "internalType": "bytes32",
          "name": "role",
          "type": "bytes32"
        }
      ],
      "name": "getRoleAdmin",
      "outputs": [
        {
          "internalType": "bytes32",
          "name": "",
          "type": "bytes32"
        }
      ],
      "stateMutability": "view",
      "type": "function"
    },
    {
      "inputs": [
        {
          "internalType": "bytes32",
          "name": "syndicateId",
          "type": "bytes32"
        },
        {
          "internalType": "address",
          "name": "token",
          "type": "address"
        }
      ],
      "name": "getTreasuryBalance",
      "outputs": [
        {
          "internalType": "uint256",
          "name": "",
          "type": "uint256"
        }
      ],
      "stateMutability": "view",
      "type": "function"
    },
    {
      "inputs": [
        {
          "internalType": "bytes32",
          "name": "role",
          "type": "bytes32"
        },
        {
          "internalType": "address",
          "name": "account",
          "type": "address"
        }
      ],
      "name": "grantRole",
      "outputs": [],
      "stateMutability": "nonpayable",
      "type": "function"
    },
    {
      "inputs": [
        {
          "internalType": "bytes32",
          "name": "role",
          "type": "bytes32"
        },
        {
          "internalType": "address",
          "name": "account",
          "type": "address"
        }
      ],
      "name": "hasRole",
      "outputs": [
        {
          "internalType": "bool",
          "name": "",
          "type": "bool"
        }
      ],
      "stateMutability": "view",
      "type": "function"
    },
    {
      "inputs": [
        {
          "internalType": "bytes32",
          "name": "",
          "type": "bytes32"
        },
        {
          "internalType": "bytes32",
          "name": "",
          "type": "bytes32"
        }
      ],
      "name": "hasVoted",
      "outputs": [
        {
          "internalType": "bool",
          "name": "",
          "type": "bool"
        }
      ],
      "stateMutability": "view",
      "type": "function"
    },
    {
      "inputs": [
        {
          "internalType": "bytes32",
          "name": "",
          "type": "bytes32"
        },
        {
          "internalType": "uint256",
          "name": "",
          "type": "uint256"
        }
      ],
      "name": "memberList",
      "outputs": [
        {
          "internalType": "bytes32",
          "name": "",
          "type": "bytes32"
        }
      ],
      "stateMutability": "view",
      "type": "function"
    },
    {
      "inputs": [
        {
          "internalType": "bytes32",
          "name": "",
          "type": "bytes32"
        },
        {
          "internalType": "bytes32",
          "name": "",
          "type": "bytes32"
        }
      ],
      "name": "members",
      "outputs": [
        {
          "internalType": "bytes32",
          "name": "agentId",
          "type": "bytes32"
        },
        {
          "internalType": "uint256",
          "name": "joinedAt",
          "type": "uint256"
        },
        {
          "internalType": "uint256",
          "name": "votingPower",
          "type": "uint256"
        },
        {
          "internalType": "uint256",
          "name": "contribution",
          "type": "uint256"
        },
        {
          "internalType": "bool",
          "name": "active",
          "type": "bool"
        }
      ],
      "stateMutability": "view",
      "type": "function"
    },
    {
      "inputs": [
        {
          "internalType": "bytes32",
          "name": "",
          "type": "bytes32"
        }
      ],
      "name": "proposalCounter",
      "outputs": [
        {
          "internalType": "uint256",
          "name": "",
          "type": "uint256"
        }
      ],
      "stateMutability": "view",
      "type": "function"
    },
    {
      "inputs": [
        {
          "internalType": "bytes32",
          "name": "",
          "type": "bytes32"
        },
        {
          "internalType": "bytes32",
          "name": "",
          "type": "bytes32"
        }
      ],
      "name": "proposals",
      "outputs": [
        {
          "internalType": "bytes32",
          "name": "proposalId",
          "type": "bytes32"
        },
        {
          "internalType": "enum SyndicateVault.ProposalType",
          "name": "proposalType",
          "type": "uint8"
        },
        {
          "internalType": "bytes32",
          "name": "targetAgentId",
          "type": "bytes32"
        },
        {
          "internalType": "bytes",
          "name": "data",
          "type": "bytes"
        },
        {
          "internalType": "address",
          "name": "proposer",
          "type": "address"
        },
        {
          "internalType": "uint256",
          "name": "createdAt",
          "type": "uint256"
        },
        {
          "internalType": "uint256",
          "name": "deadline",
          "type": "uint256"
        },
        {
          "internalType": "uint256",
          "name": "votesFor",
          "type": "uint256"
        },
        {
          "internalType": "uint256",
          "name": "votesAgainst",
          "type": "uint256"
        },
        {
          "internalType": "bool",
          "name": "executed",
          "type": "bool"
        },
        {
          "internalType": "bool",
          "name": "cancelled",
          "type": "bool"
        }
      ],
      "stateMutability": "view",
      "type": "function"
    },
    {
      "inputs": [
        {
          "internalType": "bytes32",
          "name": "role",
          "type": "bytes32"
        },
        {
          "internalType": "address",
          "name": "callerConfirmation",
          "type": "address"
        }
      ],
      "name": "renounceRole",
      "outputs": [],
      "stateMutability": "nonpayable",
      "type": "function"
    },
    {
      "inputs": [
        {
          "internalType": "bytes32",
          "name": "syndicateId",
          "type": "bytes32"
        },
        {
          "internalType": "bytes32",
          "name": "agentId",
          "type": "bytes32"
        }
      ],
      "name": "requestMembership",
      "outputs": [
        {
          "internalType": "bytes32",
          "name": "proposalId",
          "type": "bytes32"
        }
      ],
      "stateMutability": "nonpayable",
      "type": "function"
    },
    {
      "inputs": [
        {
          "internalType": "bytes32",
          "name": "role",
          "type": "bytes32"
        },
        {
          "internalType": "address",
          "name": "account",
          "type": "address"
        }
      ],
      "name": "revokeRole",
      "outputs": [],
      "stateMutability": "nonpayable",
      "type": "function"
    },
    {
      "inputs": [
        {
          "internalType": "bytes4",
          "name": "interfaceId",
          "type": "bytes4"
        }
      ],
      "name": "supportsInterface",
      "outputs": [
        {
          "internalType": "bool",
          "name": "",
          "type": "bool"
        }
      ],
      "stateMutability": "view",
      "type": "function"
    },
    {
      "inputs": [
        {
          "internalType": "bytes32",
          "name": "",
          "type": "bytes32"
        }
      ],
      "name": "syndicates",
      "outputs": [
        {
          "internalType": "bytes32",
          "name": "syndicateId",
          "type": "bytes32"
        },
        {
          "internalType": "string",
          "name": "name",
          "type": "string"
        },
        {
          "internalType": "address",
          "name": "founder",
          "type": "address"
        },
        {
          "internalType": "uint256",
          "name": "minReputation",
          "type": "uint256"
        },
        {
          "internalType": "uint256",
          "name": "maxMembers",
          "type": "uint256"
        },
        {
          "internalType": "uint256",
          "name": "votingThresholdBps",
          "type": "uint256"
        },
        {
          "internalType": "uint256",
          "name": "proposalDuration",
          "type": "uint256"
        },
        {
          "internalType": "uint256",
          "name": "syndicateFeeBps",
          "type": "uint256"
        },
        {
          "internalType": "bool",
          "name": "requiresProof",
          "type": "bool"
        },
        {
          "internalType": "bool",
          "name": "active",
          "type": "bool"
        }
      ],
      "stateMutability": "view",
      "type": "function"
    },
    {
      "inputs": [],
      "name": "totalSyndicates",
      "outputs": [
        {
          "internalType": "uint256",
          "name": "",
          "type": "uint256"
        }
      ],
      "stateMutability": "view",
      "type": "function"
    },
    {
      "inputs": [
        {
          "internalType": "bytes32",
          "name": "",
          "type": "bytes32"
        },
        {
          "internalType": "address",
          "name": "",
          "type": "address"
        }
      ],
      "name": "treasury",
      "outputs": [
        {
          "internalType": "uint256",
          "name": "",
          "type": "uint256"
        }
      ],
      "stateMutability": "view",
      "type": "function"
    },
    {
      "inputs": [
        {
          "internalType": "bytes32",
          "name": "syndicateId",
          "type": "bytes32"
        },
        {
          "internalType": "bytes32",
          "name": "proposalId",
          "type": "bytes32"
        },
        {
          "internalType": "bytes32",
          "name": "agentId",
          "type": "bytes32"
        },
        {
          "internalType": "bool",
          "name": "approve",
          "type": "bool"
        }
      ],
      "name": "vote",
      "outputs": [],
      "stateMutability": "nonpayable",
      "type": "function"
    },
    {
      "inputs": [
        {
          "internalType": "bytes32",
          "name": "syndicateId",
          "type": "bytes32"
        },
        {
          "internalType": "address",
          "name": "token",
          "type": "address"
        },
        {
          "internalType": "address payable",
          "name": "to",
          "type": "address"
        },
        {
          "internalType": "uint256",
          "name": "amount",
          "type": "uint256"
        }
      ],
      "name": "withdraw",
      "outputs": [],
      "stateMutability": "nonpayable",
      "type": "function"
    },
    {
      "stateMutability": "payable",
      "type": "receive"
    }
  ],
  "bytecode": "0x60a034620000aa57601f6200288f38819003918201601f19168301916001600160401b03831184841017620000af57808492602094604052833981010312620000aa57516001600160a01b03811690819003620000aa57600180556080526200006833620000c5565b50620000743362000145565b506040516126879081620001e882396080518181816105ee0152818161092401528181610eaf01528181611c310152611ebe0152f35b600080fd5b634e487b7160e01b600052604160045260246000fd5b6001600160a01b031660008181527fad3228b676f7d3cd4284a5443f17f1962b36e491b30a40b2405849e597ba5fb5602052604081205490919060ff166200014157818052816020526040822081835260205260408220600160ff1982541617905533916000805160206200286f8339815191528180a4600190565b5090565b6001600160a01b031660008181527fdf24ef87812553346f1c2e14986a379592cd137cf75dea226a25ad883a60449260205260408120549091907f7b98d014f5ac2a2148a7fdc9c4aa576bd0e99c7f45308957f8460ba49503c9959060ff16620001e257808352826020526040832082845260205260408320600160ff198254161790556000805160206200286f833981519152339380a4600190565b50509056fe608080604052600436101561001d575b50361561001b57600080fd5b005b60003560e01c90816301ffc9a714611f285750806307bd026514611eed5780630d1cfcae14611ea85780631619d61d14611e60578063248a9ca314611e315780632f2ff15d14611df257806336568abe14611dab5780633fc72e4814611aa757806352a404db14611a7957806367aab1d414611a415780636aeb2545146119555780636f74d175146119295780637573cd151461183457806378ecbd99146117ed57806379bf86061461135c5780637fefba9014610e215780638e0cc17614610c5357806391d1485414610c0657806393f36bd814610bda578063a217fddf14610bbe578063a57d209314610b5a578063b3e669e514610b09578063c8f01eba146108a8578063d547741f14610869578063d68d9d4e146107a6578063d9ceba96146104d7578063de6fc80f146104ab578063dfb42fd114610326578063f645486a146102eb578063f9285d43146102cd5763fc92f5c11461017f573861000f565b346102c8576020806003193601126102c857600435600052600281526040600020805460019182810160405190856000958254926101bc84611fe9565b808652938281169081156102a65750600114610269575b82878760ff886101e5818e0382612023565b60018060a01b03600284015416926003810154600482015460058301549060068401549261022f60086007870154960154966040519b8c9b8c5261014080918d01528b0190612045565b9760408a01526060890152608088015260a087015260c086015260e0850152818116151561010085015260081c1615156101208301520390f35b600090815282812092975092915b828410610293575050508101909301926101e58560ff836101d3565b8054858501890152928701928101610277565b60ff19168487015250505090151560051b82010193506101e58560ff836101d3565b600080fd5b346102c85760003660031901126102c8576020600a54604051908152f35b346102c85760003660031901126102c85760206040517f7b98d014f5ac2a2148a7fdc9c4aa576bd0e99c7f45308957f8460ba49503c9958152f35b346102c85761033436611fbb565b906000526020906005825260406000209060005281526040600020805491600160ff81840154169060028401549360038101604051809360009083549361037a85611fe9565b9485855289838216918260001461048957505060011461044a575b50506103a392500383612023565b60018060a01b0360048201541693600582015460068301549060078401549260096008860154950154956040519a8b526006881015610434578a9960ff986103fe938c015260408b01526101608060608c01528a0190612045565b96608089015260a088015260c087015260e0860152610100850152818116151561012085015260081c1615156101408301520390f35b634e487b7160e01b600052602160045260246000fd5b88925060005281600020906000915b8583106104715750506103a393508201018980610395565b80548389018501528794508993909201918101610459565b92509350506103a394915060ff191682840152151560051b8201018980610395565b346102c85760203660031901126102c85760043560005260096020526020604060002054604051908152f35b346102c8576104e536611fbb565b906104ee61226c565b806000526020600581526040600020836000528152604060002090610518600583015415156124c9565b600682015442111561076e576009820191825460ff81161580610760575b15610727578460005260028352604060002061271061056d600785015492600561056460088801548661250a565b9101549061252d565b0411158094600160ff198094161790556105b3575b50507f14a409680c93fea43536d9d6f6e27218f23b76dc0565df9e6d2076a368ccedd291604051908152a360018055005b60ff6001830154166006811015610434578061069e5750506002015460405163a6c2af0160e01b81526004810182905290929060e0816024817f00000000000000000000000000000000000000000000000000000000000000006001600160a01b03165afa8015610692577f14a409680c93fea43536d9d6f6e27218f23b76dc0565df9e6d2076a368ccedd2946106539260009261065a575b50866123c8565b9185610582565b61067d91925060e03d60e01161068b575b6106758183612023565b810190612330565b50945050505050908861064c565b503d61066b565b6040513d6000823e3d90fd5b9060017f14a409680c93fea43536d9d6f6e27218f23b76dc0565df9e6d2076a368ccedd2959392146106d2575b5050610653565b85600052600384526002604060002092019182546000528452600460406000200190815416905554847fba1ee07020814e27a15711a060710e5d88b4ad5f178a5feb9fe0706048fa77b4600080a385806106cb565b60405162461bcd60e51b8152600481018490526011602482015270105b1c9958591e48199a5b985b1a5e9959607a1b6044820152606490fd5b5060ff8160081c1615610536565b6064906040519062461bcd60e51b8252600482015260116024820152702b37ba34b7339039ba34b6361037b832b760791b6044820152fd5b60203660031901126102c8576004356107bd61226c565b8060005260026020526107dd60ff60086040600020015460081c1661228f565b34156108345780600052600860205260406000206107fc34825461250a565b90557fe0f1c194717590480e51c809e7cbeef1245ccfd1fe3501495bd2e715549ef2b56040805160008152346020820152a260018055005b60405162461bcd60e51b815260206004820152600d60248201526c139bc81d985b1d59481cd95b9d609a1b6044820152606490fd5b346102c85760403660031901126102c85761001b600435610888611f7b565b908060005260006020526108a36001604060002001546120ff565b6121a3565b346102c85760803660031901126102c8576064356044356024356004358315158085036102c8576108d761226c565b8160005260209160038352604060002085600052835260406000209060ff60048301541615610ad05760405163a6c2af0160e01b8152600481018790526001600160a01b0360e0826024817f000000000000000000000000000000000000000000000000000000000000000085165afa80156106925761096292600091610aab575b5016331461238a565b600052600583526040600020846000528352604060002090610989600583015415156124c9565b60068201544211610a76578460005260068452604060002086600052845260ff60406000205416610a41578495967f7f071deb3826dd6db743e001ac33aac5ec0ee7b7cfa39e31c14b94f78d0f3b9f956000526006855260406000208860005285526040600020600160ff19825416179055600014610a265760076002610a16920154920191825461250a565b90555b604051908152a360018055005b60086002610a3a920154920191825461250a565b9055610a19565b60405162461bcd60e51b815260048101859052600d60248201526c105b1c9958591e481d9bdd1959609a1b6044820152606490fd5b60405162461bcd60e51b815260048101859052600d60248201526c159bdd1a5b99c818db1bdcd959609a1b6044820152606490fd5b610ac4915060e03d60e01161068b576106758183612023565b5050505050508a610959565b60405162461bcd60e51b81526004810185905260116024820152702737ba1030b1ba34bb329036b2b6b132b960791b6044820152606490fd5b346102c85760203660031901126102c857600435600a548110156102c857602090600a6000527fc65a7bb8d6351c1cf70c95a316cc6a92839c986682d98bc35f958f4883f9d2a80154604051908152f35b346102c857610b6836611fbb565b90600052600360205260406000209060005260205260a06040600020805490600181015490600281015460ff60046003840154930154169260405194855260208501526040840152606083015215156080820152f35b346102c85760003660031901126102c857602060405160008152f35b346102c85760203660031901126102c85760043560005260046020526020604060002054604051908152f35b346102c85760403660031901126102c857610c1f611f7b565b600435600052600060205260406000209060018060a01b0316600052602052602060ff604060002054166040519015158152f35b346102c85760803660031901126102c857600435610c6f611f7b565b6044356001600160a01b03818116918290036102c85760643592610c91612085565b610c9961226c565b1680610d68578360005260086020528260406000205410610d30578360005260086020526040600020610ccd84825461259c565b9055600083838115610d26575b600092839283928392f115610692577f6c3a45613039e0a1117bd6ce110ab3c920271709c010983d921a2cd268e2ea47926060925b60405192835260208301526040820152a260018055005b6108fc9250610cda565b60405162461bcd60e51b815260206004820152601060248201526f092dce6eaccccd2c6d2cadce8408aa8960831b6044820152606490fd5b8360005260076020526040600020816000526020528260406000205410610de5577f6c3a45613039e0a1117bd6ce110ab3c920271709c010983d921a2cd268e2ea47926060928560005260076020526040600020836000526020526040600020610dd383825461259c565b9055610de08282856125a9565b610d0f565b60405162461bcd60e51b8152602060048201526014602482015273496e73756666696369656e742062616c616e636560601b6044820152606490fd5b346102c857610e2f36611fbb565b610e3761226c565b8160005260026020526040600020610e5860ff600883015460081c1661228f565b826000526003602052604060002082600052602052610e7f600160406000200154156122d2565b8260005260046020526040600020546004820154111561132657604051636fb98a1360e01b8152600481018390527f00000000000000000000000000000000000000000000000000000000000000006001600160a01b03169190602081602481865afa908115610692576000916112ec575b50156112b85760e06024926040519384809263a6c2af01851b82528760048301525afa90811561069257600092600092611287575b50610f3d6003929360018060a01b0316331461238a565b01541161124d576040516020810181811067ffffffffffffffff82111761123757604052600081528260005260096020526040600020610f7d81546125ec565b905582600052600960205260406000205460405160208101918583526040820152604081526060810181811067ffffffffffffffff8211176112375760405251902090836000526002602052610fdb6006604060002001544261250a565b9060405193610160850185811067ffffffffffffffff8211176112375760405283855260006020860152604085015260608401523360808401524260a084015260c0830152600060e08301526000610100830152600061012083015260006101408301528260005260056020526040600020816000526020526040600020928251845560018401602084015160068110156104345760ff8019835416911617905560408301516002850155606083015193845167ffffffffffffffff8111611237576020956110ba826110b16003860154611fe9565b60038601612218565b8690601f83116001146111be5761117d9383879894610140946009946000926111b3575b50508160011b916000199060031b1c19161760038201555b6004810160018060a01b036080860151166bffffffffffffffffffffffff60a01b82541617905560a0840151600582015560c0840151600682015560e08401516007820155610100840151600882015501916111656101208201511515849060ff801983541691151516179055565b0151815461ff00191690151560081b61ff0016179055565b7f7fb99b0e057117361d5136cdcb4cd813d0686bce950d14921632455351c341cd8460405160008152a360018055604051908152f35b015190508b806110de565b9060038401600052876000209160005b601f19851681106112205750936001846101409460099461117d988b9c98601f19811610611207575b505050811b0160038201556110f6565b015160001960f88460031b161c191690558b80806111f7565b9192896001819286850151815501940192016111ce565b634e487b7160e01b600052604160045260246000fd5b60405162461bcd60e51b815260206004820152601260248201527152657075746174696f6e20746f6f206c6f7760701b6044820152606490fd5b610f3d9350600392506112a89060e03d60e01161068b576106758183612023565b5097949350505050939250610f26565b60405162461bcd60e51b815260206004820152600c60248201526b4e6f7420656c696769626c6560a01b6044820152606490fd5b90506020813d60201161131e575b8161130760209383612023565b810103126102c8576113189061230f565b85610ef1565b3d91506112fa565b60405162461bcd60e51b815260206004820152600e60248201526d14de5b991a58d85d1948199d5b1b60921b6044820152606490fd5b346102c8576101003660031901126102c85767ffffffffffffffff602435116102c8573660236024350112156102c85767ffffffffffffffff60243560040135116102c85736602480356004013581350101116102c85760e43580151581036102c8576113c761226c565b600435600052600260205260018060a01b03600260406000200154166117b5576127106084351161177c5761138860c4351161174857610e1060a4351061170e57604051908161014081011067ffffffffffffffff6101408401111761123757610140820160405260043582526040516114516020601f19601f6024356004013501160182612023565b6024803560048101358084529101602083013760006020602435600401358301015260208301523360408301526044356060830152606435608083015260843560a083015260a43560c083015260c43560e083015215156101008201526001610120820152600435600052600260205260406000209080518255602081015180519067ffffffffffffffff8211611237576114fc826114f36001870154611fe9565b60018701612218565b602090601f8311600114611695579382610120936008936115af9760009261168a575b50508160011b916000199060031b1c19161760018201555b6002810160018060a01b036040860151166bffffffffffffffffffffffff60a01b825416179055606084015160038201556080840151600482015560a0840151600582015560c0840151600682015560e0840151600782015501916111656101008201511515849060ff801983541691151516179055565b600a54600160401b811015611237576001810180600a5581101561167457600a600052600435907fc65a7bb8d6351c1cf70c95a316cc6a92839c986682d98bc35f958f4883f9d2a801556040516040815260243560040135604082015260243560040135602480350160608301376000606060243560040135830101523360208201527fe1487469246e0cd124e44a55f6d3394cdab226d28d1b2099412203198cde4cf260043591606081601f19601f6024356004013501168101030190a260018055005b634e487b7160e01b600052603260045260246000fd5b01519050878061151f565b906001850160005260206000209160005b601f19851681106116f65750836008936115af979360019361012097601f198116106116dd575b505050811b016001820155611537565b015160001960f88460031b161c191690558780806116cd565b919260206001819286850151815501940192016116a6565b60405162461bcd60e51b8152602060048201526012602482015271111d5c985d1a5bdb881d1bdbc81cda1bdc9d60721b6044820152606490fd5b60405162461bcd60e51b815260206004820152600c60248201526b08ccaca40e8dede40d0d2ced60a31b6044820152606490fd5b60405162461bcd60e51b8152602060048201526011602482015270125b9d985b1a59081d1a1c995cda1bdb19607a1b6044820152606490fd5b60405162461bcd60e51b815260206004820152601060248201526f53796e6469636174652065786973747360801b6044820152606490fd5b346102c85760403660031901126102c8576024356004356000526004602052604060002080548210156102c85760209161182691611fd1565b90546040519160031b1c8152f35b346102c85761184236611f91565b61184a61226c565b82600052600260205261186a60ff60086040600020015460081c1661228f565b6040516323b872dd60e01b602082015233602482015230604482015260648082018390528152916001600160a01b03811660a0840167ffffffffffffffff811185821017611237577fe0f1c194717590480e51c809e7cbeef1245ccfd1fe3501495bd2e715549ef2b5946118e19160405282612540565b846000526007602052604060002090600052602052604060002061190683825461250a565b9055604080516001600160a01b039290921682526020820192909252a260018055005b346102c85760203660031901126102c85760043560005260086020526020604060002054604051908152f35b346102c85760603660031901126102c85760043560243590806000526020916002835260018060a01b0360026040600020015416331480156119ff575b156119c95761001b92826000526003815260406000209082600052526119c0600160406000200154156122d2565b604435916123c8565b60405162461bcd60e51b815260048101849052600e60248201526d139bdd08185d5d1a1bdc9a5e995960921b6044820152606490fd5b507fd8aa0f3194971a2a116679f7c2090f6939c8d4e01a2a8d7e41d55e5351469e6360005260008352604060002033600052835260ff60406000205416611992565b346102c857611a4f36611fbb565b906000526006602052604060002090600052602052602060ff604060002054166040519015158152f35b346102c85760403660031901126102c8576020611a9f611a97611f7b565b60043561260f565b604051908152f35b346102c857611ab536611f91565b611abd612085565b611ac561226c565b82600052600290611af1602091838352612710611aea6007604060002001548361252d565b049061259c565b926000918560005260048152604060002091604051808484829654938481520190600052846000209260005b86828210611d9557505050611b3492500384612023565b60005b8351811015611b9b5787600052600383526040600020611b5782866125fb565b51600052835285604060002060ff600482015416611b80575b5050611b7b906125ec565b611b37565b01549094611b7b91611b919161250a565b9490508589611b70565b509290919481159081611d5c5760005b8751811015611d2b5788600052600385526040600020611bcb828a6125fb565b516000528552604060002060ff600482015416611bf2575b50611bed906125ec565b611bab565b83611c00898301548561252d565b90611d1557905460405163a6c2af0160e01b8152600481019190915290859004906001600160a01b0360e0826024817f000000000000000000000000000000000000000000000000000000000000000085165afa91821561069257600092611cee575b508b89821680611cb45750600093849384938493845260088c5260408420611c8c84825461259c565b905583918315611caa575b1690f11561069257611bed905b90611be3565b6108fc9250611c97565b611bed95949250611ce9939160005260078a526040600020816000528a526040600020611ce284825461259c565b90556125a9565b611ca4565b611d0891925060e03d60e01161068b576106758183612023565b505050505050908c611c63565b634e487b7160e01b600052601260045260246000fd5b887f9cafd5226a9e7f90e1032b7bac875934a802f5ace22905aef540b38d260c5a828684604051908152a260018055005b60405162461bcd60e51b81526004810185905260116024820152704e6f20616374697665206d656d6265727360781b6044820152606490fd5b8554845260019586019589955093019201611b1d565b346102c85760403660031901126102c857611dc4611f7b565b336001600160a01b03821603611de05761001b906004356121a3565b60405163334bd91960e11b8152600490fd5b346102c85760403660031901126102c85761001b600435611e11611f7b565b90806000526000602052611e2c6001604060002001546120ff565b612125565b346102c85760203660031901126102c85760043560005260006020526020600160406000200154604051908152f35b346102c85760403660031901126102c857611e79611f7b565b600435600052600760205260406000209060018060a01b03166000526020526020604060002054604051908152f35b346102c85760003660031901126102c8576040517f00000000000000000000000000000000000000000000000000000000000000006001600160a01b03168152602090f35b346102c85760003660031901126102c85760206040517fd8aa0f3194971a2a116679f7c2090f6939c8d4e01a2a8d7e41d55e5351469e638152f35b346102c85760203660031901126102c8576004359063ffffffff60e01b82168092036102c857602091637965db0b60e01b8114908115611f6a575b5015158152f35b6301ffc9a760e01b14905083611f63565b602435906001600160a01b03821682036102c857565b60609060031901126102c857600435906024356001600160a01b03811681036102c8579060443590565b60409060031901126102c8576004359060243590565b80548210156116745760005260206000200190600090565b90600182811c92168015612019575b602083101461200357565b634e487b7160e01b600052602260045260246000fd5b91607f1691611ff8565b90601f8019910116810190811067ffffffffffffffff82111761123757604052565b919082519283825260005b848110612071575050826000602080949584010152601f8019910116010190565b602081830181015184830182015201612050565b3360009081527fdae2aa361dfd1ca020a396615627d436107c35eff9fe7738a3512819782d706960205260409020547fd8aa0f3194971a2a116679f7c2090f6939c8d4e01a2a8d7e41d55e5351469e639060ff16156120e15750565b6044906040519063e2517d3f60e01b82523360048301526024820152fd5b80600052600060205260406000203360005260205260ff60406000205416156120e15750565b9060009180835282602052604083209160018060a01b03169182845260205260ff6040842054161560001461219e57808352826020526040832082845260205260408320600160ff198254161790557f2f8788117e7eff1d82e926ec794901d17c78024a50270940304540a733656f0d339380a4600190565b505090565b9060009180835282602052604083209160018060a01b03169182845260205260ff60408420541660001461219e5780835282602052604083208284526020526040832060ff1981541690557ff6391f5c32d9c69d2a47ea670b442974b53935d1edc7fd64eb21e047a839171b339380a4600190565b90601f811161222657505050565b600091825260208220906020601f850160051c83019410612262575b601f0160051c01915b82811061225757505050565b81815560010161224b565b9092508290612242565b60026001541461227d576002600155565b604051633ee5aeb560e01b8152600490fd5b1561229657565b60405162461bcd60e51b815260206004820152601460248201527353796e646963617465206e6f742061637469766560601b6044820152606490fd5b156122d957565b60405162461bcd60e51b815260206004820152600e60248201526d20b63932b0b23c9036b2b6b132b960911b6044820152606490fd5b519081151582036102c857565b51906001600160a01b03821682036102c857565b908160e09103126102c8576123448161231c565b916123516020830161231c565b91604081015160048110156102c85791606082015160048110156102c8579160808101519161238760c060a0840151930161230f565b90565b1561239157565b60405162461bcd60e51b815260206004820152600f60248201526e2737ba1030b3b2b73a1037bbb732b960891b6044820152606490fd5b90916040805160a081019080821067ffffffffffffffff831117611237576124519183528581526004602082014281528483019586526060830160009687825260808501926001845289895260036020528789208b8a526020528789209551865551600186015551600285015551600384015551151591019060ff801983541691151516179055565b82825260046020528120805490600160401b8210156124b5578161249c9160017fb3c629d160375e0b61916318967be088f5ec1cb6cf35aa5d7fc07ff1bd14136e9594018155611fd1565b81549060031b9086821b91600019901b191617905580a3565b634e487b7160e01b83526041600452602483fd5b156124d057565b60405162461bcd60e51b8152602060048201526012602482015271141c9bdc1bdcd85b081b9bdd08199bdd5b9960721b6044820152606490fd5b9190820180921161251757565b634e487b7160e01b600052601160045260246000fd5b8181029291811591840414171561251757565b906000602091828151910182855af115610692576000513d61259357506001600160a01b0381163b155b6125715750565b604051635274afe760e01b81526001600160a01b039091166004820152602490fd5b6001141561256a565b9190820391821161251757565b60405163a9059cbb60e01b60208201526001600160a01b039290921660248301526044808301939093529181526125ea916125e5606483612023565b612540565b565b60001981146125175760010190565b80518210156116745760209160051b010190565b6001600160a01b0390911690811561263e57600052600760205260406000209060005260205260406000205490565b905060005260086020526040600020549056fea264697066735822122090349c0c72b2ef4c63843bbf9e748dd2f22063e18d4410aa0d82ceb981b381e664736f6c634300081400332f8788117e7eff1d82e926ec794901d17c78024a50270940304540a733656f0d",
  "linkReferences": {},
  "deployedLinkReferences": {}
}