{"src/SyndicateVault.sol":{"SyndicateVault":{"abi":[{"inputs":[{"internalType":"address","name":"_agentRegistry","type":"address"}],"stateMutability":"nonpayable","type":"constructor"},{"inputs":[],"name":"AccessControlBadConfirmation","type":"error"},{"inputs":[{"internalType":"address","name":"account","type":"address"},{"internalType":"bytes32","name":"neededRole","type":"bytes32"}],"name":"AccessControlUnauthorizedAccount","type":"error"},{"inputs":[],"name":"ReentrancyGuardReentrantCall","type":"error"},{"inputs":[{"internalType":"address","name":"token","type":"address"}],"name":"SafeERC20FailedOperation","type":"error"},{"anonymous":false,"inputs":[{"indexed":true,"internalType":"bytes32","name":"syndicateId","type":"bytes32"},{"indexed":false,"internalType":"address","name":"token","type":"address"},{"indexed":false,"internalType":"uint256","name":"amount","type":"uint256"}],"name":"DepositReceived","type":"event"},{"anonymous":false,"inputs":[{"indexed":true,"internalType":"bytes32","name":"syndicateId","type":"bytes32"},{"indexed":true,"internalType":"bytes32","name":"agentId","type":"bytes32"}],"name":"MemberJoined","type":"event"},{"anonymous":false,"inputs":[{"indexed":true,"internalType":"bytes32","name":"syndicateId","type":"bytes32"},{"indexed":true,"internalType":"bytes32","name":"agentId","type":"bytes32"}],"name":"MemberLeft","type":"event"},{"anonymous":false,"inputs":[{"indexed":true,"internalType":"bytes32","name":"syndicateId","type":"bytes32"},{"indexed":false,"internalType":"uint256","name":"totalAmount","type":"uint256"}],"name":"ProfitsDistributed","type":"event"},{"anonymous":false,"inputs":[{"indexed":true,"internalType":"bytes32","name":"syndicateId","type":"bytes32"},{"indexed":true,"internalType":"bytes32","name":"proposalId","type":"bytes32"},{"indexed":false,"internalType":"enum SyndicateVault.ProposalType","name":"proposalType","type":"uint8"}],"name":"ProposalCreated","type":"event"},{"anonymous":false,"inputs":[{"indexed":true,"internalType":"bytes32","name":"syndicateId","type":"bytes32"},{"indexed":true,"internalType":"bytes32","name":"proposalId","type":"bytes32"},{"indexed":false,"internalType":"bool","name":"success","type":"bool"}],"name":"ProposalExecuted","type":"event"},{"anonymous":false,"inputs":[{"indexed":true,"internalType":"bytes32","name":"role","type":"bytes32"},{"indexed":true,"internalType":"bytes32","name":"previousAdminRole","type":"bytes32"},{"indexed":true,"internalType":"bytes32","name":"newAdminRole","type":"bytes32"}],"name":"RoleAdminChanged","type":"event"},{"anonymous":false,"inputs":[{"indexed":true,"internalType":"bytes32","name":"role","type":"bytes32"},{"indexed":true,"internalType":"address","name":"account","type":"address"},{"indexed":true,"internalType":"address","name":"sender","type":"address"}],"name":"RoleGranted","type":"event"},{"anonymous":false,"inputs":[{"indexed":true,"internalType":"bytes32","name":"role","type":"bytes32"},{"indexed":true,"internalType":"address","name":"account","type":"address"},{"indexed":true,"internalType":"address","name":"sender","type":"address"}],"name":"RoleRevoked","type":"event"},{"anonymous":false,"inputs":[{"indexed":true,"internalType":"bytes32","name":"syndicateId","type":"bytes32"},{"indexed":false,"internalType":"string","name":"name","type":"string"},{"indexed":false,"internalType":"address","name":"founder","type":"address"}],"name":"SyndicateCreated","type":"event"},{"anonymous":false,"inputs":[{"indexed":true,"internalType":"bytes32","name":"proposalId","type":"bytes32"},{"indexed":true,"internalType":"bytes32","name":"agentId","type":"bytes32"},{"indexed":false,"internalType":"bool","name":"approve","type":"bool"}],"name":"Voted","type":"event"},{"anonymous":false,"inputs":[{"indexed":true,"internalType":"bytes32","name":"syndicateId","type":"bytes32"},{"indexed":false,"internalType":"address","name":"token","type":"address"},{"indexed":false,"internalType":"address","name":"to","type":"address"},{"indexed":false,"internalType":"uint256","name":"amount","type":"uint256"}],"name":"Withdrawal","type":"event"},{"inputs":[],"name":"DEFAULT_ADMIN_ROLE","outputs":[{"internalType":"bytes32","name":"","type":"bytes32"}],"stateMutability":"view","type":"function"},{"inputs":[],"name":"EXECUTOR_ROLE","outputs":[{"internalType":"bytes32","name":"","type":"bytes32"}],"stateMutability":"view","type":"function"},{"inputs":[],"name":"SYNDICATE_ADMIN_ROLE","outputs":[{"internalType":"bytes32","name":"","type":"bytes32"}],"stateMutability":"view","type":"function"},{"inputs":[{"internalType":"bytes32","name":"syndicateId","type":"bytes32"},{"internalType":"bytes32","name":"agentId","type":"bytes32"},{"internalType":"uint256","name":"votingPower","type":"uint256"}],"name":"addMember","outputs":[],"stateMutability":"nonpayable","type":"function"},{"inputs":[],"name":"agentRegistry","outputs":[{"internalType":"contract AgentRegistry","name":"","type":"address"}],"stateMutability":"view","type":"function"},{"inputs":[{"internalType":"uint256","name":"","type":"uint256"}],"name":"allSyndicateIds","outputs":[{"internalType":"bytes32","name":"","type":"bytes32"}],"stateMutability":"view","type":"function"},{"inputs":[{"internalType":"bytes32","name":"syndicateId","type":"bytes32"},{"internalType":"string","name":"name","type":"string"},{"internalType":"uint256","name":"minReputation","type":"uint256"},{"internalType":"uint256","name":"maxMembers","type":"uint256"},{"internalType":"uint256","name":"votingThresholdBps","type":"uint256"},{"internalType":"uint256","name":"proposalDuration","type":"uint256"},{"internalType":"uint256","name":"syndicateFeeBps","type":"uint256"},{"internalType":"bool","name":"requiresProof","type":"bool"}],"name":"createSyndicate","outputs":[],"stateMutability":"nonpayable","type":"function"},{"inputs":[{"internalType":"bytes32","name":"syndicateId","type":"bytes32"}],"name":"depositETH","outputs":[],"stateMutability":"payable","type":"function"},{"inputs":[{"internalType":"bytes32","name":"syndicateId","type":"bytes32"},{"internalType":"address","name":"token","type":"address"},{"internalType":"uint256","name":"amount","type":"uint256"}],"name":"depositToken","outputs":[],"stateMutability":"nonpayable","type":"function"},{"inputs":[{"internalType":"bytes32","name":"syndicateId","type":"bytes32"},{"internalType":"address","name":"token","type":"address"},{"internalType":"uint256","name":"amount","type":"uint256"}],"name":"distributeProfits","outputs":[],"stateMutability":"nonpayable","type":"function"},{"inputs":[{"internalType":"bytes32","name":"","type":"bytes32"}],"name":"ethTreasury","outputs":[{"internalType":"uint256","name":"","type":"uint256"}],"stateMutability":"view","type":"function"},{"inputs":[{"internalType":"bytes32","name":"syndicateId","type":"bytes32"},{"internalType":"bytes32","name":"proposalId","type":"bytes32"}],"name":"executeProposal","outputs":[],"stateMutability":"nonpayable","type":"function"},{"inputs":[{"internalType":"bytes32","name":"syndicateId","type":"bytes32"}],"name":"getMemberCount","outputs":[{"internalType":"uint256","name":"","type":"uint256"}],"stateMutability":"view","type":"function"},{"inputs":[{"internalType":"bytes32","name":"role","type":"bytes32"}],"name":"getRoleAdmin","outputs":[{"internalType":"bytes32","name":"","type":"bytes32"}],"stateMutability":"view","type":"function"},{"inputs":[{"internalType":"bytes32","name":"syndicateId","type":"bytes32"},{"internalType":"address","name":"token","type":"address"}],"name":"getTreasuryBalance","outputs":[{"internalType":"uint256","name":"","type":"uint256"}],"stateMutability":"view","type":"function"},{"inputs":[{"internalType":"bytes32","name":"role","type":"bytes32"},{"internalType":"address","name":"account","type":"address"}],"name":"grantRole","outputs":[],"stateMutability":"nonpayable","type":"function"},{"inputs":[{"internalType":"bytes32","name":"role","type":"bytes32"},{"internalType":"address","name":"account","type":"address"}],"name":"hasRole","outputs":[{"internalType":"bool","name":"","type":"bool"}],"stateMutability":"view","type":"function"},{"inputs":[{"internalType":"bytes32","name":"","type":"bytes32"},{"internalType":"bytes32","name":"","type":"bytes32"}],"name":"hasVoted","outputs":[{"internalType":"bool","name":"","type":"bool"}],"stateMutability":"view","type":"function"},{"inputs":[{"internalType":"bytes32","name":"","type":"bytes32"},{"internalType":"uint256","name":"","type":"uint256"}],"name":"memberList","outputs":[{"internalType":"bytes32","name":"","type":"bytes32"}],"stateMutability":"view","type":"function"},{"inputs":[{"internalType":"bytes32","name":"","type":"bytes32"},{"internalType":"bytes32","name":"","type":"bytes32"}],"name":"members","outputs":[{"internalType":"bytes32","name":"agentId","type":"bytes32"},{"internalType":"uint256","name":"joinedAt","type":"uint256"},{"internalType":"uint256","name":"votingPower","type":"uint256"},{"internalType":"uint256","name":"contribution","type":"uint256"},{"internalType":"bool","name":"active","type":"bool"}],"stateMutability":"view","type":"function"},{"inputs":[{"internalType":"bytes32","name":"","type":"bytes32"}],"name":"proposalCounter","outputs":[{"internalType":"uint256","name":"","type":"uint256"}],"stateMutability":"view","type":"function"},{"inputs":[{"internalType":"bytes32","name":"","type":"bytes32"},{"internalType":"bytes32","name":"","type":"bytes32"}],"name":"proposals","outputs":[{"internalType":"bytes32","name":"proposalId","type":"bytes32"},{"internalType":"enum SyndicateVault.ProposalType","name":"proposalType","type":"uint8"},{"internalType":"bytes32","name":"targetAgentId","type":"bytes32"},{"internalType":"bytes","name":"data","type":"bytes"},{"internalType":"address","name":"proposer","type":"address"},{"internalType":"uint256","name":"createdAt","type":"uint256"},{"internalType":"uint256","name":"deadline","type":"uint256"},{"internalType":"uint256","name":"votesFor","type":"uint256"},{"internalType":"uint256","name":"votesAgainst","type":"uint256"},{"internalType":"bool","name":"executed","type":"bool"},{"internalType":"bool","name":"cancelled","type":"bool"}],"stateMutability":"view","type":"function"},{"inputs":[{"internalType":"bytes32","name":"role","type":"bytes32"},{"internalType":"address","name":"callerConfirmation","type":"address"}],"name":"renounceRole","outputs":[],"stateMutability":"nonpayable","type":"function"},{"inputs":[{"internalType":"bytes32","name":"syndicateId","type":"bytes32"},{"internalType":"bytes32","name":"agentId","type":"bytes32"}],"name":"requestMembership","outputs":[{"internalType":"bytes32","name":"proposalId","type":"bytes32"}],"stateMutability":"nonpayable","type":"function"},{"inputs":[{"internalType":"bytes32","name":"role","type":"bytes32"},{"internalType":"address","name":"account","type":"address"}],"name":"revokeRole","outputs":[],"stateMutability":"nonpayable","type":"function"},{"inputs":[{"internalType":"bytes4","name":"interfaceId","type":"bytes4"}],"name":"supportsInterface","outputs":[{"internalType":"bool","name":"","type":"bool"}],"stateMutability":"view","type":"function"},{"inputs":[{"internalType":"bytes32","name":"","type":"bytes32"}],"name":"syndicates","outputs":[{"internalType":"bytes32","name":"syndicateId","type":"bytes32"},{"internalType":"string","name":"name","type":"string"},{"internalType":"address","name":"founder","type":"address"},{"internalType":"uint256","name":"minReputation","type":"uint256"},{"internalType":"uint256","name":"maxMembers","type":"uint256"},{"internalType":"uint256","name":"votingThresholdBps","type":"uint256"},{"internalType":"uint256","name":"proposalDuration","type":"uint256"},{"internalType":"uint256","name":"syndicateFeeBps","type":"uint256"},{"internalType":"bool","name":"requiresProof","type":"bool"},{"internalType":"bool","name":"active","type":"bool"}],"stateMutability":"view","type":"function"},{"inputs":[],"name":"totalSyndicates","outputs":[{"internalType":"uint256","name":"","type":"uint256"}],"stateMutability":"view","type":"function"},{"inputs":[{"internalType":"bytes32","name":"","type":"bytes32"},{"internalType":"address","name":"","type":"address"}],"name":"treasury","outputs":[{"internalType":"uint256","name":"","type":"uint256"}],"stateMutability":"view","type":"function"},{"inputs":[{"internalType":"bytes32","name":"syndicateId","type":"bytes32"},{"internalType":"bytes32","name":"proposalId","type":"bytes32"},{"internalType":"bytes32","name":"agentId","type":"bytes32"},{"internalType":"bool","name":"approve","type":"bool"}],"name":"vote","outputs":[],"stateMutability":"nonpayable","type":"function"},{"inputs":[{"internalType":"bytes32","name":"syndicateId","type":"bytes32"},{"internalType":"address","name":"token","type":"address"},{"internalType":"address payable","name":"to","type":"address"},{"internalType":"uint256","name":"amount","type":"uint256"}],"name":"withdraw","outputs":[],"stateMutability":"nonpayable","type":"function"},{"stateMutability":"payable","type":"receive"}],"evm":{"bytecode":{"linkReferences":{},"object":"60a034620000aa57601f6200288f38819003918201601f19168301916001600160401b03831184841017620000af57808492602094604052833981010312620000aa57516001600160a01b03811690819003620000aa57600180556080526200006833620000c5565b50620000743362000145565b506040516126879081620001e882396080518181816105ee0152818161092401528181610eaf01528181611c310152611ebe0152f35b600080fd5b634e487b7160e01b600052604160045260246000fd5b6001600160a01b031660008181527fad3228b676f7d3cd4284a5443f17f1962b36e491b30a40b2405849e597ba5fb5602052604081205490919060ff166200014157818052816020526040822081835260205260408220600160ff1982541617905533916000805160206200286f8339815191528180a4600190565b5090565b6001600160a01b031660008181527fdf24ef87812553346f1c2e14986a379592cd137cf75dea226a25ad883a60449260205260408120549091907f7b98d014f5ac2a2148a7fdc9c4aa576bd0e99c7f45308957f8460ba49503c9959060ff16620001e257808352826020526040832082845260205260408320600160ff198254161790556000805160206200286f833981519152339380a4600190565b50509056fe608080604052600436101561001d575b50361561001b57600080fd5b005b60003560e01c90816301ffc9a714611f285750806307bd026514611eed5780630d1cfcae14611ea85780631619d61d14611e60578063248a9ca314611e315780632f2ff15d14611df257806336568abe14611dab5780633fc72e4814611aa757806352a404db14611a7957806367aab1d414611a415780636aeb2545146119555780636f74d175146119295780637573cd151461183457806378ecbd99146117ed57806379bf86061461135c5780637fefba9014610e215780638e0cc17614610c5357806391d1485414610c0657806393f36bd814610bda578063a217fddf14610bbe578063a57d209314610b5a578063b3e669e514610b09578063c8f01eba146108a8578063d547741f14610869578063d68d9d4e146107a6578063d9ceba96146104d7578063de6fc80f146104ab578063dfb42fd114610326578063f645486a146102eb578063f9285d43146102cd5763fc92f5c11461017f573861000f565b346102c8576020806003193601126102c857600435600052600281526040600020805460019182810160405190856000958254926101bc84611fe9565b808652938281169081156102a65750600114610269575b82878760ff886101e5818e0382612023565b60018060a01b03600284015416926003810154600482015460058301549060068401549261022f60086007870154960154966040519b8c9b8c5261014080918d01528b0190612045565b9760408a01526060890152608088015260a087015260c086015260e0850152818116151561010085015260081c1615156101208301520390f35b600090815282812092975092915b828410610293575050508101909301926101e58560ff836101d3565b8054858501890152928701928101610277565b60ff19168487015250505090151560051b82010193506101e58560ff836101d3565b600080fd5b346102c85760003660031901126102c8576020600a54604051908152f35b346102c85760003660031901126102c85760206040517f7b98d014f5ac2a2148a7fdc9c4aa576bd0e99c7f45308957f8460ba49503c9958152f35b346102c85761033436611fbb565b906000526020906005825260406000209060005281526040600020805491600160ff81840154169060028401549360038101604051809360009083549361037a85611fe9565b9485855289838216918260001461048957505060011461044a575b50506103a392500383612023565b60018060a01b0360048201541693600582015460068301549060078401549260096008860154950154956040519a8b526006881015610434578a9960ff986103fe938c015260408b01526101608060608c01528a0190612045565b96608089015260a088015260c087015260e0860152610100850152818116151561012085015260081c1615156101408301520390f35b634e487b7160e01b600052602160045260246000fd5b88925060005281600020906000915b8583106104715750506103a393508201018980610395565b80548389018501528794508993909201918101610459565b92509350506103a394915060ff191682840152151560051b8201018980610395565b346102c85760203660031901126102c85760043560005260096020526020604060002054604051908152f35b346102c8576104e536611fbb565b906104ee61226c565b806000526020600581526040600020836000528152604060002090610518600583015415156124c9565b600682015442111561076e576009820191825460ff81161580610760575b15610727578460005260028352604060002061271061056d600785015492600561056460088801548661250a565b9101549061252d565b0411158094600160ff198094161790556105b3575b50507f14a409680c93fea43536d9d6f6e27218f23b76dc0565df9e6d2076a368ccedd291604051908152a360018055005b60ff6001830154166006811015610434578061069e5750506002015460405163a6c2af0160e01b81526004810182905290929060e0816024817f00000000000000000000000000000000000000000000000000000000000000006001600160a01b03165afa8015610692577f14a409680c93fea43536d9d6f6e27218f23b76dc0565df9e6d2076a368ccedd2946106539260009261065a575b50866123c8565b9185610582565b61067d91925060e03d60e01161068b575b6106758183612023565b810190612330565b50945050505050908861064c565b503d61066b565b6040513d6000823e3d90fd5b9060017f14a409680c93fea43536d9d6f6e27218f23b76dc0565df9e6d2076a368ccedd2959392146106d2575b5050610653565b85600052600384526002604060002092019182546000528452600460406000200190815416905554847fba1ee07020814e27a15711a060710e5d88b4ad5f178a5feb9fe0706048fa77b4600080a385806106cb565b60405162461bcd60e51b8152600481018490526011602482015270105b1c9958591e48199a5b985b1a5e9959607a1b6044820152606490fd5b5060ff8160081c1615610536565b6064906040519062461bcd60e51b8252600482015260116024820152702b37ba34b7339039ba34b6361037b832b760791b6044820152fd5b60203660031901126102c8576004356107bd61226c565b8060005260026020526107dd60ff60086040600020015460081c1661228f565b34156108345780600052600860205260406000206107fc34825461250a565b90557fe0f1c194717590480e51c809e7cbeef1245ccfd1fe3501495bd2e715549ef2b56040805160008152346020820152a260018055005b60405162461bcd60e51b815260206004820152600d60248201526c139bc81d985b1d59481cd95b9d609a1b6044820152606490fd5b346102c85760403660031901126102c85761001b600435610888611f7b565b908060005260006020526108a36001604060002001546120ff565b6121a3565b346102c85760803660031901126102c8576064356044356024356004358315158085036102c8576108d761226c565b8160005260209160038352604060002085600052835260406000209060ff60048301541615610ad05760405163a6c2af0160e01b8152600481018790526001600160a01b0360e0826024817f000000000000000000000000000000000000000000000000000000000000000085165afa80156106925761096292600091610aab575b5016331461238a565b600052600583526040600020846000528352604060002090610989600583015415156124c9565b60068201544211610a76578460005260068452604060002086600052845260ff60406000205416610a41578495967f7f071deb3826dd6db743e001ac33aac5ec0ee7b7cfa39e31c14b94f78d0f3b9f956000526006855260406000208860005285526040600020600160ff19825416179055600014610a265760076002610a16920154920191825461250a565b90555b604051908152a360018055005b60086002610a3a920154920191825461250a565b9055610a19565b60405162461bcd60e51b815260048101859052600d60248201526c105b1c9958591e481d9bdd1959609a1b6044820152606490fd5b60405162461bcd60e51b815260048101859052600d60248201526c159bdd1a5b99c818db1bdcd959609a1b6044820152606490fd5b610ac4915060e03d60e01161068b576106758183612023565b5050505050508a610959565b60405162461bcd60e51b81526004810185905260116024820152702737ba1030b1ba34bb329036b2b6b132b960791b6044820152606490fd5b346102c85760203660031901126102c857600435600a548110156102c857602090600a6000527fc65a7bb8d6351c1cf70c95a316cc6a92839c986682d98bc35f958f4883f9d2a80154604051908152f35b346102c857610b6836611fbb565b90600052600360205260406000209060005260205260a06040600020805490600181015490600281015460ff60046003840154930154169260405194855260208501526040840152606083015215156080820152f35b346102c85760003660031901126102c857602060405160008152f35b346102c85760203660031901126102c85760043560005260046020526020604060002054604051908152f35b346102c85760403660031901126102c857610c1f611f7b565b600435600052600060205260406000209060018060a01b0316600052602052602060ff604060002054166040519015158152f35b346102c85760803660031901126102c857600435610c6f611f7b565b6044356001600160a01b03818116918290036102c85760643592610c91612085565b610c9961226c565b1680610d68578360005260086020528260406000205410610d30578360005260086020526040600020610ccd84825461259c565b9055600083838115610d26575b600092839283928392f115610692577f6c3a45613039e0a1117bd6ce110ab3c920271709c010983d921a2cd268e2ea47926060925b60405192835260208301526040820152a260018055005b6108fc9250610cda565b60405162461bcd60e51b815260206004820152601060248201526f092dce6eaccccd2c6d2cadce8408aa8960831b6044820152606490fd5b8360005260076020526040600020816000526020528260406000205410610de5577f6c3a45613039e0a1117bd6ce110ab3c920271709c010983d921a2cd268e2ea47926060928560005260076020526040600020836000526020526040600020610dd383825461259c565b9055610de08282856125a9565b610d0f565b60405162461bcd60e51b8152602060048201526014602482015273496e73756666696369656e742062616c616e636560601b6044820152606490fd5b346102c857610e2f36611fbb565b610e3761226c565b8160005260026020526040600020610e5860ff600883015460081c1661228f565b826000526003602052604060002082600052602052610e7f600160406000200154156122d2565b8260005260046020526040600020546004820154111561132657604051636fb98a1360e01b8152600481018390527f00000000000000000000000000000000000000000000000000000000000000006001600160a01b03169190602081602481865afa908115610692576000916112ec575b50156112b85760e06024926040519384809263a6c2af01851b82528760048301525afa90811561069257600092600092611287575b50610f3d6003929360018060a01b0316331461238a565b01541161124d576040516020810181811067ffffffffffffffff82111761123757604052600081528260005260096020526040600020610f7d81546125ec565b905582600052600960205260406000205460405160208101918583526040820152604081526060810181811067ffffffffffffffff8211176112375760405251902090836000526002602052610fdb6006604060002001544261250a565b9060405193610160850185811067ffffffffffffffff8211176112375760405283855260006020860152604085015260608401523360808401524260a084015260c0830152600060e08301526000610100830152600061012083015260006101408301528260005260056020526040600020816000526020526040600020928251845560018401602084015160068110156104345760ff8019835416911617905560408301516002850155606083015193845167ffffffffffffffff8111611237576020956110ba826110b16003860154611fe9565b60038601612218565b8690601f83116001146111be5761117d9383879894610140946009946000926111b3575b50508160011b916000199060031b1c19161760038201555b6004810160018060a01b036080860151166bffffffffffffffffffffffff60a01b82541617905560a0840151600582015560c0840151600682015560e08401516007820155610100840151600882015501916111656101208201511515849060ff801983541691151516179055565b0151815461ff00191690151560081b61ff0016179055565b7f7fb99b0e057117361d5136cdcb4cd813d0686bce950d14921632455351c341cd8460405160008152a360018055604051908152f35b015190508b806110de565b9060038401600052876000209160005b601f19851681106112205750936001846101409460099461117d988b9c98601f19811610611207575b505050811b0160038201556110f6565b015160001960f88460031b161c191690558b80806111f7565b9192896001819286850151815501940192016111ce565b634e487b7160e01b600052604160045260246000fd5b60405162461bcd60e51b815260206004820152601260248201527152657075746174696f6e20746f6f206c6f7760701b6044820152606490fd5b610f3d9350600392506112a89060e03d60e01161068b576106758183612023565b5097949350505050939250610f26565b60405162461bcd60e51b815260206004820152600c60248201526b4e6f7420656c696769626c6560a01b6044820152606490fd5b90506020813d60201161131e575b8161130760209383612023565b810103126102c8576113189061230f565b85610ef1565b3d91506112fa565b60405162461bcd60e51b815260206004820152600e60248201526d14de5b991a58d85d1948199d5b1b60921b6044820152606490fd5b346102c8576101003660031901126102c85767ffffffffffffffff602435116102c8573660236024350112156102c85767ffffffffffffffff60243560040135116102c85736602480356004013581350101116102c85760e43580151581036102c8576113c761226c565b600435600052600260205260018060a01b03600260406000200154166117b5576127106084351161177c5761138860c4351161174857610e1060a4351061170e57604051908161014081011067ffffffffffffffff6101408401111761123757610140820160405260043582526040516114516020601f19601f6024356004013501160182612023565b6024803560048101358084529101602083013760006020602435600401358301015260208301523360408301526044356060830152606435608083015260843560a083015260a43560c083015260c43560e083015215156101008201526001610120820152600435600052600260205260406000209080518255602081015180519067ffffffffffffffff8211611237576114fc826114f36001870154611fe9565b60018701612218565b602090601f8311600114611695579382610120936008936115af9760009261168a575b50508160011b916000199060031b1c19161760018201555b6002810160018060a01b036040860151166bffffffffffffffffffffffff60a01b825416179055606084015160038201556080840151600482015560a0840151600582015560c0840151600682015560e0840151600782015501916111656101008201511515849060ff801983541691151516179055565b600a54600160401b811015611237576001810180600a5581101561167457600a600052600435907fc65a7bb8d6351c1cf70c95a316cc6a92839c986682d98bc35f958f4883f9d2a801556040516040815260243560040135604082015260243560040135602480350160608301376000606060243560040135830101523360208201527fe1487469246e0cd124e44a55f6d3394cdab226d28d1b2099412203198cde4cf260043591606081601f19601f6024356004013501168101030190a260018055005b634e487b7160e01b600052603260045260246000fd5b01519050878061151f565b906001850160005260206000209160005b601f19851681106116f65750836008936115af979360019361012097601f198116106116dd575b505050811b016001820155611537565b015160001960f88460031b161c191690558780806116cd565b919260206001819286850151815501940192016116a6565b60405162461bcd60e51b8152602060048201526012602482015271111d5c985d1a5bdb881d1bdbc81cda1bdc9d60721b6044820152606490fd5b60405162461bcd60e51b815260206004820152600c60248201526b08ccaca40e8dede40d0d2ced60a31b6044820152606490fd5b60405162461bcd60e51b8152602060048201526011602482015270125b9d985b1a59081d1a1c995cda1bdb19607a1b6044820152606490fd5b60405162461bcd60e51b815260206004820152601060248201526f53796e6469636174652065786973747360801b6044820152606490fd5b346102c85760403660031901126102c8576024356004356000526004602052604060002080548210156102c85760209161182691611fd1565b90546040519160031b1c8152f35b346102c85761184236611f91565b61184a61226c565b82600052600260205261186a60ff60086040600020015460081c1661228f565b6040516323b872dd60e01b602082015233602482015230604482015260648082018390528152916001600160a01b03811660a0840167ffffffffffffffff811185821017611237577fe0f1c194717590480e51c809e7cbeef1245ccfd1fe3501495bd2e715549ef2b5946118e19160405282612540565b846000526007602052604060002090600052602052604060002061190683825461250a565b9055604080516001600160a01b039290921682526020820192909252a260018055005b346102c85760203660031901126102c85760043560005260086020526020604060002054604051908152f35b346102c85760603660031901126102c85760043560243590806000526020916002835260018060a01b0360026040600020015416331480156119ff575b156119c95761001b92826000526003815260406000209082600052526119c0600160406000200154156122d2565b604435916123c8565b60405162461bcd60e51b815260048101849052600e60248201526d139bdd08185d5d1a1bdc9a5e995960921b6044820152606490fd5b507fd8aa0f3194971a2a116679f7c2090f6939c8d4e01a2a8d7e41d55e5351469e6360005260008352604060002033600052835260ff60406000205416611992565b346102c857611a4f36611fbb565b906000526006602052604060002090600052602052602060ff604060002054166040519015158152f35b346102c85760403660031901126102c8576020611a9f611a97611f7b565b60043561260f565b604051908152f35b346102c857611ab536611f91565b611abd612085565b611ac561226c565b82600052600290611af1602091838352612710611aea6007604060002001548361252d565b049061259c565b926000918560005260048152604060002091604051808484829654938481520190600052846000209260005b86828210611d9557505050611b3492500384612023565b60005b8351811015611b9b5787600052600383526040600020611b5782866125fb565b51600052835285604060002060ff600482015416611b80575b5050611b7b906125ec565b611b37565b01549094611b7b91611b919161250a565b9490508589611b70565b509290919481159081611d5c5760005b8751811015611d2b5788600052600385526040600020611bcb828a6125fb565b516000528552604060002060ff600482015416611bf2575b50611bed906125ec565b611bab565b83611c00898301548561252d565b90611d1557905460405163a6c2af0160e01b8152600481019190915290859004906001600160a01b0360e0826024817f000000000000000000000000000000000000000000000000000000000000000085165afa91821561069257600092611cee575b508b89821680611cb45750600093849384938493845260088c5260408420611c8c84825461259c565b905583918315611caa575b1690f11561069257611bed905b90611be3565b6108fc9250611c97565b611bed95949250611ce9939160005260078a526040600020816000528a526040600020611ce284825461259c565b90556125a9565b611ca4565b611d0891925060e03d60e01161068b576106758183612023565b505050505050908c611c63565b634e487b7160e01b600052601260045260246000fd5b887f9cafd5226a9e7f90e1032b7bac875934a802f5ace22905aef540b38d260c5a828684604051908152a260018055005b60405162461bcd60e51b81526004810185905260116024820152704e6f20616374697665206d656d6265727360781b6044820152606490fd5b8554845260019586019589955093019201611b1d565b346102c85760403660031901126102c857611dc4611f7b565b336001600160a01b03821603611de05761001b906004356121a3565b60405163334bd91960e11b8152600490fd5b346102c85760403660031901126102c85761001b600435611e11611f7b565b90806000526000602052611e2c6001604060002001546120ff565b612125565b346102c85760203660031901126102c85760043560005260006020526020600160406000200154604051908152f35b346102c85760403660031901126102c857611e79611f7b565b600435600052600760205260406000209060018060a01b03166000526020526020604060002054604051908152f35b346102c85760003660031901126102c8576040517f00000000000000000000000000000000000000000000000000000000000000006001600160a01b03168152602090f35b346102c85760003660031901126102c85760206040517fd8aa0f3194971a2a116679f7c2090f6939c8d4e01a2a8d7e41d55e5351469e638152f35b346102c85760203660031901126102c8576004359063ffffffff60e01b82168092036102c857602091637965db0b60e01b8114908115611f6a575b5015158152f35b6301ffc9a760e01b14905083611f63565b602435906001600160a01b03821682036102c857565b60609060031901126102c857600435906024356001600160a01b03811681036102c8579060443590565b60409060031901126102c8576004359060243590565b80548210156116745760005260206000200190600090565b90600182811c92168015612019575b602083101461200357565b634e487b7160e01b600052602260045260246000fd5b91607f1691611ff8565b90601f8019910116810190811067ffffffffffffffff82111761123757604052565b919082519283825260005b848110612071575050826000602080949584010152601f8019910116010190565b602081830181015184830182015201612050565b3360009081527fdae2aa361dfd1ca020a396615627d436107c35eff9fe7738a3512819782d706960205260409020547fd8aa0f3194971a2a116679f7c2090f6939c8d4e01a2a8d7e41d55e5351469e639060ff16156120e15750565b6044906040519063e2517d3f60e01b82523360048301526024820152fd5b80600052600060205260406000203360005260205260ff60406000205416156120e15750565b9060009180835282602052604083209160018060a01b03169182845260205260ff6040842054161560001461219e57808352826020526040832082845260205260408320600160ff198254161790557f2f8788117e7eff1d82e926ec794901d17c78024a50270940304540a733656f0d339380a4600190565b505090565b9060009180835282602052604083209160018060a01b03169182845260205260ff60408420541660001461219e5780835282602052604083208284526020526040832060ff1981541690557ff6391f5c32d9c69d2a47ea670b442974b53935d1edc7fd64eb21e047a839171b339380a4600190565b90601f811161222657505050565b600091825260208220906020601f850160051c83019410612262575b601f0160051c01915b82811061225757505050565b81815560010161224b565b9092508290612242565b60026001541461227d576002600155565b604051633ee5aeb560e01b8152600490fd5b1561229657565b60405162461bcd60e51b815260206004820152601460248201527353796e646963617465206e6f742061637469766560601b6044820152606490fd5b156122d957565b60405162461bcd60e51b815260206004820152600e60248201526d20b63932b0b23c9036b2b6b132b960911b6044820152606490fd5b519081151582036102c857565b51906001600160a01b03821682036102c857565b908160e09103126102c8576123448161231c565b916123516020830161231c565b91604081015160048110156102c85791606082015160048110156102c8579160808101519161238760c060a0840151930161230f565b90565b1561239157565b60405162461bcd60e51b815260206004820152600f60248201526e2737ba1030b3b2b73a1037bbb732b960891b6044820152606490fd5b90916040805160a081019080821067ffffffffffffffff831117611237576124519183528581526004602082014281528483019586526060830160009687825260808501926001845289895260036020528789208b8a526020528789209551865551600186015551600285015551600384015551151591019060ff801983541691151516179055565b82825260046020528120805490600160401b8210156124b5578161249c9160017fb3c629d160375e0b61916318967be088f5ec1cb6cf35aa5d7fc07ff1bd14136e9594018155611fd1565b81549060031b9086821b91600019901b191617905580a3565b634e487b7160e01b83526041600452602483fd5b156124d057565b60405162461bcd60e51b8152602060048201526012602482015271141c9bdc1bdcd85b081b9bdd08199bdd5b9960721b6044820152606490fd5b9190820180921161251757565b634e487b7160e01b600052601160045260246000fd5b8181029291811591840414171561251757565b906000602091828151910182855af115610692576000513d61259357506001600160a01b0381163b155b6125715750565b604051635274afe760e01b81526001600160a01b039091166004820152602490fd5b6001141561256a565b9190820391821161251757565b60405163a9059cbb60e01b60208201526001600160a01b039290921660248301526044808301939093529181526125ea916125e5606483612023565b612540565b565b60001981146125175760010190565b80518210156116745760209160051b010190565b6001600160a01b0390911690811561263e57600052600760205260406000209060005260205260406000205490565b905060005260086020526040600020549056fea264697066735822122090349c0c72b2ef4c63843bbf9e748dd2f22063e18d4410aa0d82ceb981b381e664736f6c634300081400332f8788117e7eff1d82e926ec794901d17c78024a50270940304540a733656f0d","opcodes":"PUSH1 0xA0 CALLVALUE PUSH3 0xAA JUMPI PUSH1 0x1F PUSH3 0x288F CODESIZE DUP2 SWAP1 SUB SWAP2 DUP3 ADD PUSH1 0x1F NOT AND DUP4 ADD SWAP2 PUSH1 0x1 PUSH1 0x1 PUSH1 0x40 SHL SUB DUP4 GT DUP5 DUP5 LT OR PUSH3 0xAF JUMPI DUP1 DUP5 SWAP3 PUSH1 0x20 SWAP5 PUSH1 0x40 MSTORE DUP4 CODECOPY DUP2 ADD SUB SLT PUSH3 0xAA JUMPI MLOAD PUSH1 0x1 PUSH1 0x1 PUSH1 0xA0 SHL SUB DUP2 AND SWAP1 DUP2 SWAP1 SUB PUSH3 0xAA JUMPI PUSH1 0x1 DUP1 SSTORE PUSH1 0x80 MSTORE PUSH3 0x68 CALLER PUSH3 0xC5 JUMP JUMPDEST POP PUSH3 0x74 CALLER PUSH3 0x145 JUMP JUMPDEST POP PUSH1 0x40 MLOAD PUSH2 0x2687 SWAP1 DUP2 PUSH3 0x1E8 DUP3 CODECOPY PUSH1 0x80 MLOAD DUP2 DUP2 DUP2 PUSH2 0x5EE ADD MSTORE DUP2 DUP2 PUSH2 0x924 ADD MSTORE DUP2 DUP2 PUSH2 0xEAF ADD MSTORE DUP2 DUP2 PUSH2 0x1C31 ADD MSTORE PUSH2 0x1EBE ADD MSTORE RETURN JUMPDEST PUSH1 0x0 DUP1 REVERT JUMPDEST PUSH4 0x4E487B71 PUSH1 0xE0 SHL PUSH1 0x0 MSTORE PUSH1 0x41 PUSH1 0x4 MSTORE PUSH1 0x24 PUSH1 0x0 REVERT JUMPDEST PUSH1 0x1 PUSH1 0x1 PUSH1 0xA0 SHL SUB AND PUSH1 0x0 DUP2 DUP2 MSTORE PUSH32 0xAD3228B676F7D3CD4284A5443F17F1962B36E491B30A40B2405849E597BA5FB5 PUSH1 0x20 MSTORE PUSH1 0x40 DUP2 KECCAK256 SLOAD SWAP1 SWAP2 SWAP1 PUSH1 0xFF AND PUSH3 0x141 JUMPI DUP2 DUP1 MSTORE DUP2 PUSH1 0x20 MSTORE PUSH1 0x40 DUP3 KECCAK256 DUP2 DUP4 MSTORE PUSH1 0x20 MSTORE PUSH1 0x40 DUP3 KECCAK256 PUSH1 0x1 PUSH1 0xFF NOT DUP3 SLOAD AND OR SWAP1 SSTORE CALLER SWAP2 PUSH1 0x0 DUP1 MLOAD PUSH1 0x20 PUSH3 0x286F DUP4 CODECOPY DUP2 MLOAD SWAP2 MSTORE DUP2 DUP1 LOG4 PUSH1 0x1 SWAP1 JUMP JUMPDEST POP SWAP1 JUMP JUMPDEST PUSH1 0x1 PUSH1 0x1 PUSH1 0xA0 SHL SUB AND PUSH1 0x0 DUP2 DUP2 MSTORE PUSH32 0xDF24EF87812553346F1C2E14986A379592CD137CF75DEA226A25AD883A604492 PUSH1 0x20 MSTORE PUSH1 0x40 DUP2 KECCAK256 SLOAD SWAP1 SWAP2 SWAP1 PUSH32 0x7B98D014F5AC2A2148A7FDC9C4AA576BD0E99C7F45308957F8460BA49503C995 SWAP1 PUSH1 0xFF AND PUSH3 0x1E2 JUMPI DUP1 DUP4 MSTORE DUP3 PUSH1 0x20 MSTORE PUSH1 0x40 DUP4 KECCAK256 DUP3 DUP5 MSTORE PUSH1 0x20 MSTORE PUSH1 0x40 DUP4 KECCAK256 PUSH1 0x1 PUSH1 0xFF NOT DUP3 SLOAD AND OR SWAP1 SSTORE PUSH1 0x0 DUP1 MLOAD PUSH1 0x20 PUSH3 0x286F DUP4 CODECOPY DUP2 MLOAD SWAP2 MSTORE CALLER SWAP4 DUP1 LOG4 PUSH1 0x1 SWAP1 JUMP JUMPDEST POP POP SWAP1 JUMP INVALID PUSH1 0x80 DUP1 PUSH1 0x40 MSTORE PUSH1 0x4 CALLDATASIZE LT ISZERO PUSH2 0x1D JUMPI JUMPDEST POP CALLDATASIZE ISZERO PUSH2 0x1B JUMPI PUSH1 0x0 DUP1 REVERT JUMPDEST STOP JUMPDEST PUSH1 0x0 CALLDATALOAD PUSH1 0xE0 SHR SWAP1 DUP2 PUSH4 0x1FFC9A7 EQ PUSH2 0x1F28 JUMPI POP DUP1 PUSH4 0x7BD0265 EQ PUSH2 0x1EED JUMPI DUP1 PUSH4 0xD1CFCAE EQ PUSH2 0x1EA8 JUMPI DUP1 PUSH4 0x1619D61D EQ PUSH2 0x1E60 JUMPI DUP1 PUSH4 0x248A9CA3 EQ PUSH2 0x1E31 JUMPI DUP1 PUSH4 0x2F2FF15D EQ PUSH2 0x1DF2 JUMPI DUP1 PUSH4 0x36568ABE EQ PUSH2 0x1DAB JUMPI DUP1 PUSH4 0x3FC72E48 EQ PUSH2 0x1AA7 JUMPI DUP1 PUSH4 0x52A404DB EQ PUSH2 0x1A79 JUMPI DUP1 PUSH4 0x67AAB1D4 EQ PUSH2 0x1A41 JUMPI DUP1 PUSH4 0x6AEB2545 EQ PUSH2 0x1955 JUMPI DUP1 PUSH4 0x6F74D175 EQ PUSH2 0x1929 JUMPI DUP1 PUSH4 0x7573CD15 EQ PUSH2 0x1834 JUMPI DUP1 PUSH4 0x78ECBD99 EQ PUSH2 0x17ED JUMPI DUP1 PUSH4 0x79BF8606 EQ PUSH2 0x135C JUMPI DUP1 PUSH4 0x7FEFBA90 EQ PUSH2 0xE21 JUMPI DUP1 PUSH4 0x8E0CC176 EQ PUSH2 0xC53 JUMPI DUP1 PUSH4 0x91D14854 EQ PUSH2 0xC06 JUMPI DUP1 PUSH4 0x93F36BD8 EQ PUSH2 0xBDA JUMPI DUP1 PUSH4 0xA217FDDF EQ PUSH2 0xBBE JUMPI DUP1 PUSH4 0xA57D2093 EQ PUSH2 0xB5A JUMPI DUP1 PUSH4 0xB3E669E5 EQ PUSH2 0xB09 JUMPI DUP1 PUSH4 0xC8F01EBA EQ PUSH2 0x8A8 JUMPI DUP1 PUSH4 0xD547741F EQ PUSH2 0x869 JUMPI DUP1 PUSH4 0xD68D9D4E EQ PUSH2 0x7A6 JUMPI DUP1 PUSH4 0xD9CEBA96 EQ PUSH2 0x4D7 JUMPI DUP1 PUSH4 0xDE6FC80F EQ PUSH2 0x4AB JUMPI DUP1 PUSH4 0xDFB42FD1 EQ PUSH2 0x326 JUMPI DUP1 PUSH4 0xF645486A EQ PUSH2 0x2EB JUMPI DUP1 PUSH4 0xF9285D43 EQ PUSH2 0x2CD JUMPI PUSH4 0xFC92F5C1 EQ PUSH2 0x17F JUMPI CODESIZE PUSH2 0xF JUMP JUMPDEST CALLVALUE PUSH2 0x2C8 JUMPI PUSH1 0x20 DUP1 PUSH1 0x3 NOT CALLDATASIZE ADD SLT PUSH2 0x2C8 JUMPI PUSH1 0x4 CALLDATALOAD PUSH1 0x0 MSTORE PUSH1 0x2 DUP2 MSTORE PUSH1 0x40 PUSH1 0x0 KECCAK256 DUP1 SLOAD PUSH1 0x1 SWAP2 DUP3 DUP2 ADD PUSH1 0x40 MLOAD SWAP1 DUP6 PUSH1 0x0 SWAP6 DUP3 SLOAD SWAP3 PUSH2 0x1BC DUP5 PUSH2 0x1FE9 JUMP JUMPDEST DUP1 DUP7 MSTORE SWAP4 DUP3 DUP2 AND SWAP1 DUP2 ISZERO PUSH2 0x2A6 JUMPI POP PUSH1 0x1 EQ PUSH2 0x269 JUMPI JUMPDEST DUP3 DUP8 DUP8 PUSH1 0xFF DUP9 PUSH2 0x1E5 DUP2 DUP15 SUB DUP3 PUSH2 0x2023 JUMP JUMPDEST PUSH1 0x1 DUP1 PUSH1 0xA0 SHL SUB PUSH1 0x2 DUP5 ADD SLOAD AND SWAP3 PUSH1 0x3 DUP2 ADD SLOAD PUSH1 0x4 DUP3 ADD SLOAD PUSH1 0x5 DUP4 ADD SLOAD SWAP1 PUSH1 0x6 DUP5 ADD SLOAD SWAP3 PUSH2 0x22F PUSH1 0x8 PUSH1 0x7 DUP8 ADD SLOAD SWAP7 ADD SLOAD SWAP7 PUSH1 0x40 MLOAD SWAP12 DUP13 SWAP12 DUP13 MSTORE PUSH2 0x140 DUP1 SWAP2 DUP14 ADD MSTORE DUP12 ADD SWAP1 PUSH2 0x2045 JUMP JUMPDEST SWAP8 PUSH1 0x40 DUP11 ADD MSTORE PUSH1 0x60 DUP10 ADD MSTORE PUSH1 0x80 DUP9 ADD MSTORE PUSH1 0xA0 DUP8 ADD MSTORE PUSH1 0xC0 DUP7 ADD MSTORE PUSH1 0xE0 DUP6 ADD MSTORE DUP2 DUP2 AND ISZERO ISZERO PUSH2 0x100 DUP6 ADD MSTORE PUSH1 0x8 SHR AND ISZERO ISZERO PUSH2 0x120 DUP4 ADD MSTORE SUB SWAP1 RETURN JUMPDEST PUSH1 0x0 SWAP1 DUP2 MSTORE DUP3 DUP2 KECCAK256 SWAP3 SWAP8 POP SWAP3 SWAP2 JUMPDEST DUP3 DUP5 LT PUSH2 0x293 JUMPI POP POP POP DUP2 ADD SWAP1 SWAP4 ADD SWAP3 PUSH2 0x1E5 DUP6 PUSH1 0xFF DUP4 PUSH2 0x1D3 JUMP JUMPDEST DUP1 SLOAD DUP6 DUP6 ADD DUP10 ADD MSTORE SWAP3 DUP8 ADD SWAP3 DUP2 ADD PUSH2 0x277 JUMP JUMPDEST PUSH1 0xFF NOT AND DUP5 DUP8 ADD MSTORE POP POP POP SWAP1 ISZERO ISZERO PUSH1 0x5 SHL DUP3 ADD ADD SWAP4 POP PUSH2 0x1E5 DUP6 PUSH1 0xFF DUP4 PUSH2 0x1D3 JUMP JUMPDEST PUSH1 0x0 DUP1 REVERT JUMPDEST CALLVALUE PUSH2 0x2C8 JUMPI PUSH1 0x0 CALLDATASIZE PUSH1 0x3 NOT ADD SLT PUSH2 0x2C8 JUMPI PUSH1 0x20 PUSH1 0xA SLOAD PUSH1 0x40 MLOAD SWAP1 DUP2 MSTORE RETURN JUMPDEST CALLVALUE PUSH2 0x2C8 JUMPI PUSH1 0x0 CALLDATASIZE PUSH1 0x3 NOT ADD SLT PUSH2 0x2C8 JUMPI PUSH1 0x20 PUSH1 0x40 MLOAD PUSH32 0x7B98D014F5AC2A2148A7FDC9C4AA576BD0E99C7F45308957F8460BA49503C995 DUP2 MSTORE RETURN JUMPDEST CALLVALUE PUSH2 0x2C8 JUMPI PUSH2 0x334 CALLDATASIZE PUSH2 0x1FBB JUMP JUMPDEST SWAP1 PUSH1 0x0 MSTORE PUSH1 0x20 SWAP1 PUSH1 0x5 DUP3 MSTORE PUSH1 0x40 PUSH1 0x0 KECCAK256 SWAP1 PUSH1 0x0 MSTORE DUP2 MSTORE PUSH1 0x40 PUSH1 0x0 KECCAK256 DUP1 SLOAD SWAP2 PUSH1 0x1 PUSH1 0xFF DUP2 DUP5 ADD SLOAD AND SWAP1 PUSH1 0x2 DUP5 ADD SLOAD SWAP4 PUSH1 0x3 DUP2 ADD PUSH1 0x40 MLOAD DUP1 SWAP4 PUSH1 0x0 SWAP1 DUP4 SLOAD SWAP4 PUSH2 0x37A DUP6 PUSH2 0x1FE9 JUMP JUMPDEST SWAP5 DUP6 DUP6 MSTORE DUP10 DUP4 DUP3 AND SWAP2 DUP3 PUSH1 0x0 EQ PUSH2 0x489 JUMPI POP POP PUSH1 0x1 EQ PUSH2 0x44A JUMPI JUMPDEST POP POP PUSH2 0x3A3 SWAP3 POP SUB DUP4 PUSH2 0x2023 JUMP JUMPDEST PUSH1 0x1 DUP1 PUSH1 0xA0 SHL SUB PUSH1 0x4 DUP3 ADD SLOAD AND SWAP4 PUSH1 0x5 DUP3 ADD SLOAD PUSH1 0x6 DUP4 ADD SLOAD SWAP1 PUSH1 0x7 DUP5 ADD SLOAD SWAP3 PUSH1 0x9 PUSH1 0x8 DUP7 ADD SLOAD SWAP6 ADD SLOAD SWAP6 PUSH1 0x40 MLOAD SWAP11 DUP12 MSTORE PUSH1 0x6 DUP9 LT ISZERO PUSH2 0x434 JUMPI DUP11 SWAP10 PUSH1 0xFF SWAP9 PUSH2 0x3FE SWAP4 DUP13 ADD MSTORE PUSH1 0x40 DUP12 ADD MSTORE PUSH2 0x160 DUP1 PUSH1 0x60 DUP13 ADD MSTORE DUP11 ADD SWAP1 PUSH2 0x2045 JUMP JUMPDEST SWAP7 PUSH1 0x80 DUP10 ADD MSTORE PUSH1 0xA0 DUP9 ADD MSTORE PUSH1 0xC0 DUP8 ADD MSTORE PUSH1 0xE0 DUP7 ADD MSTORE PUSH2 0x100 DUP6 ADD MSTORE DUP2 DUP2 AND ISZERO ISZERO PUSH2 0x120 DUP6 ADD MSTORE PUSH1 0x8 SHR AND ISZERO ISZERO PUSH2 0x140 DUP4 ADD MSTORE SUB SWAP1 RETURN JUMPDEST PUSH4 0x4E487B71 PUSH1 0xE0 SHL PUSH1 0x0 MSTORE PUSH1 0x21 PUSH1 0x4 MSTORE PUSH1 0x24 PUSH1 0x0 REVERT JUMPDEST DUP9 SWAP3 POP PUSH1 0x0 MSTORE DUP2 PUSH1 0x0 KECCAK256 SWAP1 PUSH1 0x0 SWAP2 JUMPDEST DUP6 DUP4 LT PUSH2 0x471 JUMPI POP POP PUSH2 0x3A3 SWAP4 POP DUP3 ADD ADD DUP10 DUP1 PUSH2 0x395 JUMP JUMPDEST DUP1 SLOAD DUP4 DUP10 ADD DUP6 ADD MSTORE DUP8 SWAP5 POP DUP10 SWAP4 SWAP1 SWAP3 ADD SWAP2 DUP2 ADD PUSH2 0x459 JUMP JUMPDEST SWAP3 POP SWAP4 POP POP PUSH2 0x3A3 SWAP5 SWAP2 POP PUSH1 0xFF NOT AND DUP3 DUP5 ADD MSTORE ISZERO ISZERO PUSH1 0x5 SHL DUP3 ADD ADD DUP10 DUP1 PUSH2 0x395 JUMP JUMPDEST CALLVALUE PUSH2 0x2C8 JUMPI PUSH1 0x20 CALLDATASIZE PUSH1 0x3 NOT ADD SLT PUSH2 0x2C8 JUMPI PUSH1 0x4 CALLDATALOAD PUSH1 0x0 MSTORE PUSH1 0x9 PUSH1 0x20 MSTORE PUSH1 0x20 PUSH1 0x40 PUSH1 0x0 KECCAK256 SLOAD PUSH1 0x40 MLOAD SWAP1 DUP2 MSTORE RETURN JUMPDEST CALLVALUE PUSH2 0x2C8 JUMPI PUSH2 0x4E5 CALLDATASIZE PUSH2 0x1FBB JUMP JUMPDEST SWAP1 PUSH2 0x4EE PUSH2 0x226C JUMP JUMPDEST DUP1 PUSH1 0x0 MSTORE PUSH1 0x20 PUSH1 0x5 DUP2 MSTORE PUSH1 0x40 PUSH1 0x0 KECCAK256 DUP4 PUSH1 0x0 MSTORE DUP2 MSTORE PUSH1 0x40 PUSH1 0x0 KECCAK256 SWAP1 PUSH2 0x518 PUSH1 0x5 DUP4 ADD SLOAD ISZERO ISZERO PUSH2 0x24C9 JUMP JUMPDEST PUSH1 0x6 DUP3 ADD SLOAD TIMESTAMP GT ISZERO PUSH2 0x76E JUMPI PUSH1 0x9 DUP3 ADD SWAP2 DUP3 SLOAD PUSH1 0xFF DUP2 AND ISZERO DUP1 PUSH2 0x760 JUMPI JUMPDEST ISZERO PUSH2 0x727 JUMPI DUP5 PUSH1 0x0 MSTORE PUSH1 0x2 DUP4 MSTORE PUSH1 0x40 PUSH1 0x0 KECCAK256 PUSH2 0x2710 PUSH2 0x56D PUSH1 0x7 DUP6 ADD SLOAD SWAP3 PUSH1 0x5 PUSH2 0x564 PUSH1 0x8 DUP9 ADD SLOAD DUP7 PUSH2 0x250A JUMP JUMPDEST SWAP2 ADD SLOAD SWAP1 PUSH2 0x252D JUMP JUMPDEST DIV GT ISZERO DUP1 SWAP5 PUSH1 0x1 PUSH1 0xFF NOT DUP1 SWAP5 AND OR SWAP1 SSTORE PUSH2 0x5B3 JUMPI JUMPDEST POP POP PUSH32 0x14A409680C93FEA43536D9D6F6E27218F23B76DC0565DF9E6D2076A368CCEDD2 SWAP2 PUSH1 0x40 MLOAD SWAP1 DUP2 MSTORE LOG3 PUSH1 0x1 DUP1 SSTORE STOP JUMPDEST PUSH1 0xFF PUSH1 0x1 DUP4 ADD SLOAD AND PUSH1 0x6 DUP2 LT ISZERO PUSH2 0x434 JUMPI DUP1 PUSH2 0x69E JUMPI POP POP PUSH1 0x2 ADD SLOAD PUSH1 0x40 MLOAD PUSH4 0xA6C2AF01 PUSH1 0xE0 SHL DUP2 MSTORE PUSH1 0x4 DUP2 ADD DUP3 SWAP1 MSTORE SWAP1 SWAP3 SWAP1 PUSH1 0xE0 DUP2 PUSH1 0x24 DUP2 PUSH32 0x0 PUSH1 0x1 PUSH1 0x1 PUSH1 0xA0 SHL SUB AND GAS STATICCALL DUP1 ISZERO PUSH2 0x692 JUMPI PUSH32 0x14A409680C93FEA43536D9D6F6E27218F23B76DC0565DF9E6D2076A368CCEDD2 SWAP5 PUSH2 0x653 SWAP3 PUSH1 0x0 SWAP3 PUSH2 0x65A JUMPI JUMPDEST POP DUP7 PUSH2 0x23C8 JUMP JUMPDEST SWAP2 DUP6 PUSH2 0x582 JUMP JUMPDEST PUSH2 0x67D SWAP2 SWAP3 POP PUSH1 0xE0 RETURNDATASIZE PUSH1 0xE0 GT PUSH2 0x68B JUMPI JUMPDEST PUSH2 0x675 DUP2 DUP4 PUSH2 0x2023 JUMP JUMPDEST DUP2 ADD SWAP1 PUSH2 0x2330 JUMP JUMPDEST POP SWAP5 POP POP POP POP POP SWAP1 DUP9 PUSH2 0x64C JUMP JUMPDEST POP RETURNDATASIZE PUSH2 0x66B JUMP JUMPDEST PUSH1 0x40 MLOAD RETURNDATASIZE PUSH1 0x0 DUP3 RETURNDATACOPY RETURNDATASIZE SWAP1 REVERT JUMPDEST SWAP1 PUSH1 0x1 PUSH32 0x14A409680C93FEA43536D9D6F6E27218F23B76DC0565DF9E6D2076A368CCEDD2 SWAP6 SWAP4 SWAP3 EQ PUSH2 0x6D2 JUMPI JUMPDEST POP POP PUSH2 0x653 JUMP JUMPDEST DUP6 PUSH1 0x0 MSTORE PUSH1 0x3 DUP5 MSTORE PUSH1 0x2 PUSH1 0x40 PUSH1 0x0 KECCAK256 SWAP3 ADD SWAP2 DUP3 SLOAD PUSH1 0x0 MSTORE DUP5 MSTORE PUSH1 0x4 PUSH1 0x40 PUSH1 0x0 KECCAK256 ADD SWAP1 DUP2 SLOAD AND SWAP1 SSTORE SLOAD DUP5 PUSH32 0xBA1EE07020814E27A15711A060710E5D88B4AD5F178A5FEB9FE0706048FA77B4 PUSH1 0x0 DUP1 LOG3 DUP6 DUP1 PUSH2 0x6CB JUMP JUMPDEST PUSH1 0x40 MLOAD PUSH3 0x461BCD PUSH1 0xE5 SHL DUP2 MSTORE PUSH1 0x4 DUP2 ADD DUP5 SWAP1 MSTORE PUSH1 0x11 PUSH1 0x24 DUP3 ADD MSTORE PUSH17 0x105B1C9958591E48199A5B985B1A5E9959 PUSH1 0x7A SHL PUSH1 0x44 DUP3 ADD MSTORE PUSH1 0x64 SWAP1 REVERT JUMPDEST POP PUSH1 0xFF DUP2 PUSH1 0x8 SHR AND ISZERO PUSH2 0x536 JUMP JUMPDEST PUSH1 0x64 SWAP1 PUSH1 0x40 MLOAD SWAP1 PUSH3 0x461BCD PUSH1 0xE5 SHL DUP3 MSTORE PUSH1 0x4 DUP3 ADD MSTORE PUSH1 0x11 PUSH1 0x24 DUP3 ADD MSTORE PUSH17 0x2B37BA34B7339039BA34B6361037B832B7 PUSH1 0x79 SHL PUSH1 0x44 DUP3 ADD MSTORE REVERT JUMPDEST PUSH1 0x20 CALLDATASIZE PUSH1 0x3 NOT ADD SLT PUSH2 0x2C8 JUMPI PUSH1 0x4 CALLDATALOAD PUSH2 0x7BD PUSH2 0x226C JUMP JUMPDEST DUP1 PUSH1 0x0 MSTORE PUSH1 0x2 PUSH1 0x20 MSTORE PUSH2 0x7DD PUSH1 0xFF PUSH1 0x8 PUSH1 0x40 PUSH1 0x0 KECCAK256 ADD SLOAD PUSH1 0x8 SHR AND PUSH2 0x228F JUMP JUMPDEST CALLVALUE ISZERO PUSH2 0x834 JUMPI DUP1 PUSH1 0x0 MSTORE PUSH1 0x8 PUSH1 0x20 MSTORE PUSH1 0x40 PUSH1 0x0 KECCAK256 PUSH2 0x7FC CALLVALUE DUP3 SLOAD PUSH2 0x250A JUMP JUMPDEST SWAP1 SSTORE PUSH32 0xE0F1C194717590480E51C809E7CBEEF1245CCFD1FE3501495BD2E715549EF2B5 PUSH1 0x40 DUP1 MLOAD PUSH1 0x0 DUP2 MSTORE CALLVALUE PUSH1 0x20 DUP3 ADD MSTORE LOG2 PUSH1 0x1 DUP1 SSTORE STOP JUMPDEST PUSH1 0x40 MLOAD PUSH3 0x461BCD PUSH1 0xE5 SHL DUP2 MSTORE PUSH1 0x20 PUSH1 0x4 DUP3 ADD MSTORE PUSH1 0xD PUSH1 0x24 DUP3 ADD MSTORE PUSH13 0x139BC81D985B1D59481CD95B9D PUSH1 0x9A SHL PUSH1 0x44 DUP3 ADD MSTORE PUSH1 0x64 SWAP1 REVERT JUMPDEST CALLVALUE PUSH2 0x2C8 JUMPI PUSH1 0x40 CALLDATASIZE PUSH1 0x3 NOT ADD SLT PUSH2 0x2C8 JUMPI PUSH2 0x1B PUSH1 0x4 CALLDATALOAD PUSH2 0x888 PUSH2 0x1F7B JUMP JUMPDEST SWAP1 DUP1 PUSH1 0x0 MSTORE PUSH1 0x0 PUSH1 0x20 MSTORE PUSH2 0x8A3 PUSH1 0x1 PUSH1 0x40 PUSH1 0x0 KECCAK256 ADD SLOAD PUSH2 0x20FF JUMP JUMPDEST PUSH2 0x21A3 JUMP JUMPDEST CALLVALUE PUSH2 0x2C8 JUMPI PUSH1 0x80 CALLDATASIZE PUSH1 0x3 NOT ADD SLT PUSH2 0x2C8 JUMPI PUSH1 0x64 CALLDATALOAD PUSH1 0x44 CALLDATALOAD PUSH1 0x24 CALLDATALOAD PUSH1 0x4 CALLDATALOAD DUP4 ISZERO ISZERO DUP1 DUP6 SUB PUSH2 0x2C8 JUMPI PUSH2 0x8D7 PUSH2 0x226C JUMP JUMPDEST DUP2 PUSH1 0x0 MSTORE PUSH1 0x20 SWAP2 PUSH1 0x3 DUP4 MSTORE PUSH1 0x40 PUSH1 0x0 KECCAK256 DUP6 PUSH1 0x0 MSTORE DUP4 MSTORE PUSH1 0x40 PUSH1 0x0 KECCAK256 SWAP1 PUSH1 0xFF PUSH1 0x4 DUP4 ADD SLOAD AND ISZERO PUSH2 0xAD0 JUMPI PUSH1 0x40 MLOAD PUSH4 0xA6C2AF01 PUSH1 0xE0 SHL DUP2 MSTORE PUSH1 0x4 DUP2 ADD DUP8 SWAP1 MSTORE PUSH1 0x1 PUSH1 0x1 PUSH1 0xA0 SHL SUB PUSH1 0xE0 DUP3 PUSH1 0x24 DUP2 PUSH32 0x0 DUP6 AND GAS STATICCALL DUP1 ISZERO PUSH2 0x692 JUMPI PUSH2 0x962 SWAP3 PUSH1 0x0 SWAP2 PUSH2 0xAAB JUMPI JUMPDEST POP AND CALLER EQ PUSH2 0x238A JUMP JUMPDEST PUSH1 0x0 MSTORE PUSH1 0x5 DUP4 MSTORE PUSH1 0x40 PUSH1 0x0 KECCAK256 DUP5 PUSH1 0x0 MSTORE DUP4 MSTORE PUSH1 0x40 PUSH1 0x0 KECCAK256 SWAP1 PUSH2 0x989 PUSH1 0x5 DUP4 ADD SLOAD ISZERO ISZERO PUSH2 0x24C9 JUMP JUMPDEST PUSH1 0x6 DUP3 ADD SLOAD TIMESTAMP GT PUSH2 0xA76 JUMPI DUP5 PUSH1 0x0 MSTORE PUSH1 0x6 DUP5 MSTORE PUSH1 0x40 PUSH1 0x0 KECCAK256 DUP7 PUSH1 0x0 MSTORE DUP5 MSTORE PUSH1 0xFF PUSH1 0x40 PUSH1 0x0 KECCAK256 SLOAD AND PUSH2 0xA41 JUMPI DUP5 SWAP6 SWAP7 PUSH32 0x7F071DEB3826DD6DB743E001AC33AAC5EC0EE7B7CFA39E31C14B94F78D0F3B9F SWAP6 PUSH1 0x0 MSTORE PUSH1 0x6 DUP6 MSTORE PUSH1 0x40 PUSH1 0x0 KECCAK256 DUP9 PUSH1 0x0 MSTORE DUP6 MSTORE PUSH1 0x40 PUSH1 0x0 KECCAK256 PUSH1 0x1 PUSH1 0xFF NOT DUP3 SLOAD AND OR SWAP1 SSTORE PUSH1 0x0 EQ PUSH2 0xA26 JUMPI PUSH1 0x7 PUSH1 0x2 PUSH2 0xA16 SWAP3 ADD SLOAD SWAP3 ADD SWAP2 DUP3 SLOAD PUSH2 0x250A JUMP JUMPDEST SWAP1 SSTORE JUMPDEST PUSH1 0x40 MLOAD SWAP1 DUP2 MSTORE LOG3 PUSH1 0x1 DUP1 SSTORE STOP JUMPDEST PUSH1 0x8 PUSH1 0x2 PUSH2 0xA3A SWAP3 ADD SLOAD SWAP3 ADD SWAP2 DUP3 SLOAD PUSH2 0x250A JUMP JUMPDEST SWAP1 SSTORE PUSH2 0xA19 JUMP JUMPDEST PUSH1 0x40 MLOAD PUSH3 0x461BCD PUSH1 0xE5 SHL DUP2 MSTORE PUSH1 0x4 DUP2 ADD DUP6 SWAP1 MSTORE PUSH1 0xD PUSH1 0x24 DUP3 ADD MSTORE PUSH13 0x105B1C9958591E481D9BDD1959 PUSH1 0x9A SHL PUSH1 0x44 DUP3 ADD MSTORE PUSH1 0x64 SWAP1 REVERT JUMPDEST PUSH1 0x40 MLOAD PUSH3 0x461BCD PUSH1 0xE5 SHL DUP2 MSTORE PUSH1 0x4 DUP2 ADD DUP6 SWAP1 MSTORE PUSH1 0xD PUSH1 0x24 DUP3 ADD MSTORE PUSH13 0x159BDD1A5B99C818DB1BDCD959 PUSH1 0x9A SHL PUSH1 0x44 DUP3 ADD MSTORE PUSH1 0x64 SWAP1 REVERT JUMPDEST PUSH2 0xAC4 SWAP2 POP PUSH1 0xE0 RETURNDATASIZE PUSH1 0xE0 GT PUSH2 0x68B JUMPI PUSH2 0x675 DUP2 DUP4 PUSH2 0x2023 JUMP JUMPDEST POP POP POP POP POP POP DUP11 PUSH2 0x959 JUMP JUMPDEST PUSH1 0x40 MLOAD PUSH3 0x461BCD PUSH1 0xE5 SHL DUP2 MSTORE PUSH1 0x4 DUP2 ADD DUP6 SWAP1 MSTORE PUSH1 0x11 PUSH1 0x24 DUP3 ADD MSTORE PUSH17 0x2737BA1030B1BA34BB329036B2B6B132B9 PUSH1 0x79 SHL PUSH1 0x44 DUP3 ADD MSTORE PUSH1 0x64 SWAP1 REVERT JUMPDEST CALLVALUE PUSH2 0x2C8 JUMPI PUSH1 0x20 CALLDATASIZE PUSH1 0x3 NOT ADD SLT PUSH2 0x2C8 JUMPI PUSH1 0x4 CALLDATALOAD PUSH1 0xA SLOAD DUP2 LT ISZERO PUSH2 0x2C8 JUMPI PUSH1 0x20 SWAP1 PUSH1 0xA PUSH1 0x0 MSTORE PUSH32 0xC65A7BB8D6351C1CF70C95A316CC6A92839C986682D98BC35F958F4883F9D2A8 ADD SLOAD PUSH1 0x40 MLOAD SWAP1 DUP2 MSTORE RETURN JUMPDEST CALLVALUE PUSH2 0x2C8 JUMPI PUSH2 0xB68 CALLDATASIZE PUSH2 0x1FBB JUMP JUMPDEST SWAP1 PUSH1 0x0 MSTORE PUSH1 0x3 PUSH1 0x20 MSTORE PUSH1 0x40 PUSH1 0x0 KECCAK256 SWAP1 PUSH1 0x0 MSTORE PUSH1 0x20 MSTORE PUSH1 0xA0 PUSH1 0x40 PUSH1 0x0 KECCAK256 DUP1 SLOAD SWAP1 PUSH1 0x1 DUP2 ADD SLOAD SWAP1 PUSH1 0x2 DUP2 ADD SLOAD PUSH1 0xFF PUSH1 0x4 PUSH1 0x3 DUP5 ADD SLOAD SWAP4 ADD SLOAD AND SWAP3 PUSH1 0x40 MLOAD SWAP5 DUP6 MSTORE PUSH1 0x20 DUP6 ADD MSTORE PUSH1 0x40 DUP5 ADD MSTORE PUSH1 0x60 DUP4 ADD MSTORE ISZERO ISZERO PUSH1 0x80 DUP3 ADD MSTORE RETURN JUMPDEST CALLVALUE PUSH2 0x2C8 JUMPI PUSH1 0x0 CALLDATASIZE PUSH1 0x3 NOT ADD SLT PUSH2 0x2C8 JUMPI PUSH1 0x20 PUSH1 0x40 MLOAD PUSH1 0x0 DUP2 MSTORE RETURN JUMPDEST CALLVALUE PUSH2 0x2C8 JUMPI PUSH1 0x20 CALLDATASIZE PUSH1 0x3 NOT ADD SLT PUSH2 0x2C8 JUMPI PUSH1 0x4 CALLDATALOAD PUSH1 0x0 MSTORE PUSH1 0x4 PUSH1 0x20 MSTORE PUSH1 0x20 PUSH1 0x40 PUSH1 0x0 KECCAK256 SLOAD PUSH1 0x40 MLOAD SWAP1 DUP2 MSTORE RETURN JUMPDEST CALLVALUE PUSH2 0x2C8 JUMPI PUSH1 0x40 CALLDATASIZE PUSH1 0x3 NOT ADD SLT PUSH2 0x2C8 JUMPI PUSH2 0xC1F PUSH2 0x1F7B JUMP JUMPDEST PUSH1 0x4 CALLDATALOAD PUSH1 0x0 MSTORE PUSH1 0x0 PUSH1 0x20 MSTORE PUSH1 0x40 PUSH1 0x0 KECCAK256 SWAP1 PUSH1 0x1 DUP1 PUSH1 0xA0 SHL SUB AND PUSH1 0x0 MSTORE PUSH1 0x20 MSTORE PUSH1 0x20 PUSH1 0xFF PUSH1 0x40 PUSH1 0x0 KECCAK256 SLOAD AND PUSH1 0x40 MLOAD SWAP1 ISZERO ISZERO DUP2 MSTORE RETURN JUMPDEST CALLVALUE PUSH2 0x2C8 JUMPI PUSH1 0x80 CALLDATASIZE PUSH1 0x3 NOT ADD SLT PUSH2 0x2C8 JUMPI PUSH1 0x4 CALLDATALOAD PUSH2 0xC6F PUSH2 0x1F7B JUMP JUMPDEST PUSH1 0x44 CALLDATALOAD PUSH1 0x1 PUSH1 0x1 PUSH1 0xA0 SHL SUB DUP2 DUP2 AND SWAP2 DUP3 SWAP1 SUB PUSH2 0x2C8 JUMPI PUSH1 0x64 CALLDATALOAD SWAP3 PUSH2 0xC91 PUSH2 0x2085 JUMP JUMPDEST PUSH2 0xC99 PUSH2 0x226C JUMP JUMPDEST AND DUP1 PUSH2 0xD68 JUMPI DUP4 PUSH1 0x0 MSTORE PUSH1 0x8 PUSH1 0x20 MSTORE DUP3 PUSH1 0x40 PUSH1 0x0 KECCAK256 SLOAD LT PUSH2 0xD30 JUMPI DUP4 PUSH1 0x0 MSTORE PUSH1 0x8 PUSH1 0x20 MSTORE PUSH1 0x40 PUSH1 0x0 KECCAK256 PUSH2 0xCCD DUP5 DUP3 SLOAD PUSH2 0x259C JUMP JUMPDEST SWAP1 SSTORE PUSH1 0x0 DUP4 DUP4 DUP2 ISZERO PUSH2 0xD26 JUMPI JUMPDEST PUSH1 0x0 SWAP3 DUP4 SWAP3 DUP4 SWAP3 DUP4 SWAP3 CALL ISZERO PUSH2 0x692 JUMPI PUSH32 0x6C3A45613039E0A1117BD6CE110AB3C920271709C010983D921A2CD268E2EA47 SWAP3 PUSH1 0x60 SWAP3 JUMPDEST PUSH1 0x40 MLOAD SWAP3 DUP4 MSTORE PUSH1 0x20 DUP4 ADD MSTORE PUSH1 0x40 DUP3 ADD MSTORE LOG2 PUSH1 0x1 DUP1 SSTORE STOP JUMPDEST PUSH2 0x8FC SWAP3 POP PUSH2 0xCDA JUMP JUMPDEST PUSH1 0x40 MLOAD PUSH3 0x461BCD PUSH1 0xE5 SHL DUP2 MSTORE PUSH1 0x20 PUSH1 0x4 DUP3 ADD MSTORE PUSH1 0x10 PUSH1 0x24 DUP3 ADD MSTORE PUSH16 0x92DCE6EACCCCD2C6D2CADCE8408AA89 PUSH1 0x83 SHL PUSH1 0x44 DUP3 ADD MSTORE PUSH1 0x64 SWAP1 REVERT JUMPDEST DUP4 PUSH1 0x0 MSTORE PUSH1 0x7 PUSH1 0x20 MSTORE PUSH1 0x40 PUSH1 0x0 KECCAK256 DUP2 PUSH1 0x0 MSTORE PUSH1 0x20 MSTORE DUP3 PUSH1 0x40 PUSH1 0x0 KECCAK256 SLOAD LT PUSH2 0xDE5 JUMPI PUSH32 0x6C3A45613039E0A1117BD6CE110AB3C920271709C010983D921A2CD268E2EA47 SWAP3 PUSH1 0x60 SWAP3 DUP6 PUSH1 0x0 MSTORE PUSH1 0x7 PUSH1 0x20 MSTORE PUSH1 0x40 PUSH1 0x0 KECCAK256 DUP4 PUSH1 0x0 MSTORE PUSH1 0x20 MSTORE PUSH1 0x40 PUSH1 0x0 KECCAK256 PUSH2 0xDD3 DUP4 DUP3 SLOAD PUSH2 0x259C JUMP JUMPDEST SWAP1 SSTORE PUSH2 0xDE0 DUP3 DUP3 DUP6 PUSH2 0x25A9 JUMP JUMPDEST PUSH2 0xD0F JUMP JUMPDEST PUSH1 0x40 MLOAD PUSH3 0x461BCD PUSH1 0xE5 SHL DUP2 MSTORE PUSH1 0x20 PUSH1 0x4 DUP3 ADD MSTORE PUSH1 0x14 PUSH1 0x24 DUP3 ADD MSTORE PUSH20 0x496E73756666696369656E742062616C616E6365 PUSH1 0x60 SHL PUSH1 0x44 DUP3 ADD MSTORE PUSH1 0x64 SWAP1 REVERT JUMPDEST CALLVALUE PUSH2 0x2C8 JUMPI PUSH2 0xE2F CALLDATASIZE PUSH2 0x1FBB JUMP JUMPDEST PUSH2 0xE37 PUSH2 0x226C JUMP JUMPDEST DUP2 PUSH1 0x0 MSTORE PUSH1 0x2 PUSH1 0x20 MSTORE PUSH1 0x40 PUSH1 0x0 KECCAK256 PUSH2 0xE58 PUSH1 0xFF PUSH1 0x8 DUP4 ADD SLOAD PUSH1 0x8 SHR AND PUSH2 0x228F JUMP JUMPDEST DUP3 PUSH1 0x0 MSTORE PUSH1 0x3 PUSH1 0x20 MSTORE PUSH1 0x40 PUSH1 0x0 KECCAK256 DUP3 PUSH1 0x0 MSTORE PUSH1 0x20 MSTORE PUSH2 0xE7F PUSH1 0x1 PUSH1 0x40 PUSH1 0x0 KECCAK256 ADD SLOAD ISZERO PUSH2 0x22D2 JUMP JUMPDEST DUP3 PUSH1 0x0 MSTORE PUSH1 0x4 PUSH1 0x20 MSTORE PUSH1 0x40 PUSH1 0x0 KECCAK256 SLOAD PUSH1 0x4 DUP3 ADD SLOAD GT ISZERO PUSH2 0x1326 JUMPI PUSH1 0x40 MLOAD PUSH4 0x6FB98A13 PUSH1 0xE0 SHL DUP2 MSTORE PUSH1 0x4 DUP2 ADD DUP4 SWAP1 MSTORE PUSH32 0x0 PUSH1 0x1 PUSH1 0x1 PUSH1 0xA0 SHL SUB AND SWAP2 SWAP1 PUSH1 0x20 DUP2 PUSH1 0x24 DUP2 DUP7 GAS STATICCALL SWAP1 DUP2 ISZERO PUSH2 0x692 JUMPI PUSH1 0x0 SWAP2 PUSH2 0x12EC JUMPI JUMPDEST POP ISZERO PUSH2 0x12B8 JUMPI PUSH1 0xE0 PUSH1 0x24 SWAP3 PUSH1 0x40 MLOAD SWAP4 DUP5 DUP1 SWAP3 PUSH4 0xA6C2AF01 DUP6 SHL DUP3 MSTORE DUP8 PUSH1 0x4 DUP4 ADD MSTORE GAS STATICCALL SWAP1 DUP2 ISZERO PUSH2 0x692 JUMPI PUSH1 0x0 SWAP3 PUSH1 0x0 SWAP3 PUSH2 0x1287 JUMPI JUMPDEST POP PUSH2 0xF3D PUSH1 0x3 SWAP3 SWAP4 PUSH1 0x1 DUP1 PUSH1 0xA0 SHL SUB AND CALLER EQ PUSH2 0x238A JUMP JUMPDEST ADD SLOAD GT PUSH2 0x124D JUMPI PUSH1 0x40 MLOAD PUSH1 0x20 DUP2 ADD DUP2 DUP2 LT PUSH8 0xFFFFFFFFFFFFFFFF DUP3 GT OR PUSH2 0x1237 JUMPI PUSH1 0x40 MSTORE PUSH1 0x0 DUP2 MSTORE DUP3 PUSH1 0x0 MSTORE PUSH1 0x9 PUSH1 0x20 MSTORE PUSH1 0x40 PUSH1 0x0 KECCAK256 PUSH2 0xF7D DUP2 SLOAD PUSH2 0x25EC JUMP JUMPDEST SWAP1 SSTORE DUP3 PUSH1 0x0 MSTORE PUSH1 0x9 PUSH1 0x20 MSTORE PUSH1 0x40 PUSH1 0x0 KECCAK256 SLOAD PUSH1 0x40 MLOAD PUSH1 0x20 DUP2 ADD SWAP2 DUP6 DUP4 MSTORE PUSH1 0x40 DUP3 ADD MSTORE PUSH1 0x40 DUP2 MSTORE PUSH1 0x60 DUP2 ADD DUP2 DUP2 LT PUSH8 0xFFFFFFFFFFFFFFFF DUP3 GT OR PUSH2 0x1237 JUMPI PUSH1 0x40 MSTORE MLOAD SWAP1 KECCAK256 SWAP1 DUP4 PUSH1 0x0 MSTORE PUSH1 0x2 PUSH1 0x20 MSTORE PUSH2 0xFDB PUSH1 0x6 PUSH1 0x40 PUSH1 0x0 KECCAK256 ADD SLOAD TIMESTAMP PUSH2 0x250A JUMP JUMPDEST SWAP1 PUSH1 0x40 MLOAD SWAP4 PUSH2 0x160 DUP6 ADD DUP6 DUP2 LT PUSH8 0xFFFFFFFFFFFFFFFF DUP3 GT OR PUSH2 0x1237 JUMPI PUSH1 0x40 MSTORE DUP4 DUP6 MSTORE PUSH1 0x0 PUSH1 0x20 DUP7 ADD MSTORE PUSH1 0x40 DUP6 ADD MSTORE PUSH1 0x60 DUP5 ADD MSTORE CALLER PUSH1 0x80 DUP5 ADD MSTORE TIMESTAMP PUSH1 0xA0 DUP5 ADD MSTORE PUSH1 0xC0 DUP4 ADD MSTORE PUSH1 0x0 PUSH1 0xE0 DUP4 ADD MSTORE PUSH1 0x0 PUSH2 0x100 DUP4 ADD MSTORE PUSH1 0x0 PUSH2 0x120 DUP4 ADD MSTORE PUSH1 0x0 PUSH2 0x140 DUP4 ADD MSTORE DUP3 PUSH1 0x0 MSTORE PUSH1 0x5 PUSH1 0x20 MSTORE PUSH1 0x40 PUSH1 0x0 KECCAK256 DUP2 PUSH1 0x0 MSTORE PUSH1 0x20 MSTORE PUSH1 0x40 PUSH1 0x0 KECCAK256 SWAP3 DUP3 MLOAD DUP5 SSTORE PUSH1 0x1 DUP5 ADD PUSH1 0x20 DUP5 ADD MLOAD PUSH1 0x6 DUP2 LT ISZERO PUSH2 0x434 JUMPI PUSH1 0xFF DUP1 NOT DUP4 SLOAD AND SWAP2 AND OR SWAP1 SSTORE PUSH1 0x40 DUP4 ADD MLOAD PUSH1 0x2 DUP6 ADD SSTORE PUSH1 0x60 DUP4 ADD MLOAD SWAP4 DUP5 MLOAD PUSH8 0xFFFFFFFFFFFFFFFF DUP2 GT PUSH2 0x1237 JUMPI PUSH1 0x20 SWAP6 PUSH2 0x10BA DUP3 PUSH2 0x10B1 PUSH1 0x3 DUP7 ADD SLOAD PUSH2 0x1FE9 JUMP JUMPDEST PUSH1 0x3 DUP7 ADD PUSH2 0x2218 JUMP JUMPDEST DUP7 SWAP1 PUSH1 0x1F DUP4 GT PUSH1 0x1 EQ PUSH2 0x11BE JUMPI PUSH2 0x117D SWAP4 DUP4 DUP8 SWAP9 SWAP5 PUSH2 0x140 SWAP5 PUSH1 0x9 SWAP5 PUSH1 0x0 SWAP3 PUSH2 0x11B3 JUMPI JUMPDEST POP POP DUP2 PUSH1 0x1 SHL SWAP2 PUSH1 0x0 NOT SWAP1 PUSH1 0x3 SHL SHR NOT AND OR PUSH1 0x3 DUP3 ADD SSTORE JUMPDEST PUSH1 0x4 DUP2 ADD PUSH1 0x1 DUP1 PUSH1 0xA0 SHL SUB PUSH1 0x80 DUP7 ADD MLOAD AND PUSH12 0xFFFFFFFFFFFFFFFFFFFFFFFF PUSH1 0xA0 SHL DUP3 SLOAD AND OR SWAP1 SSTORE PUSH1 0xA0 DUP5 ADD MLOAD PUSH1 0x5 DUP3 ADD SSTORE PUSH1 0xC0 DUP5 ADD MLOAD PUSH1 0x6 DUP3 ADD SSTORE PUSH1 0xE0 DUP5 ADD MLOAD PUSH1 0x7 DUP3 ADD SSTORE PUSH2 0x100 DUP5 ADD MLOAD PUSH1 0x8 DUP3 ADD SSTORE ADD SWAP2 PUSH2 0x1165 PUSH2 0x120 DUP3 ADD MLOAD ISZERO ISZERO DUP5 SWAP1 PUSH1 0xFF DUP1 NOT DUP4 SLOAD AND SWAP2 ISZERO ISZERO AND OR SWAP1 SSTORE JUMP JUMPDEST ADD MLOAD DUP2 SLOAD PUSH2 0xFF00 NOT AND SWAP1 ISZERO ISZERO PUSH1 0x8 SHL PUSH2 0xFF00 AND OR SWAP1 SSTORE JUMP JUMPDEST PUSH32 0x7FB99B0E057117361D5136CDCB4CD813D0686BCE950D14921632455351C341CD DUP5 PUSH1 0x40 MLOAD PUSH1 0x0 DUP2 MSTORE LOG3 PUSH1 0x1 DUP1 SSTORE PUSH1 0x40 MLOAD SWAP1 DUP2 MSTORE RETURN JUMPDEST ADD MLOAD SWAP1 POP DUP12 DUP1 PUSH2 0x10DE JUMP JUMPDEST SWAP1 PUSH1 0x3 DUP5 ADD PUSH1 0x0 MSTORE DUP8 PUSH1 0x0 KECCAK256 SWAP2 PUSH1 0x0 JUMPDEST PUSH1 0x1F NOT DUP6 AND DUP2 LT PUSH2 0x1220 JUMPI POP SWAP4 PUSH1 0x1 DUP5 PUSH2 0x140 SWAP5 PUSH1 0x9 SWAP5 PUSH2 0x117D SWAP9 DUP12 SWAP13 SWAP9 PUSH1 0x1F NOT DUP2 AND LT PUSH2 0x1207 JUMPI JUMPDEST POP POP POP DUP2 SHL ADD PUSH1 0x3 DUP3 ADD SSTORE PUSH2 0x10F6 JUMP JUMPDEST ADD MLOAD PUSH1 0x0 NOT PUSH1 0xF8 DUP5 PUSH1 0x3 SHL AND SHR NOT AND SWAP1 SSTORE DUP12 DUP1 DUP1 PUSH2 0x11F7 JUMP JUMPDEST SWAP2 SWAP3 DUP10 PUSH1 0x1 DUP2 SWAP3 DUP7 DUP6 ADD MLOAD DUP2 SSTORE ADD SWAP5 ADD SWAP3 ADD PUSH2 0x11CE JUMP JUMPDEST PUSH4 0x4E487B71 PUSH1 0xE0 SHL PUSH1 0x0 MSTORE PUSH1 0x41 PUSH1 0x4 MSTORE PUSH1 0x24 PUSH1 0x0 REVERT JUMPDEST PUSH1 0x40 MLOAD PUSH3 0x461BCD PUSH1 0xE5 SHL DUP2 MSTORE PUSH1 0x20 PUSH1 0x4 DUP3 ADD MSTORE PUSH1 0x12 PUSH1 0x24 DUP3 ADD MSTORE PUSH18 0x52657075746174696F6E20746F6F206C6F77 PUSH1 0x70 SHL PUSH1 0x44 DUP3 ADD MSTORE PUSH1 0x64 SWAP1 REVERT JUMPDEST PUSH2 0xF3D SWAP4 POP PUSH1 0x3 SWAP3 POP PUSH2 0x12A8 SWAP1 PUSH1 0xE0 RETURNDATASIZE PUSH1 0xE0 GT PUSH2 0x68B JUMPI PUSH2 0x675 DUP2 DUP4 PUSH2 0x2023 JUMP JUMPDEST POP SWAP8 SWAP5 SWAP4 POP POP POP POP SWAP4 SWAP3 POP PUSH2 0xF26 JUMP JUMPDEST PUSH1 0x40 MLOAD PUSH3 0x461BCD PUSH1 0xE5 SHL DUP2 MSTORE PUSH1 0x20 PUSH1 0x4 DUP3 ADD MSTORE PUSH1 0xC PUSH1 0x24 DUP3 ADD MSTORE PUSH12 0x4E6F7420656C696769626C65 PUSH1 0xA0 SHL PUSH1 0x44 DUP3 ADD MSTORE PUSH1 0x64 SWAP1 REVERT JUMPDEST SWAP1 POP PUSH1 0x20 DUP2 RETURNDATASIZE PUSH1 0x20 GT PUSH2 0x131E JUMPI JUMPDEST DUP2 PUSH2 0x1307 PUSH1 0x20 SWAP4 DUP4 PUSH2 0x2023 JUMP JUMPDEST DUP2 ADD SUB SLT PUSH2 0x2C8 JUMPI PUSH2 0x1318 SWAP1 PUSH2 0x230F JUMP JUMPDEST DUP6 PUSH2 0xEF1 JUMP JUMPDEST RETURNDATASIZE SWAP2 POP PUSH2 0x12FA JUMP JUMPDEST PUSH1 0x40 MLOAD PUSH3 0x461BCD PUSH1 0xE5 SHL DUP2 MSTORE PUSH1 0x20 PUSH1 0x4 DUP3 ADD MSTORE PUSH1 0xE PUSH1 0x24 DUP3 ADD MSTORE PUSH14 0x14DE5B991A58D85D1948199D5B1B PUSH1 0x92 SHL PUSH1 0x44 DUP3 ADD MSTORE PUSH1 0x64 SWAP1 REVERT JUMPDEST CALLVALUE PUSH2 0x2C8 JUMPI PUSH2 0x100 CALLDATASIZE PUSH1 0x3 NOT ADD SLT PUSH2 0x2C8 JUMPI PUSH8 0xFFFFFFFFFFFFFFFF PUSH1 0x24 CALLDATALOAD GT PUSH2 0x2C8 JUMPI CALLDATASIZE PUSH1 0x23 PUSH1 0x24 CALLDATALOAD ADD SLT ISZERO PUSH2 0x2C8 JUMPI PUSH8 0xFFFFFFFFFFFFFFFF PUSH1 0x24 CALLDATALOAD PUSH1 0x4 ADD CALLDATALOAD GT PUSH2 0x2C8 JUMPI CALLDATASIZE PUSH1 0x24 DUP1 CALLDATALOAD PUSH1 0x4 ADD CALLDATALOAD DUP2 CALLDATALOAD ADD ADD GT PUSH2 0x2C8 JUMPI PUSH1 0xE4 CALLDATALOAD DUP1 ISZERO ISZERO DUP2 SUB PUSH2 0x2C8 JUMPI PUSH2 0x13C7 PUSH2 0x226C JUMP JUMPDEST PUSH1 0x4 CALLDATALOAD PUSH1 0x0 MSTORE PUSH1 0x2 PUSH1 0x20 MSTORE PUSH1 0x1 DUP1 PUSH1 0xA0 SHL SUB PUSH1 0x2 PUSH1 0x40 PUSH1 0x0 KECCAK256 ADD SLOAD AND PUSH2 0x17B5 JUMPI PUSH2 0x2710 PUSH1 0x84 CALLDATALOAD GT PUSH2 0x177C JUMPI PUSH2 0x1388 PUSH1 0xC4 CALLDATALOAD GT PUSH2 0x1748 JUMPI PUSH2 0xE10 PUSH1 0xA4 CALLDATALOAD LT PUSH2 0x170E JUMPI PUSH1 0x40 MLOAD SWAP1 DUP2 PUSH2 0x140 DUP2 ADD LT PUSH8 0xFFFFFFFFFFFFFFFF PUSH2 0x140 DUP5 ADD GT OR PUSH2 0x1237 JUMPI PUSH2 0x140 DUP3 ADD PUSH1 0x40 MSTORE PUSH1 0x4 CALLDATALOAD DUP3 MSTORE PUSH1 0x40 MLOAD PUSH2 0x1451 PUSH1 0x20 PUSH1 0x1F NOT PUSH1 0x1F PUSH1 0x24 CALLDATALOAD PUSH1 0x4 ADD CALLDATALOAD ADD AND ADD DUP3 PUSH2 0x2023 JUMP JUMPDEST PUSH1 0x24 DUP1 CALLDATALOAD PUSH1 0x4 DUP2 ADD CALLDATALOAD DUP1 DUP5 MSTORE SWAP2 ADD PUSH1 0x20 DUP4 ADD CALLDATACOPY PUSH1 0x0 PUSH1 0x20 PUSH1 0x24 CALLDATALOAD PUSH1 0x4 ADD CALLDATALOAD DUP4 ADD ADD MSTORE PUSH1 0x20 DUP4 ADD MSTORE CALLER PUSH1 0x40 DUP4 ADD MSTORE PUSH1 0x44 CALLDATALOAD PUSH1 0x60 DUP4 ADD MSTORE PUSH1 0x64 CALLDATALOAD PUSH1 0x80 DUP4 ADD MSTORE PUSH1 0x84 CALLDATALOAD PUSH1 0xA0 DUP4 ADD MSTORE PUSH1 0xA4 CALLDATALOAD PUSH1 0xC0 DUP4 ADD MSTORE PUSH1 0xC4 CALLDATALOAD PUSH1 0xE0 DUP4 ADD MSTORE ISZERO ISZERO PUSH2 0x100 DUP3 ADD MSTORE PUSH1 0x1 PUSH2 0x120 DUP3 ADD MSTORE PUSH1 0x4 CALLDATALOAD PUSH1 0x0 MSTORE PUSH1 0x2 PUSH1 0x20 MSTORE PUSH1 0x40 PUSH1 0x0 KECCAK256 SWAP1 DUP1 MLOAD DUP3 SSTORE PUSH1 0x20 DUP2 ADD MLOAD DUP1 MLOAD SWAP1 PUSH8 0xFFFFFFFFFFFFFFFF DUP3 GT PUSH2 0x1237 JUMPI PUSH2 0x14FC DUP3 PUSH2 0x14F3 PUSH1 0x1 DUP8 ADD SLOAD PUSH2 0x1FE9 JUMP JUMPDEST PUSH1 0x1 DUP8 ADD PUSH2 0x2218 JUMP JUMPDEST PUSH1 0x20 SWAP1 PUSH1 0x1F DUP4 GT PUSH1 0x1 EQ PUSH2 0x1695 JUMPI SWAP4 DUP3 PUSH2 0x120 SWAP4 PUSH1 0x8 SWAP4 PUSH2 0x15AF SWAP8 PUSH1 0x0 SWAP3 PUSH2 0x168A JUMPI JUMPDEST POP POP DUP2 PUSH1 0x1 SHL SWAP2 PUSH1 0x0 NOT SWAP1 PUSH1 0x3 SHL SHR NOT AND OR PUSH1 0x1 DUP3 ADD SSTORE JUMPDEST PUSH1 0x2 DUP2 ADD PUSH1 0x1 DUP1 PUSH1 0xA0 SHL SUB PUSH1 0x40 DUP7 ADD MLOAD AND PUSH12 0xFFFFFFFFFFFFFFFFFFFFFFFF PUSH1 0xA0 SHL DUP3 SLOAD AND OR SWAP1 SSTORE PUSH1 0x60 DUP5 ADD MLOAD PUSH1 0x3 DUP3 ADD SSTORE PUSH1 0x80 DUP5 ADD MLOAD PUSH1 0x4 DUP3 ADD SSTORE PUSH1 0xA0 DUP5 ADD MLOAD PUSH1 0x5 DUP3 ADD SSTORE PUSH1 0xC0 DUP5 ADD MLOAD PUSH1 0x6 DUP3 ADD SSTORE PUSH1 0xE0 DUP5 ADD MLOAD PUSH1 0x7 DUP3 ADD SSTORE ADD SWAP2 PUSH2 0x1165 PUSH2 0x100 DUP3 ADD MLOAD ISZERO ISZERO DUP5 SWAP1 PUSH1 0xFF DUP1 NOT DUP4 SLOAD AND SWAP2 ISZERO ISZERO AND OR SWAP1 SSTORE JUMP JUMPDEST PUSH1 0xA SLOAD PUSH1 0x1 PUSH1 0x40 SHL DUP2 LT ISZERO PUSH2 0x1237 JUMPI PUSH1 0x1 DUP2 ADD DUP1 PUSH1 0xA SSTORE DUP2 LT ISZERO PUSH2 0x1674 JUMPI PUSH1 0xA PUSH1 0x0 MSTORE PUSH1 0x4 CALLDATALOAD SWAP1 PUSH32 0xC65A7BB8D6351C1CF70C95A316CC6A92839C986682D98BC35F958F4883F9D2A8 ADD SSTORE PUSH1 0x40 MLOAD PUSH1 0x40 DUP2 MSTORE PUSH1 0x24 CALLDATALOAD PUSH1 0x4 ADD CALLDATALOAD PUSH1 0x40 DUP3 ADD MSTORE PUSH1 0x24 CALLDATALOAD PUSH1 0x4 ADD CALLDATALOAD PUSH1 0x24 DUP1 CALLDATALOAD ADD PUSH1 0x60 DUP4 ADD CALLDATACOPY PUSH1 0x0 PUSH1 0x60 PUSH1 0x24 CALLDATALOAD PUSH1 0x4 ADD CALLDATALOAD DUP4 ADD ADD MSTORE CALLER PUSH1 0x20 DUP3 ADD MSTORE PUSH32 0xE1487469246E0CD124E44A55F6D3394CDAB226D28D1B2099412203198CDE4CF2 PUSH1 0x4 CALLDATALOAD SWAP2 PUSH1 0x60 DUP2 PUSH1 0x1F NOT PUSH1 0x1F PUSH1 0x24 CALLDATALOAD PUSH1 0x4 ADD CALLDATALOAD ADD AND DUP2 ADD SUB ADD SWAP1 LOG2 PUSH1 0x1 DUP1 SSTORE STOP JUMPDEST PUSH4 0x4E487B71 PUSH1 0xE0 SHL PUSH1 0x0 MSTORE PUSH1 0x32 PUSH1 0x4 MSTORE PUSH1 0x24 PUSH1 0x0 REVERT JUMPDEST ADD MLOAD SWAP1 POP DUP8 DUP1 PUSH2 0x151F JUMP JUMPDEST SWAP1 PUSH1 0x1 DUP6 ADD PUSH1 0x0 MSTORE PUSH1 0x20 PUSH1 0x0 KECCAK256 SWAP2 PUSH1 0x0 JUMPDEST PUSH1 0x1F NOT DUP6 AND DUP2 LT PUSH2 0x16F6 JUMPI POP DUP4 PUSH1 0x8 SWAP4 PUSH2 0x15AF SWAP8 SWAP4 PUSH1 0x1 SWAP4 PUSH2 0x120 SWAP8 PUSH1 0x1F NOT DUP2 AND LT PUSH2 0x16DD JUMPI JUMPDEST POP POP POP DUP2 SHL ADD PUSH1 0x1 DUP3 ADD SSTORE PUSH2 0x1537 JUMP JUMPDEST ADD MLOAD PUSH1 0x0 NOT PUSH1 0xF8 DUP5 PUSH1 0x3 SHL AND SHR NOT AND SWAP1 SSTORE DUP8 DUP1 DUP1 PUSH2 0x16CD JUMP JUMPDEST SWAP2 SWAP3 PUSH1 0x20 PUSH1 0x1 DUP2 SWAP3 DUP7 DUP6 ADD MLOAD DUP2 SSTORE ADD SWAP5 ADD SWAP3 ADD PUSH2 0x16A6 JUMP JUMPDEST PUSH1 0x40 MLOAD PUSH3 0x461BCD PUSH1 0xE5 SHL DUP2 MSTORE PUSH1 0x20 PUSH1 0x4 DUP3 ADD MSTORE PUSH1 0x12 PUSH1 0x24 DUP3 ADD MSTORE PUSH18 0x111D5C985D1A5BDB881D1BDBC81CDA1BDC9D PUSH1 0x72 SHL PUSH1 0x44 DUP3 ADD MSTORE PUSH1 0x64 SWAP1 REVERT JUMPDEST PUSH1 0x40 MLOAD PUSH3 0x461BCD PUSH1 0xE5 SHL DUP2 MSTORE PUSH1 0x20 PUSH1 0x4 DUP3 ADD MSTORE PUSH1 0xC PUSH1 0x24 DUP3 ADD MSTORE PUSH12 0x8CCACA40E8DEDE40D0D2CED PUSH1 0xA3 SHL PUSH1 0x44 DUP3 ADD MSTORE PUSH1 0x64 SWAP1 REVERT JUMPDEST PUSH1 0x40 MLOAD PUSH3 0x461BCD PUSH1 0xE5 SHL DUP2 MSTORE PUSH1 0x20 PUSH1 0x4 DUP3 ADD MSTORE PUSH1 0x11 PUSH1 0x24 DUP3 ADD MSTORE PUSH17 0x125B9D985B1A59081D1A1C995CDA1BDB19 PUSH1 0x7A SHL PUSH1 0x44 DUP3 ADD MSTORE PUSH1 0x64 SWAP1 REVERT JUMPDEST PUSH1 0x40 MLOAD PUSH3 0x461BCD PUSH1 0xE5 SHL DUP2 MSTORE PUSH1 0x20 PUSH1 0x4 DUP3 ADD MSTORE PUSH1 0x10 PUSH1 0x24 DUP3 ADD MSTORE PUSH16 0x53796E64696361746520657869737473 PUSH1 0x80 SHL PUSH1 0x44 DUP3 ADD MSTORE PUSH1 0x64 SWAP1 REVERT JUMPDEST CALLVALUE PUSH2 0x2C8 JUMPI PUSH1 0x40 CALLDATASIZE PUSH1 0x3 NOT ADD SLT PUSH2 0x2C8 JUMPI PUSH1 0x24 CALLDATALOAD PUSH1 0x4 CALLDATALOAD PUSH1 0x0 MSTORE PUSH1 0x4 PUSH1 0x20 MSTORE PUSH1 0x40 PUSH1 0x0 KECCAK256 DUP1 SLOAD DUP3 LT ISZERO PUSH2 0x2C8 JUMPI PUSH1 0x20 SWAP2 PUSH2 0x1826 SWAP2 PUSH2 0x1FD1 JUMP JUMPDEST SWAP1 SLOAD PUSH1 0x40 MLOAD SWAP2 PUSH1 0x3 SHL SHR DUP2 MSTORE RETURN JUMPDEST CALLVALUE PUSH2 0x2C8 JUMPI PUSH2 0x1842 CALLDATASIZE PUSH2 0x1F91 JUMP JUMPDEST PUSH2 0x184A PUSH2 0x226C JUMP JUMPDEST DUP3 PUSH1 0x0 MSTORE PUSH1 0x2 PUSH1 0x20 MSTORE PUSH2 0x186A PUSH1 0xFF PUSH1 0x8 PUSH1 0x40 PUSH1 0x0 KECCAK256 ADD SLOAD PUSH1 0x8 SHR AND PUSH2 0x228F JUMP JUMPDEST PUSH1 0x40 MLOAD PUSH4 0x23B872DD PUSH1 0xE0 SHL PUSH1 0x20 DUP3 ADD MSTORE CALLER PUSH1 0x24 DUP3 ADD MSTORE ADDRESS PUSH1 0x44 DUP3 ADD MSTORE PUSH1 0x64 DUP1 DUP3 ADD DUP4 SWAP1 MSTORE DUP2 MSTORE SWAP2 PUSH1 0x1 PUSH1 0x1 PUSH1 0xA0 SHL SUB DUP2 AND PUSH1 0xA0 DUP5 ADD PUSH8 0xFFFFFFFFFFFFFFFF DUP2 GT DUP6 DUP3 LT OR PUSH2 0x1237 JUMPI PUSH32 0xE0F1C194717590480E51C809E7CBEEF1245CCFD1FE3501495BD2E715549EF2B5 SWAP5 PUSH2 0x18E1 SWAP2 PUSH1 0x40 MSTORE DUP3 PUSH2 0x2540 JUMP JUMPDEST DUP5 PUSH1 0x0 MSTORE PUSH1 0x7 PUSH1 0x20 MSTORE PUSH1 0x40 PUSH1 0x0 KECCAK256 SWAP1 PUSH1 0x0 MSTORE PUSH1 0x20 MSTORE PUSH1 0x40 PUSH1 0x0 KECCAK256 PUSH2 0x1906 DUP4 DUP3 SLOAD PUSH2 0x250A JUMP JUMPDEST SWAP1 SSTORE PUSH1 0x40 DUP1 MLOAD PUSH1 0x1 PUSH1 0x1 PUSH1 0xA0 SHL SUB SWAP3 SWAP1 SWAP3 AND DUP3 MSTORE PUSH1 0x20 DUP3 ADD SWAP3 SWAP1 SWAP3 MSTORE LOG2 PUSH1 0x1 DUP1 SSTORE STOP JUMPDEST CALLVALUE PUSH2 0x2C8 JUMPI PUSH1 0x20 CALLDATASIZE PUSH1 0x3 NOT ADD SLT PUSH2 0x2C8 JUMPI PUSH1 0x4 CALLDATALOAD PUSH1 0x0 MSTORE PUSH1 0x8 PUSH1 0x20 MSTORE PUSH1 0x20 PUSH1 0x40 PUSH1 0x0 KECCAK256 SLOAD PUSH1 0x40 MLOAD SWAP1 DUP2 MSTORE RETURN JUMPDEST CALLVALUE PUSH2 0x2C8 JUMPI PUSH1 0x60 CALLDATASIZE PUSH1 0x3 NOT ADD SLT PUSH2 0x2C8 JUMPI PUSH1 0x4 CALLDATALOAD PUSH1 0x24 CALLDATALOAD SWAP1 DUP1 PUSH1 0x0 MSTORE PUSH1 0x20 SWAP2 PUSH1 0x2 DUP4 MSTORE PUSH1 0x1 DUP1 PUSH1 0xA0 SHL SUB PUSH1 0x2 PUSH1 0x40 PUSH1 0x0 KECCAK256 ADD SLOAD AND CALLER EQ DUP1 ISZERO PUSH2 0x19FF JUMPI JUMPDEST ISZERO PUSH2 0x19C9 JUMPI PUSH2 0x1B SWAP3 DUP3 PUSH1 0x0 MSTORE PUSH1 0x3 DUP2 MSTORE PUSH1 0x40 PUSH1 0x0 KECCAK256 SWAP1 DUP3 PUSH1 0x0 MSTORE MSTORE PUSH2 0x19C0 PUSH1 0x1 PUSH1 0x40 PUSH1 0x0 KECCAK256 ADD SLOAD ISZERO PUSH2 0x22D2 JUMP JUMPDEST PUSH1 0x44 CALLDATALOAD SWAP2 PUSH2 0x23C8 JUMP JUMPDEST PUSH1 0x40 MLOAD PUSH3 0x461BCD PUSH1 0xE5 SHL DUP2 MSTORE PUSH1 0x4 DUP2 ADD DUP5 SWAP1 MSTORE PUSH1 0xE PUSH1 0x24 DUP3 ADD MSTORE PUSH14 0x139BDD08185D5D1A1BDC9A5E9959 PUSH1 0x92 SHL PUSH1 0x44 DUP3 ADD MSTORE PUSH1 0x64 SWAP1 REVERT JUMPDEST POP PUSH32 0xD8AA0F3194971A2A116679F7C2090F6939C8D4E01A2A8D7E41D55E5351469E63 PUSH1 0x0 MSTORE PUSH1 0x0 DUP4 MSTORE PUSH1 0x40 PUSH1 0x0 KECCAK256 CALLER PUSH1 0x0 MSTORE DUP4 MSTORE PUSH1 0xFF PUSH1 0x40 PUSH1 0x0 KECCAK256 SLOAD AND PUSH2 0x1992 JUMP JUMPDEST CALLVALUE PUSH2 0x2C8 JUMPI PUSH2 0x1A4F CALLDATASIZE PUSH2 0x1FBB JUMP JUMPDEST SWAP1 PUSH1 0x0 MSTORE PUSH1 0x6 PUSH1 0x20 MSTORE PUSH1 0x40 PUSH1 0x0 KECCAK256 SWAP1 PUSH1 0x0 MSTORE PUSH1 0x20 MSTORE PUSH1 0x20 PUSH1 0xFF PUSH1 0x40 PUSH1 0x0 KECCAK256 SLOAD AND PUSH1 0x40 MLOAD SWAP1 ISZERO ISZERO DUP2 MSTORE RETURN JUMPDEST CALLVALUE PUSH2 0x2C8 JUMPI PUSH1 0x40 CALLDATASIZE PUSH1 0x3 NOT ADD SLT PUSH2 0x2C8 JUMPI PUSH1 0x20 PUSH2 0x1A9F PUSH2 0x1A97 PUSH2 0x1F7B JUMP JUMPDEST PUSH1 0x4 CALLDATALOAD PUSH2 0x260F JUMP JUMPDEST PUSH1 0x40 MLOAD SWAP1 DUP2 MSTORE RETURN JUMPDEST CALLVALUE PUSH2 0x2C8 JUMPI PUSH2 0x1AB5 CALLDATASIZE PUSH2 0x1F91 JUMP JUMPDEST PUSH2 0x1ABD PUSH2 0x2085 JUMP JUMPDEST PUSH2 0x1AC5 PUSH2 0x226C JUMP JUMPDEST DUP3 PUSH1 0x0 MSTORE PUSH1 0x2 SWAP1 PUSH2 0x1AF1 PUSH1 0x20 SWAP2 DUP4 DUP4 MSTORE PUSH2 0x2710 PUSH2 0x1AEA PUSH1 0x7 PUSH1 0x40 PUSH1 0x0 KECCAK256 ADD SLOAD DUP4 PUSH2 0x252D JUMP JUMPDEST DIV SWAP1 PUSH2 0x259C JUMP JUMPDEST SWAP3 PUSH1 0x0 SWAP2 DUP6 PUSH1 0x0 MSTORE PUSH1 0x4 DUP2 MSTORE PUSH1 0x40 PUSH1 0x0 KECCAK256 SWAP2 PUSH1 0x40 MLOAD DUP1 DUP5 DUP5 DUP3 SWAP7 SLOAD SWAP4 DUP5 DUP2 MSTORE ADD SWAP1 PUSH1 0x0 MSTORE DUP5 PUSH1 0x0 KECCAK256 SWAP3 PUSH1 0x0 JUMPDEST DUP7 DUP3 DUP3 LT PUSH2 0x1D95 JUMPI POP POP POP PUSH2 0x1B34 SWAP3 POP SUB DUP5 PUSH2 0x2023 JUMP JUMPDEST PUSH1 0x0 JUMPDEST DUP4 MLOAD DUP2 LT ISZERO PUSH2 0x1B9B JUMPI DUP8 PUSH1 0x0 MSTORE PUSH1 0x3 DUP4 MSTORE PUSH1 0x40 PUSH1 0x0 KECCAK256 PUSH2 0x1B57 DUP3 DUP7 PUSH2 0x25FB JUMP JUMPDEST MLOAD PUSH1 0x0 MSTORE DUP4 MSTORE DUP6 PUSH1 0x40 PUSH1 0x0 KECCAK256 PUSH1 0xFF PUSH1 0x4 DUP3 ADD SLOAD AND PUSH2 0x1B80 JUMPI JUMPDEST POP POP PUSH2 0x1B7B SWAP1 PUSH2 0x25EC JUMP JUMPDEST PUSH2 0x1B37 JUMP JUMPDEST ADD SLOAD SWAP1 SWAP5 PUSH2 0x1B7B SWAP2 PUSH2 0x1B91 SWAP2 PUSH2 0x250A JUMP JUMPDEST SWAP5 SWAP1 POP DUP6 DUP10 PUSH2 0x1B70 JUMP JUMPDEST POP SWAP3 SWAP1 SWAP2 SWAP5 DUP2 ISZERO SWAP1 DUP2 PUSH2 0x1D5C JUMPI PUSH1 0x0 JUMPDEST DUP8 MLOAD DUP2 LT ISZERO PUSH2 0x1D2B JUMPI DUP9 PUSH1 0x0 MSTORE PUSH1 0x3 DUP6 MSTORE PUSH1 0x40 PUSH1 0x0 KECCAK256 PUSH2 0x1BCB DUP3 DUP11 PUSH2 0x25FB JUMP JUMPDEST MLOAD PUSH1 0x0 MSTORE DUP6 MSTORE PUSH1 0x40 PUSH1 0x0 KECCAK256 PUSH1 0xFF PUSH1 0x4 DUP3 ADD SLOAD AND PUSH2 0x1BF2 JUMPI JUMPDEST POP PUSH2 0x1BED SWAP1 PUSH2 0x25EC JUMP JUMPDEST PUSH2 0x1BAB JUMP JUMPDEST DUP4 PUSH2 0x1C00 DUP10 DUP4 ADD SLOAD DUP6 PUSH2 0x252D JUMP JUMPDEST SWAP1 PUSH2 0x1D15 JUMPI SWAP1 SLOAD PUSH1 0x40 MLOAD PUSH4 0xA6C2AF01 PUSH1 0xE0 SHL DUP2 MSTORE PUSH1 0x4 DUP2 ADD SWAP2 SWAP1 SWAP2 MSTORE SWAP1 DUP6 SWAP1 DIV SWAP1 PUSH1 0x1 PUSH1 0x1 PUSH1 0xA0 SHL SUB PUSH1 0xE0 DUP3 PUSH1 0x24 DUP2 PUSH32 0x0 DUP6 AND GAS STATICCALL SWAP2 DUP3 ISZERO PUSH2 0x692 JUMPI PUSH1 0x0 SWAP3 PUSH2 0x1CEE JUMPI JUMPDEST POP DUP12 DUP10 DUP3 AND DUP1 PUSH2 0x1CB4 JUMPI POP PUSH1 0x0 SWAP4 DUP5 SWAP4 DUP5 SWAP4 DUP5 SWAP4 DUP5 MSTORE PUSH1 0x8 DUP13 MSTORE PUSH1 0x40 DUP5 KECCAK256 PUSH2 0x1C8C DUP5 DUP3 SLOAD PUSH2 0x259C JUMP JUMPDEST SWAP1 SSTORE DUP4 SWAP2 DUP4 ISZERO PUSH2 0x1CAA JUMPI JUMPDEST AND SWAP1 CALL ISZERO PUSH2 0x692 JUMPI PUSH2 0x1BED SWAP1 JUMPDEST SWAP1 PUSH2 0x1BE3 JUMP JUMPDEST PUSH2 0x8FC SWAP3 POP PUSH2 0x1C97 JUMP JUMPDEST PUSH2 0x1BED SWAP6 SWAP5 SWAP3 POP PUSH2 0x1CE9 SWAP4 SWAP2 PUSH1 0x0 MSTORE PUSH1 0x7 DUP11 MSTORE PUSH1 0x40 PUSH1 0x0 KECCAK256 DUP2 PUSH1 0x0 MSTORE DUP11 MSTORE PUSH1 0x40 PUSH1 0x0 KECCAK256 PUSH2 0x1CE2 DUP5 DUP3 SLOAD PUSH2 0x259C JUMP JUMPDEST SWAP1 SSTORE PUSH2 0x25A9 JUMP JUMPDEST PUSH2 0x1CA4 JUMP JUMPDEST PUSH2 0x1D08 SWAP2 SWAP3 POP PUSH1 0xE0 RETURNDATASIZE PUSH1 0xE0 GT PUSH2 0x68B JUMPI PUSH2 0x675 DUP2 DUP4 PUSH2 0x2023 JUMP JUMPDEST POP POP POP POP POP POP SWAP1 DUP13 PUSH2 0x1C63 JUMP JUMPDEST PUSH4 0x4E487B71 PUSH1 0xE0 SHL PUSH1 0x0 MSTORE PUSH1 0x12 PUSH1 0x4 MSTORE PUSH1 0x24 PUSH1 0x0 REVERT JUMPDEST DUP9 PUSH32 0x9CAFD5226A9E7F90E1032B7BAC875934A802F5ACE22905AEF540B38D260C5A82 DUP7 DUP5 PUSH1 0x40 MLOAD SWAP1 DUP2 MSTORE LOG2 PUSH1 0x1 DUP1 SSTORE STOP JUMPDEST PUSH1 0x40 MLOAD PUSH3 0x461BCD PUSH1 0xE5 SHL DUP2 MSTORE PUSH1 0x4 DUP2 ADD DUP6 SWAP1 MSTORE PUSH1 0x11 PUSH1 0x24 DUP3 ADD MSTORE PUSH17 0x4E6F20616374697665206D656D62657273 PUSH1 0x78 SHL PUSH1 0x44 DUP3 ADD MSTORE PUSH1 0x64 SWAP1 REVERT JUMPDEST DUP6 SLOAD DUP5 MSTORE PUSH1 0x1 SWAP6 DUP7 ADD SWAP6 DUP10 SWAP6 POP SWAP4 ADD SWAP3 ADD PUSH2 0x1B1D JUMP JUMPDEST CALLVALUE PUSH2 0x2C8 JUMPI PUSH1 0x40 CALLDATASIZE PUSH1 0x3 NOT ADD SLT PUSH2 0x2C8 JUMPI PUSH2 0x1DC4 PUSH2 0x1F7B JUMP JUMPDEST CALLER PUSH1 0x1 PUSH1 0x1 PUSH1 0xA0 SHL SUB DUP3 AND SUB PUSH2 0x1DE0 JUMPI PUSH2 0x1B SWAP1 PUSH1 0x4 CALLDATALOAD PUSH2 0x21A3 JUMP JUMPDEST PUSH1 0x40 MLOAD PUSH4 0x334BD919 PUSH1 0xE1 SHL DUP2 MSTORE PUSH1 0x4 SWAP1 REVERT JUMPDEST CALLVALUE PUSH2 0x2C8 JUMPI PUSH1 0x40 CALLDATASIZE PUSH1 0x3 NOT ADD SLT PUSH2 0x2C8 JUMPI PUSH2 0x1B PUSH1 0x4 CALLDATALOAD PUSH2 0x1E11 PUSH2 0x1F7B JUMP JUMPDEST SWAP1 DUP1 PUSH1 0x0 MSTORE PUSH1 0x0 PUSH1 0x20 MSTORE PUSH2 0x1E2C PUSH1 0x1 PUSH1 0x40 PUSH1 0x0 KECCAK256 ADD SLOAD PUSH2 0x20FF JUMP JUMPDEST PUSH2 0x2125 JUMP JUMPDEST CALLVALUE PUSH2 0x2C8 JUMPI PUSH1 0x20 CALLDATASIZE PUSH1 0x3 NOT ADD SLT PUSH2 0x2C8 JUMPI PUSH1 0x4 CALLDATALOAD PUSH1 0x0 MSTORE PUSH1 0x0 PUSH1 0x20 MSTORE PUSH1 0x20 PUSH1 0x1 PUSH1 0x40 PUSH1 0x0 KECCAK256 ADD SLOAD PUSH1 0x40 MLOAD SWAP1 DUP2 MSTORE RETURN JUMPDEST CALLVALUE PUSH2 0x2C8 JUMPI PUSH1 0x40 CALLDATASIZE PUSH1 0x3 NOT ADD SLT PUSH2 0x2C8 JUMPI PUSH2 0x1E79 PUSH2 0x1F7B JUMP JUMPDEST PUSH1 0x4 CALLDATALOAD PUSH1 0x0 MSTORE PUSH1 0x7 PUSH1 0x20 MSTORE PUSH1 0x40 PUSH1 0x0 KECCAK256 SWAP1 PUSH1 0x1 DUP1 PUSH1 0xA0 SHL SUB AND PUSH1 0x0 MSTORE PUSH1 0x20 MSTORE PUSH1 0x20 PUSH1 0x40 PUSH1 0x0 KECCAK256 SLOAD PUSH1 0x40 MLOAD SWAP1 DUP2 MSTORE RETURN JUMPDEST CALLVALUE PUSH2 0x2C8 JUMPI PUSH1 0x0 CALLDATASIZE PUSH1 0x3 NOT ADD SLT PUSH2 0x2C8 JUMPI PUSH1 0x40 MLOAD PUSH32 0x0 PUSH1 0x1 PUSH1 0x1 PUSH1 0xA0 SHL SUB AND DUP2 MSTORE PUSH1 0x20 SWAP1 RETURN JUMPDEST CALLVALUE PUSH2 0x2C8 JUMPI PUSH1 0x0 CALLDATASIZE PUSH1 0x3 NOT ADD SLT PUSH2 0x2C8 JUMPI PUSH1 0x20 PUSH1 0x40 MLOAD PUSH32 0xD8AA0F3194971A2A116679F7C2090F6939C8D4E01A2A8D7E41D55E5351469E63 DUP2 MSTORE RETURN JUMPDEST CALLVALUE PUSH2 0x2C8 JUMPI PUSH1 0x20 CALLDATASIZE PUSH1 0x3 NOT ADD SLT PUSH2 0x2C8 JUMPI PUSH1 0x4 CALLDATALOAD SWAP1 PUSH4 0xFFFFFFFF PUSH1 0xE0 SHL DUP3 AND DUP1 SWAP3 SUB PUSH2 0x2C8 JUMPI PUSH1 0x20 SWAP2 PUSH4 0x7965DB0B PUSH1 0xE0 SHL DUP2 EQ SWAP1 DUP2 ISZERO PUSH2 0x1F6A JUMPI JUMPDEST POP ISZERO ISZERO DUP2 MSTORE RETURN JUMPDEST PUSH4 0x1FFC9A7 PUSH1 0xE0 SHL EQ SWAP1 POP DUP4 PUSH2 0x1F63 JUMP JUMPDEST PUSH1 0x24 CALLDATALOAD SWAP1 PUSH1 0x1 PUSH1 0x1 PUSH1 0xA0 SHL SUB DUP3 AND DUP3 SUB PUSH2 0x2C8 JUMPI JUMP JUMPDEST PUSH1 0x60 SWAP1 PUSH1 0x3 NOT ADD SLT PUSH2 0x2C8 JUMPI PUSH1 0x4 CALLDATALOAD SWAP1 PUSH1 0x24 CALLDATALOAD PUSH1 0x1 PUSH1 0x1 PUSH1 0xA0 SHL SUB DUP2 AND DUP2 SUB PUSH2 0x2C8 JUMPI SWAP1 PUSH1 0x44 CALLDATALOAD SWAP1 JUMP JUMPDEST PUSH1 0x40 SWAP1 PUSH1 0x3 NOT ADD SLT PUSH2 0x2C8 JUMPI PUSH1 0x4 CALLDATALOAD SWAP1 PUSH1 0x24 CALLDATALOAD SWAP1 JUMP JUMPDEST DUP1 SLOAD DUP3 LT ISZERO PUSH2 0x1674 JUMPI PUSH1 0x0 MSTORE PUSH1 0x20 PUSH1 0x0 KECCAK256 ADD SWAP1 PUSH1 0x0 SWAP1 JUMP JUMPDEST SWAP1 PUSH1 0x1 DUP3 DUP2 SHR SWAP3 AND DUP1 ISZERO PUSH2 0x2019 JUMPI JUMPDEST PUSH1 0x20 DUP4 LT EQ PUSH2 0x2003 JUMPI JUMP JUMPDEST PUSH4 0x4E487B71 PUSH1 0xE0 SHL PUSH1 0x0 MSTORE PUSH1 0x22 PUSH1 0x4 MSTORE PUSH1 0x24 PUSH1 0x0 REVERT JUMPDEST SWAP2 PUSH1 0x7F AND SWAP2 PUSH2 0x1FF8 JUMP JUMPDEST SWAP1 PUSH1 0x1F DUP1 NOT SWAP2 ADD AND DUP2 ADD SWAP1 DUP2 LT PUSH8 0xFFFFFFFFFFFFFFFF DUP3 GT OR PUSH2 0x1237 JUMPI PUSH1 0x40 MSTORE JUMP JUMPDEST SWAP2 SWAP1 DUP3 MLOAD SWAP3 DUP4 DUP3 MSTORE PUSH1 0x0 JUMPDEST DUP5 DUP2 LT PUSH2 0x2071 JUMPI POP POP DUP3 PUSH1 0x0 PUSH1 0x20 DUP1 SWAP5 SWAP6 DUP5 ADD ADD MSTORE PUSH1 0x1F DUP1 NOT SWAP2 ADD AND ADD ADD SWAP1 JUMP JUMPDEST PUSH1 0x20 DUP2 DUP4 ADD DUP2 ADD MLOAD DUP5 DUP4 ADD DUP3 ADD MSTORE ADD PUSH2 0x2050 JUMP JUMPDEST CALLER PUSH1 0x0 SWAP1 DUP2 MSTORE PUSH32 0xDAE2AA361DFD1CA020A396615627D436107C35EFF9FE7738A3512819782D7069 PUSH1 0x20 MSTORE PUSH1 0x40 SWAP1 KECCAK256 SLOAD PUSH32 0xD8AA0F3194971A2A116679F7C2090F6939C8D4E01A2A8D7E41D55E5351469E63 SWAP1 PUSH1 0xFF AND ISZERO PUSH2 0x20E1 JUMPI POP JUMP JUMPDEST PUSH1 0x44 SWAP1 PUSH1 0x40 MLOAD SWAP1 PUSH4 0xE2517D3F PUSH1 0xE0 SHL DUP3 MSTORE CALLER PUSH1 0x4 DUP4 ADD MSTORE PUSH1 0x24 DUP3 ADD MSTORE REVERT JUMPDEST DUP1 PUSH1 0x0 MSTORE PUSH1 0x0 PUSH1 0x20 MSTORE PUSH1 0x40 PUSH1 0x0 KECCAK256 CALLER PUSH1 0x0 MSTORE PUSH1 0x20 MSTORE PUSH1 0xFF PUSH1 0x40 PUSH1 0x0 KECCAK256 SLOAD AND ISZERO PUSH2 0x20E1 JUMPI POP JUMP JUMPDEST SWAP1 PUSH1 0x0 SWAP2 DUP1 DUP4 MSTORE DUP3 PUSH1 0x20 MSTORE PUSH1 0x40 DUP4 KECCAK256 SWAP2 PUSH1 0x1 DUP1 PUSH1 0xA0 SHL SUB AND SWAP2 DUP3 DUP5 MSTORE PUSH1 0x20 MSTORE PUSH1 0xFF PUSH1 0x40 DUP5 KECCAK256 SLOAD AND ISZERO PUSH1 0x0 EQ PUSH2 0x219E JUMPI DUP1 DUP4 MSTORE DUP3 PUSH1 0x20 MSTORE PUSH1 0x40 DUP4 KECCAK256 DUP3 DUP5 MSTORE PUSH1 0x20 MSTORE PUSH1 0x40 DUP4 KECCAK256 PUSH1 0x1 PUSH1 0xFF NOT DUP3 SLOAD AND OR SWAP1 SSTORE PUSH32 0x2F8788117E7EFF1D82E926EC794901D17C78024A50270940304540A733656F0D CALLER SWAP4 DUP1 LOG4 PUSH1 0x1 SWAP1 JUMP JUMPDEST POP POP SWAP1 JUMP JUMPDEST SWAP1 PUSH1 0x0 SWAP2 DUP1 DUP4 MSTORE DUP3 PUSH1 0x20 MSTORE PUSH1 0x40 DUP4 KECCAK256 SWAP2 PUSH1 0x1 DUP1 PUSH1 0xA0 SHL SUB AND SWAP2 DUP3 DUP5 MSTORE PUSH1 0x20 MSTORE PUSH1 0xFF PUSH1 0x40 DUP5 KECCAK256 SLOAD AND PUSH1 0x0 EQ PUSH2 0x219E JUMPI DUP1 DUP4 MSTORE DUP3 PUSH1 0x20 MSTORE PUSH1 0x40 DUP4 KECCAK256 DUP3 DUP5 MSTORE PUSH1 0x20 MSTORE PUSH1 0x40 DUP4 KECCAK256 PUSH1 0xFF NOT DUP2 SLOAD AND SWAP1 SSTORE PUSH32 0xF6391F5C32D9C69D2A47EA670B442974B53935D1EDC7FD64EB21E047A839171B CALLER SWAP4 DUP1 LOG4 PUSH1 0x1 SWAP1 JUMP JUMPDEST SWAP1 PUSH1 0x1F DUP2 GT PUSH2 0x2226 JUMPI POP POP POP JUMP JUMPDEST PUSH1 0x0 SWAP2 DUP3 MSTORE PUSH1 0x20 DUP3 KECCAK256 SWAP1 PUSH1 0x20 PUSH1 0x1F DUP6 ADD PUSH1 0x5 SHR DUP4 ADD SWAP5 LT PUSH2 0x2262 JUMPI JUMPDEST PUSH1 0x1F ADD PUSH1 0x5 SHR ADD SWAP2 JUMPDEST DUP3 DUP2 LT PUSH2 0x2257 JUMPI POP POP POP JUMP JUMPDEST DUP2 DUP2 SSTORE PUSH1 0x1 ADD PUSH2 0x224B JUMP JUMPDEST SWAP1 SWAP3 POP DUP3 SWAP1 PUSH2 0x2242 JUMP JUMPDEST PUSH1 0x2 PUSH1 0x1 SLOAD EQ PUSH2 0x227D JUMPI PUSH1 0x2 PUSH1 0x1 SSTORE JUMP JUMPDEST PUSH1 0x40 MLOAD PUSH4 0x3EE5AEB5 PUSH1 0xE0 SHL DUP2 MSTORE PUSH1 0x4 SWAP1 REVERT JUMPDEST ISZERO PUSH2 0x2296 JUMPI JUMP JUMPDEST PUSH1 0x40 MLOAD PUSH3 0x461BCD PUSH1 0xE5 SHL DUP2 MSTORE PUSH1 0x20 PUSH1 0x4 DUP3 ADD MSTORE PUSH1 0x14 PUSH1 0x24 DUP3 ADD MSTORE PUSH20 0x53796E646963617465206E6F7420616374697665 PUSH1 0x60 SHL PUSH1 0x44 DUP3 ADD MSTORE PUSH1 0x64 SWAP1 REVERT JUMPDEST ISZERO PUSH2 0x22D9 JUMPI JUMP JUMPDEST PUSH1 0x40 MLOAD PUSH3 0x461BCD PUSH1 0xE5 SHL DUP2 MSTORE PUSH1 0x20 PUSH1 0x4 DUP3 ADD MSTORE PUSH1 0xE PUSH1 0x24 DUP3 ADD MSTORE PUSH14 0x20B63932B0B23C9036B2B6B132B9 PUSH1 0x91 SHL PUSH1 0x44 DUP3 ADD MSTORE PUSH1 0x64 SWAP1 REVERT JUMPDEST MLOAD SWAP1 DUP2 ISZERO ISZERO DUP3 SUB PUSH2 0x2C8 JUMPI JUMP JUMPDEST MLOAD SWAP1 PUSH1 0x1 PUSH1 0x1 PUSH1 0xA0 SHL SUB DUP3 AND DUP3 SUB PUSH2 0x2C8 JUMPI JUMP JUMPDEST SWAP1 DUP2 PUSH1 0xE0 SWAP2 SUB SLT PUSH2 0x2C8 JUMPI PUSH2 0x2344 DUP2 PUSH2 0x231C JUMP JUMPDEST SWAP2 PUSH2 0x2351 PUSH1 0x20 DUP4 ADD PUSH2 0x231C JUMP JUMPDEST SWAP2 PUSH1 0x40 DUP2 ADD MLOAD PUSH1 0x4 DUP2 LT ISZERO PUSH2 0x2C8 JUMPI SWAP2 PUSH1 0x60 DUP3 ADD MLOAD PUSH1 0x4 DUP2 LT ISZERO PUSH2 0x2C8 JUMPI SWAP2 PUSH1 0x80 DUP2 ADD MLOAD SWAP2 PUSH2 0x2387 PUSH1 0xC0 PUSH1 0xA0 DUP5 ADD MLOAD SWAP4 ADD PUSH2 0x230F JUMP JUMPDEST SWAP1 JUMP JUMPDEST ISZERO PUSH2 0x2391 JUMPI JUMP JUMPDEST PUSH1 0x40 MLOAD PUSH3 0x461BCD PUSH1 0xE5 SHL DUP2 MSTORE PUSH1 0x20 PUSH1 0x4 DUP3 ADD MSTORE PUSH1 0xF PUSH1 0x24 DUP3 ADD MSTORE PUSH15 0x2737BA1030B3B2B73A1037BBB732B9 PUSH1 0x89 SHL PUSH1 0x44 DUP3 ADD MSTORE PUSH1 0x64 SWAP1 REVERT JUMPDEST SWAP1 SWAP2 PUSH1 0x40 DUP1 MLOAD PUSH1 0xA0 DUP2 ADD SWAP1 DUP1 DUP3 LT PUSH8 0xFFFFFFFFFFFFFFFF DUP4 GT OR PUSH2 0x1237 JUMPI PUSH2 0x2451 SWAP2 DUP4 MSTORE DUP6 DUP2 MSTORE PUSH1 0x4 PUSH1 0x20 DUP3 ADD TIMESTAMP DUP2 MSTORE DUP5 DUP4 ADD SWAP6 DUP7 MSTORE PUSH1 0x60 DUP4 ADD PUSH1 0x0 SWAP7 DUP8 DUP3 MSTORE PUSH1 0x80 DUP6 ADD SWAP3 PUSH1 0x1 DUP5 MSTORE DUP10 DUP10 MSTORE PUSH1 0x3 PUSH1 0x20 MSTORE DUP8 DUP10 KECCAK256 DUP12 DUP11 MSTORE PUSH1 0x20 MSTORE DUP8 DUP10 KECCAK256 SWAP6 MLOAD DUP7 SSTORE MLOAD PUSH1 0x1 DUP7 ADD SSTORE MLOAD PUSH1 0x2 DUP6 ADD SSTORE MLOAD PUSH1 0x3 DUP5 ADD SSTORE MLOAD ISZERO ISZERO SWAP2 ADD SWAP1 PUSH1 0xFF DUP1 NOT DUP4 SLOAD AND SWAP2 ISZERO ISZERO AND OR SWAP1 SSTORE JUMP JUMPDEST DUP3 DUP3 MSTORE PUSH1 0x4 PUSH1 0x20 MSTORE DUP2 KECCAK256 DUP1 SLOAD SWAP1 PUSH1 0x1 PUSH1 0x40 SHL DUP3 LT ISZERO PUSH2 0x24B5 JUMPI DUP2 PUSH2 0x249C SWAP2 PUSH1 0x1 PUSH32 0xB3C629D160375E0B61916318967BE088F5EC1CB6CF35AA5D7FC07FF1BD14136E SWAP6 SWAP5 ADD DUP2 SSTORE PUSH2 0x1FD1 JUMP JUMPDEST DUP2 SLOAD SWAP1 PUSH1 0x3 SHL SWAP1 DUP7 DUP3 SHL SWAP2 PUSH1 0x0 NOT SWAP1 SHL NOT AND OR SWAP1 SSTORE DUP1 LOG3 JUMP JUMPDEST PUSH4 0x4E487B71 PUSH1 0xE0 SHL DUP4 MSTORE PUSH1 0x41 PUSH1 0x4 MSTORE PUSH1 0x24 DUP4 REVERT JUMPDEST ISZERO PUSH2 0x24D0 JUMPI JUMP JUMPDEST PUSH1 0x40 MLOAD PUSH3 0x461BCD PUSH1 0xE5 SHL DUP2 MSTORE PUSH1 0x20 PUSH1 0x4 DUP3 ADD MSTORE PUSH1 0x12 PUSH1 0x24 DUP3 ADD MSTORE PUSH18 0x141C9BDC1BDCD85B081B9BDD08199BDD5B99 PUSH1 0x72 SHL PUSH1 0x44 DUP3 ADD MSTORE PUSH1 0x64 SWAP1 REVERT JUMPDEST SWAP2 SWAP1 DUP3 ADD DUP1 SWAP3 GT PUSH2 0x2517 JUMPI JUMP JUMPDEST PUSH4 0x4E487B71 PUSH1 0xE0 SHL PUSH1 0x0 MSTORE PUSH1 0x11 PUSH1 0x4 MSTORE PUSH1 0x24 PUSH1 0x0 REVERT JUMPDEST DUP2 DUP2 MUL SWAP3 SWAP2 DUP2 ISZERO SWAP2 DUP5 DIV EQ OR ISZERO PUSH2 0x2517 JUMPI JUMP JUMPDEST SWAP1 PUSH1 0x0 PUSH1 0x20 SWAP2 DUP3 DUP2 MLOAD SWAP2 ADD DUP3 DUP6 GAS CALL ISZERO PUSH2 0x692 JUMPI PUSH1 0x0 MLOAD RETURNDATASIZE PUSH2 0x2593 JUMPI POP PUSH1 0x1 PUSH1 0x1 PUSH1 0xA0 SHL SUB DUP2 AND EXTCODESIZE ISZERO JUMPDEST PUSH2 0x2571 JUMPI POP JUMP JUMPDEST PUSH1 0x40 MLOAD PUSH4 0x5274AFE7 PUSH1 0xE0 SHL DUP2 MSTORE PUSH1 0x1 PUSH1 0x1 PUSH1 0xA0 SHL SUB SWAP1 SWAP2 AND PUSH1 0x4 DUP3 ADD MSTORE PUSH1 0x24 SWAP1 REVERT JUMPDEST PUSH1 0x1 EQ ISZERO PUSH2 0x256A JUMP JUMPDEST SWAP2 SWAP1 DUP3 SUB SWAP2 DUP3 GT PUSH2 0x2517 JUMPI JUMP JUMPDEST PUSH1 0x40 MLOAD PUSH4 0xA9059CBB PUSH1 0xE0 SHL PUSH1 0x20 DUP3 ADD MSTORE PUSH1 0x1 PUSH1 0x1 PUSH1 0xA0 SHL SUB SWAP3 SWAP1 SWAP3 AND PUSH1 0x24 DUP4 ADD MSTORE PUSH1 0x44 DUP1 DUP4 ADD SWAP4 SWAP1 SWAP4 MSTORE SWAP2 DUP2 MSTORE PUSH2 0x25EA SWAP2 PUSH2 0x25E5 PUSH1 0x64 DUP4 PUSH2 0x2023 JUMP JUMPDEST PUSH2 0x2540 JUMP JUMPDEST JUMP JUMPDEST PUSH1 0x0 NOT DUP2 EQ PUSH2 0x2517 JUMPI PUSH1 0x1 ADD SWAP1 JUMP JUMPDEST DUP1 MLOAD DUP3 LT ISZERO PUSH2 0x1674 JUMPI PUSH1 0x20 SWAP2 PUSH1 0x5 SHL ADD ADD SWAP1 JUMP JUMPDEST PUSH1 0x1 PUSH1 0x1 PUSH1 0xA0 SHL SUB SWAP1 SWAP2 AND SWAP1 DUP2 ISZERO PUSH2 0x263E JUMPI PUSH1 0x0 MSTORE PUSH1 0x7 PUSH1 0x20 MSTORE PUSH1 0x40 PUSH1 0x0 KECCAK256 SWAP1 PUSH1 0x0 MSTORE PUSH1 0x20 MSTORE PUSH1 0x40 PUSH1 0x0 KECCAK256 SLOAD SWAP1 JUMP JUMPDEST SWAP1 POP PUSH1 0x0 MSTORE PUSH1 0x8 PUSH1 0x20 MSTORE PUSH1 0x40 PUSH1 0x0 KECCAK256 SLOAD SWAP1 JUMP INVALID LOG2 PUSH5 0x6970667358 0x22 SLT KECCAK256 SWAP1 CALLVALUE SWAP13 0xC PUSH19 0xB2EF4C63843BBF9E748DD2F22063E18D4410AA 0xD DUP3 0xCE 0xB9 DUP2 0xB3 DUP2 0xE6 PUSH5 0x736F6C6343 STOP ADDMOD EQ STOP CALLER 0x2F DUP8 DUP9 GT PUSH31 0x7EFF1D82E926EC794901D17C78024A50270940304540A733656F0D00000000 "},"methodIdentifiers":{"DEFAULT_ADMIN_ROLE()":"a217fddf","EXECUTOR_ROLE()":"07bd0265","SYNDICATE_ADMIN_ROLE()":"f645486a","addMember(bytes32,bytes32,uint256)":"6aeb2545","agentRegistry()":"0d1cfcae","allSyndicateIds(uint256)":"b3e669e5","createSyndicate(bytes32,string,uint256,uint256,uint256,uint256,uint256,bool)":"79bf8606","depositETH(bytes32)":"d68d9d4e","depositToken(bytes32,address,uint256)":"7573cd15","distributeProfits(bytes32,address,uint256)":"3fc72e48","ethTreasury(bytes32)":"6f74d175","executeProposal(bytes32,bytes32)":"d9ceba96","getMemberCount(bytes32)":"93f36bd8","getRoleAdmin(bytes32)":"248a9ca3","getTreasuryBalance(bytes32,address)":"52a404db","grantRole(bytes32,address)":"2f2ff15d","hasRole(bytes32,address)":"91d14854","hasVoted(bytes32,bytes32)":"67aab1d4","memberList(bytes32,uint256)":"78ecbd99","members(bytes32,bytes32)":"a57d2093","proposalCounter(bytes32)":"de6fc80f","proposals(bytes32,bytes32)":"dfb42fd1","renounceRole(bytes32,address)":"36568abe","requestMembership(bytes32,bytes32)":"7fefba90","revokeRole(bytes32,address)":"d547741f","supportsInterface(bytes4)":"01ffc9a7","syndicates(bytes32)":"fc92f5c1","totalSyndicates()":"f9285d43","treasury(bytes32,address)":"1619d61d","vote(bytes32,bytes32,bytes32,bool)":"c8f01eba","withdraw(bytes32,address,address,uint256)":"8e0cc176"}}}}}