{"src/AgentRegistry.sol":{"AgentRegistry":{"abi":[{"inputs":[],"stateMutability":"nonpayable","type":"constructor"},{"inputs":[],"name":"AccessControlBadConfirmation","type":"error"},{"inputs":[{"internalType":"address","name":"account","type":"address"},{"internalType":"bytes32","name":"neededRole","type":"bytes32"}],"name":"AccessControlUnauthorizedAccount","type":"error"},{"inputs":[],"name":"ECDSAInvalidSignature","type":"error"},{"inputs":[{"internalType":"uint256","name":"length","type":"uint256"}],"name":"ECDSAInvalidSignatureLength","type":"error"},{"inputs":[{"internalType":"bytes32","name":"s","type":"bytes32"}],"name":"ECDSAInvalidSignatureS","type":"error"},{"inputs":[],"name":"ReentrancyGuardReentrantCall","type":"error"},{"anonymous":false,"inputs":[{"indexed":true,"internalType":"bytes32","name":"agentId","type":"bytes32"},{"indexed":true,"internalType":"address","name":"owner","type":"address"},{"indexed":false,"internalType":"address","name":"agentWallet","type":"address"},{"indexed":false,"internalType":"enum AgentRegistry.AgentType","name":"agentType","type":"uint8"}],"name":"AgentRegistered","type":"event"},{"anonymous":false,"inputs":[{"indexed":true,"internalType":"bytes32","name":"agentId","type":"bytes32"},{"indexed":false,"internalType":"enum AgentRegistry.AgentStatus","name":"status","type":"uint8"}],"name":"AgentStatusUpdated","type":"event"},{"anonymous":false,"inputs":[{"indexed":true,"internalType":"bytes32","name":"agentId","type":"bytes32"},{"indexed":false,"internalType":"bytes32","name":"attestationHash","type":"bytes32"}],"name":"AttestationUpdated","type":"event"},{"anonymous":false,"inputs":[{"indexed":true,"internalType":"bytes32","name":"agentId","type":"bytes32"},{"indexed":false,"internalType":"string","name":"capability","type":"string"}],"name":"CapabilityAdded","type":"event"},{"anonymous":false,"inputs":[{"indexed":true,"internalType":"bytes32","name":"agentId","type":"bytes32"},{"indexed":false,"internalType":"string","name":"capability","type":"string"}],"name":"CapabilityRemoved","type":"event"},{"anonymous":false,"inputs":[{"indexed":true,"internalType":"bytes32","name":"agentId","type":"bytes32"},{"indexed":false,"internalType":"uint256","name":"newScore","type":"uint256"}],"name":"ReputationUpdated","type":"event"},{"anonymous":false,"inputs":[{"indexed":true,"internalType":"bytes32","name":"role","type":"bytes32"},{"indexed":true,"internalType":"bytes32","name":"previousAdminRole","type":"bytes32"},{"indexed":true,"internalType":"bytes32","name":"newAdminRole","type":"bytes32"}],"name":"RoleAdminChanged","type":"event"},{"anonymous":false,"inputs":[{"indexed":true,"internalType":"bytes32","name":"role","type":"bytes32"},{"indexed":true,"internalType":"address","name":"account","type":"address"},{"indexed":true,"internalType":"address","name":"sender","type":"address"}],"name":"RoleGranted","type":"event"},{"anonymous":false,"inputs":[{"indexed":true,"internalType":"bytes32","name":"role","type":"bytes32"},{"indexed":true,"internalType":"address","name":"account","type":"address"},{"indexed":true,"internalType":"address","name":"sender","type":"address"}],"name":"RoleRevoked","type":"event"},{"inputs":[],"name":"ATTESTATION_EXPIRY","outputs":[{"internalType":"uint256","name":"","type":"uint256"}],"stateMutability":"view","type":"function"},{"inputs":[],"name":"ATTESTATION_VERIFIER_ROLE","outputs":[{"internalType":"bytes32","name":"","type":"bytes32"}],"stateMutability":"view","type":"function"},{"inputs":[],"name":"DEFAULT_ADMIN_ROLE","outputs":[{"internalType":"bytes32","name":"","type":"bytes32"}],"stateMutability":"view","type":"function"},{"inputs":[],"name":"MIN_SYNDICATE_REPUTATION","outputs":[{"internalType":"uint256","name":"","type":"uint256"}],"stateMutability":"view","type":"function"},{"inputs":[],"name":"REGISTRAR_ROLE","outputs":[{"internalType":"bytes32","name":"","type":"bytes32"}],"stateMutability":"view","type":"function"},{"inputs":[],"name":"activeAgentCount","outputs":[{"internalType":"uint256","name":"","type":"uint256"}],"stateMutability":"view","type":"function"},{"inputs":[{"internalType":"bytes32","name":"agentId","type":"bytes32"},{"internalType":"string","name":"capability","type":"string"}],"name":"addCapability","outputs":[],"stateMutability":"nonpayable","type":"function"},{"inputs":[{"internalType":"address","name":"","type":"address"}],"name":"agentIdByWallet","outputs":[{"internalType":"bytes32","name":"","type":"bytes32"}],"stateMutability":"view","type":"function"},{"inputs":[{"internalType":"bytes32","name":"","type":"bytes32"}],"name":"agents","outputs":[{"internalType":"bytes32","name":"agentId","type":"bytes32"},{"internalType":"address","name":"owner","type":"address"},{"internalType":"address payable","name":"agentWallet","type":"address"},{"internalType":"bytes","name":"publicKey","type":"bytes"},{"internalType":"enum AgentRegistry.AgentType","name":"agentType","type":"uint8"},{"internalType":"enum AgentRegistry.AgentStatus","name":"status","type":"uint8"},{"internalType":"uint256","name":"registeredAt","type":"uint256"},{"internalType":"uint256","name":"lastAttestation","type":"uint256"},{"internalType":"bytes32","name":"attestationHash","type":"bytes32"},{"internalType":"uint256","name":"reputationScore","type":"uint256"},{"internalType":"string","name":"metadataURI","type":"string"}],"stateMutability":"view","type":"function"},{"inputs":[{"internalType":"address","name":"","type":"address"},{"internalType":"uint256","name":"","type":"uint256"}],"name":"agentsByOwner","outputs":[{"internalType":"bytes32","name":"","type":"bytes32"}],"stateMutability":"view","type":"function"},{"inputs":[{"internalType":"uint256","name":"","type":"uint256"}],"name":"allAgentIds","outputs":[{"internalType":"bytes32","name":"","type":"bytes32"}],"stateMutability":"view","type":"function"},{"inputs":[{"internalType":"bytes32","name":"agentId","type":"bytes32"}],"name":"getAgent","outputs":[{"internalType":"address","name":"owner","type":"address"},{"internalType":"address","name":"agentWallet","type":"address"},{"internalType":"enum AgentRegistry.AgentType","name":"agentType","type":"uint8"},{"internalType":"enum AgentRegistry.AgentStatus","name":"status","type":"uint8"},{"internalType":"uint256","name":"registeredAt","type":"uint256"},{"internalType":"uint256","name":"reputationScore","type":"uint256"},{"internalType":"bool","name":"attestationValid","type":"bool"}],"stateMutability":"view","type":"function"},{"inputs":[{"internalType":"address","name":"owner","type":"address"}],"name":"getAgentsByOwner","outputs":[{"internalType":"bytes32[]","name":"","type":"bytes32[]"}],"stateMutability":"view","type":"function"},{"inputs":[{"internalType":"bytes32","name":"agentId","type":"bytes32"}],"name":"getCapabilities","outputs":[{"internalType":"string[]","name":"","type":"string[]"}],"stateMutability":"view","type":"function"},{"inputs":[{"internalType":"bytes32","name":"role","type":"bytes32"}],"name":"getRoleAdmin","outputs":[{"internalType":"bytes32","name":"","type":"bytes32"}],"stateMutability":"view","type":"function"},{"inputs":[{"internalType":"bytes32","name":"role","type":"bytes32"},{"internalType":"address","name":"account","type":"address"}],"name":"grantRole","outputs":[],"stateMutability":"nonpayable","type":"function"},{"inputs":[{"internalType":"bytes32","name":"role","type":"bytes32"},{"internalType":"address","name":"account","type":"address"}],"name":"hasRole","outputs":[{"internalType":"bool","name":"","type":"bool"}],"stateMutability":"view","type":"function"},{"inputs":[{"internalType":"bytes32","name":"agentId","type":"bytes32"}],"name":"isAttestationValid","outputs":[{"internalType":"bool","name":"","type":"bool"}],"stateMutability":"view","type":"function"},{"inputs":[{"internalType":"bytes32","name":"agentId","type":"bytes32"}],"name":"isSyndicateEligible","outputs":[{"internalType":"bool","name":"","type":"bool"}],"stateMutability":"view","type":"function"},{"inputs":[{"internalType":"bytes32","name":"agentId","type":"bytes32"},{"internalType":"address payable","name":"agentWallet","type":"address"},{"internalType":"bytes","name":"publicKey","type":"bytes"},{"internalType":"enum AgentRegistry.AgentType","name":"agentType","type":"uint8"},{"internalType":"string[]","name":"capabilities","type":"string[]"},{"internalType":"string","name":"metadataURI","type":"string"}],"name":"registerAgent","outputs":[],"stateMutability":"nonpayable","type":"function"},{"inputs":[{"internalType":"bytes32","name":"role","type":"bytes32"},{"internalType":"address","name":"callerConfirmation","type":"address"}],"name":"renounceRole","outputs":[],"stateMutability":"nonpayable","type":"function"},{"inputs":[{"internalType":"bytes32","name":"role","type":"bytes32"},{"internalType":"address","name":"account","type":"address"}],"name":"revokeRole","outputs":[],"stateMutability":"nonpayable","type":"function"},{"inputs":[{"internalType":"bytes4","name":"interfaceId","type":"bytes4"}],"name":"supportsInterface","outputs":[{"internalType":"bool","name":"","type":"bool"}],"stateMutability":"view","type":"function"},{"inputs":[],"name":"totalAgents","outputs":[{"internalType":"uint256","name":"","type":"uint256"}],"stateMutability":"view","type":"function"},{"inputs":[{"internalType":"bytes32","name":"agentId","type":"bytes32"},{"internalType":"int256","name":"delta","type":"int256"}],"name":"updateReputation","outputs":[],"stateMutability":"nonpayable","type":"function"},{"inputs":[{"internalType":"bytes32","name":"agentId","type":"bytes32"},{"internalType":"enum AgentRegistry.AgentStatus","name":"status","type":"uint8"}],"name":"updateStatus","outputs":[],"stateMutability":"nonpayable","type":"function"},{"inputs":[{"internalType":"bytes32","name":"agentId","type":"bytes32"},{"internalType":"bytes32","name":"attestationHash","type":"bytes32"},{"internalType":"bytes","name":"signature","type":"bytes"}],"name":"verifyAttestation","outputs":[],"stateMutability":"nonpayable","type":"function"}],"evm":{"bytecode":{"linkReferences":{},"object":"608060405234620000425760018055620000193362000047565b506200002533620000c7565b50620000313362000169565b50604051611a929081620002078239f35b600080fd5b6001600160a01b031660008181527fad3228b676f7d3cd4284a5443f17f1962b36e491b30a40b2405849e597ba5fb5602052604081205490919060ff16620000c357818052816020526040822081835260205260408220600160ff19825416179055339160008051602062001c998339815191528180a4600190565b5090565b6001600160a01b031660008181527f01ddc098da42acdf4176da08ec75800bc0fb2bce2be978b2037bcb0ae696651960205260408120549091907fedcc084d3dcd65a1f7f23c65c46722faca6953d28e43150a467cf43e5c3092389060ff166200016457808352826020526040832082845260205260408320600160ff1982541617905560008051602062001c99833981519152339380a4600190565b505090565b6001600160a01b031660008181527f68d8e801f6fa7711cfe52ea661e7062d523ceee5c32eade18290ee5a73f4780360205260408120549091907f365613ab96fef39a9e7934cc5d7c323b2235514c6df4c30831bf2f7b8e6f47049060ff166200016457808352826020526040832082845260205260408320600160ff1982541617905560008051602062001c99833981519152339380a460019056fe608080604052600436101561001357600080fd5b60003560e01c90816301ffc9a7146113e657508063054372ed146112c957806315b1bac7146112ac5780631ab6f888146111f8578063248a9ca3146111c95780632e20ee18146110c15780632f2ff15d1461108257806336568abe1461103b578063383e6f9514610fb55780636a55a85014610f975780636fb98a1314610f2257806376863a1914610ee7578063768eb96f14610e9d578063840f3c0f1461095957806391d148541461090c57806398be7c8d146108d5578063a217fddf146108b9578063a65542ca1461064f578063a6c2af01146105b6578063b53a7dfa146104c0578063bfcf3f9e14610380578063c505371214610362578063d3ef47e81461022b578063d547741f146101ea578063dcc8bd14146101b0578063e30bb563146101885763f68e95531461014857600080fd5b346101835760003660031901126101835760206040517fedcc084d3dcd65a1f7f23c65c46722faca6953d28e43150a467cf43e5c3092388152f35b600080fd5b346101835760203660031901126101835760206101a6600435611a1f565b6040519015158152f35b34610183576020366003190112610183576001600160a01b036101d1611439565b1660005260036020526020604060002054604051908152f35b346101835760403660031901126101835761022960043561020961144f565b9080600052600060205261022460016040600020015461164a565b6116ee565b005b34610183576040366003190112610183573360009081527f01ddc098da42acdf4176da08ec75800bc0fb2bce2be978b2037bcb0ae6966519602052604090205460043590602435907fedcc084d3dcd65a1f7f23c65c46722faca6953d28e43150a467cf43e5c3092389060ff16156103445750816000526002602052600960406000206102bd60058201541515611885565b019081546000828201928312911290801582169115161761032e577f643d988938d60eb0f25f427e235470754905356536009cff1faf041b0e510b2e9160209160008112610326575b6103e880821361031e575b50809155604051908152a2005b905085610311565b506000610306565b634e487b7160e01b600052601160045260246000fd5b6044906040519063e2517d3f60e01b82523360048301526024820152fd5b34610183576000366003190112610183576020600554604051908152f35b346101835760403660031901126101835760043560243567ffffffffffffffff8111610183576103b490369060040161161c565b82600052600260205260406000206103d160058201541515611885565b60018101546001600160a01b0316330361048f576008018054600160401b8110156104795761040591600182018155611604565b6104635782610438837f6f80033091ade88a6aadd795353010f2ed3948866d4895d213607c2006eeb11f956040946117c1565b82825193849260208452816020850152848401376000828201840152601f01601f19168101030190a2005b634e487b7160e01b600052600060045260246000fd5b634e487b7160e01b600052604160045260246000fd5b60405162461bcd60e51b81526020600482015260096024820152682737ba1037bbb732b960b91b6044820152606490fd5b34610183576020806003193601126101835760043560005260028152600860406000200180549067ffffffffffffffff82116104795782906040519261050b838260051b0185611535565b8084528284018092600052836000206000915b8383106105855750505050604051918083019381845251809452604083019360408160051b85010192916000955b8287106105595785850386f35b909192938280610575600193603f198a82030186528851611557565b960192019601959291909261054c565b60018681926040999899516105a58161059e818961149f565b0382611535565b81520192019201919095949561051e565b346101835760203660031901126101835760e0600435806000526002602052604060002060018060a01b0391826001830154169260028301541691600481015460ff8082169160081c16906106146009600585015494015494611a1f565b94604051968752602087015261062981611597565b604086015261063781611597565b6060850152608084015260a0830152151560c0820152f35b346101835760603660031901126101835760043567ffffffffffffffff6024356044358281116101835761068790369060040161161c565b3360009081527f68d8e801f6fa7711cfe52ea661e7062d523ceee5c32eade18290ee5a73f478036020908152604090912054909492917f365613ab96fef39a9e7934cc5d7c323b2235514c6df4c30831bf2f7b8e6f47049160ff161561089a57866000526002865260406000209361070460058601541515611885565b6040519087820191898352876040820152604081526060810192818410838511176104795783604052815190207f19457468657265756d205369676e6564204d6573736167653a0a333200000000600052601c52603c60002091841161047957610777601f8501601f19168a0184611535565b8383523684870111610183576080848261079d966107a6998460009601370101526118c8565b90939193611994565b600090815280855260408082206001600160a01b039093168252918552205460ff161561086157906004828260077ff548ca5d6537e427ed352f10ca2a443db16b5f063a752dd31e215d42c53b0cf49695015542600682015501805460ff8160081c1661081281611597565b15610823575b5050604051908152a2005b6101009061ff001916179055837f8f95c0fce60bbce52c2737b54ae071e31a6a9c014da368d5a38632f2d502d5368360405160018152a28480610818565b60405162461bcd60e51b8152600481018490526011602482015270496e76616c6964207369676e617475726560781b6044820152606490fd5b60405163e2517d3f60e01b815233600482015260248101839052604490fd5b3461018357600036600319011261018357602060405160008152f35b3461018357602036600319011261018357600435600554811015610183576108fe6020916115b7565b90546040519160031b1c8152f35b346101835760403660031901126101835761092561144f565b600435600052600060205260406000209060018060a01b0316600052602052602060ff604060002054166040519015158152f35b346101835760c0366003190112610183576024356001600160a01b03811681036101835760443567ffffffffffffffff81116101835761099d90369060040161161c565b600460649392933510156101835767ffffffffffffffff60843511610183573660236084350112156101835767ffffffffffffffff6084356004013511610183573660246084356004013560051b6084350101116101835760a43567ffffffffffffffff811161018357610a1590369060040161161c565b91600260015414610e8b5760026001556004356000526002602052600560406000200154610e46576001600160a01b038416600090815260036020526040902054610e0b5760208103610dc65760043560008181526002602081905260409091209182556001820180546001600160a01b0319908116331790915590820180549091166001600160a01b0387161790559467ffffffffffffffff8211610479578190610ad182610ac860038a0154611465565b60038a0161177a565b600090601f8311600114610d5557600092610d4a575b50508160011b916000199060031b1c19161760038501555b60048401610b0e606435611597565b805461ffff191660643560ff161790554260058501556000600685018190556007850155600160401b6004608435013511610479576008840180546004608435013591829055908111610ccc575b50602460843501600885016000526020600020906000905b608435600401358210610c7757505050600a8460646009610b9896970155016117c1565b60018060a01b03811660005260036020526004356040600020553360005260046020526040600020805490600160401b8210156104795781610be2916001610bfe94018155611604565b6004929192359083549060031b91821b91600019901b19161790565b9055600554600160401b81101561047957610be2816001610c2293016005556115b7565b90556040516001600160a01b039091168152610c3f606435611597565b606435602082015233907f35714739a0ba98fddbe7f2ef4af04402f3cf8a615bcd4e9492ad37fdc514453d604060043592a360018055005b8035608435360360421901811215610183576084350160248101359067ffffffffffffffff82116101835760440190803603821361018357600192610cc06020928594886117c1565b01930191019091610b74565b600885016000526020600020906084356004013582015b8183018110610cf3575050610b5c565b80610d0060019254611465565b80610d0d575b5001610ce3565b601f81118314610d235750600081555b88610d06565b600090828252610d41601f60208420920160051c8201858301611763565b81835555610d1d565b013590508680610ae7565b909250600387016000526020600020906000935b601f1984168510610dae576001945083601f19811610610d94575b505050811b016003850155610aff565b0135600019600384901b60f8161c19169055868080610d84565b81810135835560209485019460019093019201610d69565b60405162461bcd60e51b815260206004820152601960248201527f496e76616c6964207075626c6963206b6579206c656e677468000000000000006044820152606490fd5b60405162461bcd60e51b815260206004820152601360248201527215d85b1b195d08185b1c9958591e481d5cd959606a1b6044820152606490fd5b60405162461bcd60e51b815260206004820152601860248201527f4167656e7420616c7265616479207265676973746572656400000000000000006044820152606490fd5b604051633ee5aeb560e01b8152600490fd5b3461018357604036600319011261018357610eb6611439565b6001600160a01b0316600090815260046020526040902080546024359190821015610183576020916108fe91611604565b346101835760003660031901126101835760206040517f365613ab96fef39a9e7934cc5d7c323b2235514c6df4c30831bf2f7b8e6f47048152f35b346101835760203660031901126101835760206004358060005260028252604060002090600160ff600484015460081c16610f5c81611597565b149182610f86575b5081610f76575b506040519015158152f35b610f809150611a1f565b82610f6b565b6009015461012c1115915083610f64565b34610183576000366003190112610183576020604051620151808152f35b3461018357600036600319011261018357600080600554905b818110610fe057602083604051908152f35b610fe9816115b7565b90549060031b1c6000526002602052600160ff60046040600020015460081c1661101281611597565b14611026575b61102190611a4d565b610fce565b9161103361102191611a4d565b929050611018565b346101835760403660031901126101835761105461144f565b336001600160a01b0382160361107057610229906004356116ee565b60405163334bd91960e11b8152600490fd5b34610183576040366003190112610183576102296004356110a161144f565b908060005260006020526110bc60016040600020015461164a565b611670565b34610183576020366003190112610183576004356000526002602052604060002080546111c560018060a01b0392600a8460018301541694600283015416916040519261111c84611115816003860161149f565b0385611535565b60048201549360ff8086169560081c1660058401549061118460068601549360078701549561116160098901549861115a604051809c81930161149f565b038a611535565b6040519c8d9c8d5260208d015260408c01526101608060608d01528b0190611557565b9661118e81611597565b60808a015261119c81611597565b60a089015260c088015260e0870152610100860152610120850152838203610140850152611557565b0390f35b346101835760203660031901126101835760043560005260006020526020600160406000200154604051908152f35b3461018357602080600319360112610183576001600160a01b0361121a611439565b1660005260048152604060002060405190818382549182815201908192600052846000209060005b8682821061129857868661125882880383611535565b604051928392818401908285525180915260408401929160005b82811061128157505050500390f35b835185528695509381019392810192600101611272565b835485529093019260019283019201611242565b3461018357600036600319011261018357602060405161012c8152f35b3461018357604036600319011261018357600435602435600481101561018357816000526002602052604060002061130660058201541515611885565b60018101546001600160a01b0316331480156113ae575b15611378577f8f95c0fce60bbce52c2737b54ae071e31a6a9c014da368d5a38632f2d502d5369160046020920161135382611597565b805461ff001916600883901b61ff00161790556040519061137381611597565b8152a2005b60405162461bcd60e51b815260206004820152600e60248201526d139bdd08185d5d1a1bdc9a5e995960921b6044820152606490fd5b503360009081527fad3228b676f7d3cd4284a5443f17f1962b36e491b30a40b2405849e597ba5fb5602052604090205460ff1661131d565b34610183576020366003190112610183576004359063ffffffff60e01b821680920361018357602091637965db0b60e01b8114908115611428575b5015158152f35b6301ffc9a760e01b14905083611421565b600435906001600160a01b038216820361018357565b602435906001600160a01b038216820361018357565b90600182811c92168015611495575b602083101461147f57565b634e487b7160e01b600052602260045260246000fd5b91607f1691611474565b90600092918054916114b083611465565b91828252600193848116908160001461151257506001146114d2575b50505050565b90919394506000526020928360002092846000945b8386106114fe5750505050010190388080806114cc565b8054858701830152940193859082016114e7565b9294505050602093945060ff191683830152151560051b010190388080806114cc565b90601f8019910116810190811067ffffffffffffffff82111761047957604052565b919082519283825260005b848110611583575050826000602080949584010152601f8019910116010190565b602081830181015184830182015201611562565b600411156115a157565b634e487b7160e01b600052602160045260246000fd5b6005548110156115ee5760056000527f036b6384b5eca791c62761152d0c79bb0604c104a5fb6f4eb0703f3154bb3db00190600090565b634e487b7160e01b600052603260045260246000fd5b80548210156115ee5760005260206000200190600090565b9181601f840112156101835782359167ffffffffffffffff8311610183576020838186019501011161018357565b80600052600060205260406000203360005260205260ff60406000205416156103445750565b9060009180835282602052604083209160018060a01b03169182845260205260ff604084205416156000146116e957808352826020526040832082845260205260408320600160ff198254161790557f2f8788117e7eff1d82e926ec794901d17c78024a50270940304540a733656f0d339380a4600190565b505090565b9060009180835282602052604083209160018060a01b03169182845260205260ff6040842054166000146116e95780835282602052604083208284526020526040832060ff1981541690557ff6391f5c32d9c69d2a47ea670b442974b53935d1edc7fd64eb21e047a839171b339380a4600190565b81811061176e575050565b60008155600101611763565b9190601f811161178957505050565b6117b5926000526020600020906020601f840160051c830193106117b7575b601f0160051c0190611763565b565b90915081906117a8565b90929167ffffffffffffffff8111610479576117e7816117e18454611465565b8461177a565b6000601f82116001146118215781929394600092611816575b50508160011b916000199060031b1c1916179055565b013590503880611800565b601f198216948382526020918281209281905b88821061186d57505083600195969710611853575b505050811b019055565b0135600019600384901b60f8161c19169055388080611849565b80600184968294958701358155019501920190611834565b1561188c57565b60405162461bcd60e51b81526020600482015260146024820152731059d95b9d081b9bdd081c9959da5cdd195c995960621b6044820152606490fd5b81519190604183036118f9576118f292506020820151906060604084015193015160001a90611904565b9192909190565b505060009160029190565b91907f7fffffffffffffffffffffffffffffff5d576e7357a4501ddfe92f46681b20a0841161198857926020929160ff608095604051948552168484015260408301526060820152600092839182805260015afa1561197c5780516001600160a01b0381161561197357918190565b50809160019190565b604051903d90823e3d90fd5b50505060009160039190565b61199d81611597565b806119a6575050565b6119af81611597565b600181036119c95760405163f645eedf60e01b8152600490fd5b6119d281611597565b600281036119f35760405163fce698f760e01b815260048101839052602490fd5b806119ff600392611597565b14611a075750565b602490604051906335e2f38360e21b82526004820152fd5b60005260026020526006604060002001548015611a4757420342811161032e57620151801190565b50600090565b600019811461032e576001019056fea2646970667358221220db9401138399004ffc721e0508ce836b53ee3f897d376ff5c8208bef37dd2f8c64736f6c634300081400332f8788117e7eff1d82e926ec794901d17c78024a50270940304540a733656f0d","opcodes":"PUSH1 0x80 PUSH1 0x40 MSTORE CALLVALUE PUSH3 0x42 JUMPI PUSH1 0x1 DUP1 SSTORE PUSH3 0x19 CALLER PUSH3 0x47 JUMP JUMPDEST POP PUSH3 0x25 CALLER PUSH3 0xC7 JUMP JUMPDEST POP PUSH3 0x31 CALLER PUSH3 0x169 JUMP JUMPDEST POP PUSH1 0x40 MLOAD PUSH2 0x1A92 SWAP1 DUP2 PUSH3 0x207 DUP3 CODECOPY RETURN JUMPDEST PUSH1 0x0 DUP1 REVERT JUMPDEST PUSH1 0x1 PUSH1 0x1 PUSH1 0xA0 SHL SUB AND PUSH1 0x0 DUP2 DUP2 MSTORE PUSH32 0xAD3228B676F7D3CD4284A5443F17F1962B36E491B30A40B2405849E597BA5FB5 PUSH1 0x20 MSTORE PUSH1 0x40 DUP2 KECCAK256 SLOAD SWAP1 SWAP2 SWAP1 PUSH1 0xFF AND PUSH3 0xC3 JUMPI DUP2 DUP1 MSTORE DUP2 PUSH1 0x20 MSTORE PUSH1 0x40 DUP3 KECCAK256 DUP2 DUP4 MSTORE PUSH1 0x20 MSTORE PUSH1 0x40 DUP3 KECCAK256 PUSH1 0x1 PUSH1 0xFF NOT DUP3 SLOAD AND OR SWAP1 SSTORE CALLER SWAP2 PUSH1 0x0 DUP1 MLOAD PUSH1 0x20 PUSH3 0x1C99 DUP4 CODECOPY DUP2 MLOAD SWAP2 MSTORE DUP2 DUP1 LOG4 PUSH1 0x1 SWAP1 JUMP JUMPDEST POP SWAP1 JUMP JUMPDEST PUSH1 0x1 PUSH1 0x1 PUSH1 0xA0 SHL SUB AND PUSH1 0x0 DUP2 DUP2 MSTORE PUSH32 0x1DDC098DA42ACDF4176DA08EC75800BC0FB2BCE2BE978B2037BCB0AE6966519 PUSH1 0x20 MSTORE PUSH1 0x40 DUP2 KECCAK256 SLOAD SWAP1 SWAP2 SWAP1 PUSH32 0xEDCC084D3DCD65A1F7F23C65C46722FACA6953D28E43150A467CF43E5C309238 SWAP1 PUSH1 0xFF AND PUSH3 0x164 JUMPI DUP1 DUP4 MSTORE DUP3 PUSH1 0x20 MSTORE PUSH1 0x40 DUP4 KECCAK256 DUP3 DUP5 MSTORE PUSH1 0x20 MSTORE PUSH1 0x40 DUP4 KECCAK256 PUSH1 0x1 PUSH1 0xFF NOT DUP3 SLOAD AND OR SWAP1 SSTORE PUSH1 0x0 DUP1 MLOAD PUSH1 0x20 PUSH3 0x1C99 DUP4 CODECOPY DUP2 MLOAD SWAP2 MSTORE CALLER SWAP4 DUP1 LOG4 PUSH1 0x1 SWAP1 JUMP JUMPDEST POP POP SWAP1 JUMP JUMPDEST PUSH1 0x1 PUSH1 0x1 PUSH1 0xA0 SHL SUB AND PUSH1 0x0 DUP2 DUP2 MSTORE PUSH32 0x68D8E801F6FA7711CFE52EA661E7062D523CEEE5C32EADE18290EE5A73F47803 PUSH1 0x20 MSTORE PUSH1 0x40 DUP2 KECCAK256 SLOAD SWAP1 SWAP2 SWAP1 PUSH32 0x365613AB96FEF39A9E7934CC5D7C323B2235514C6DF4C30831BF2F7B8E6F4704 SWAP1 PUSH1 0xFF AND PUSH3 0x164 JUMPI DUP1 DUP4 MSTORE DUP3 PUSH1 0x20 MSTORE PUSH1 0x40 DUP4 KECCAK256 DUP3 DUP5 MSTORE PUSH1 0x20 MSTORE PUSH1 0x40 DUP4 KECCAK256 PUSH1 0x1 PUSH1 0xFF NOT DUP3 SLOAD AND OR SWAP1 SSTORE PUSH1 0x0 DUP1 MLOAD PUSH1 0x20 PUSH3 0x1C99 DUP4 CODECOPY DUP2 MLOAD SWAP2 MSTORE CALLER SWAP4 DUP1 LOG4 PUSH1 0x1 SWAP1 JUMP INVALID PUSH1 0x80 DUP1 PUSH1 0x40 MSTORE PUSH1 0x4 CALLDATASIZE LT ISZERO PUSH2 0x13 JUMPI PUSH1 0x0 DUP1 REVERT JUMPDEST PUSH1 0x0 CALLDATALOAD PUSH1 0xE0 SHR SWAP1 DUP2 PUSH4 0x1FFC9A7 EQ PUSH2 0x13E6 JUMPI POP DUP1 PUSH4 0x54372ED EQ PUSH2 0x12C9 JUMPI DUP1 PUSH4 0x15B1BAC7 EQ PUSH2 0x12AC JUMPI DUP1 PUSH4 0x1AB6F888 EQ PUSH2 0x11F8 JUMPI DUP1 PUSH4 0x248A9CA3 EQ PUSH2 0x11C9 JUMPI DUP1 PUSH4 0x2E20EE18 EQ PUSH2 0x10C1 JUMPI DUP1 PUSH4 0x2F2FF15D EQ PUSH2 0x1082 JUMPI DUP1 PUSH4 0x36568ABE EQ PUSH2 0x103B JUMPI DUP1 PUSH4 0x383E6F95 EQ PUSH2 0xFB5 JUMPI DUP1 PUSH4 0x6A55A850 EQ PUSH2 0xF97 JUMPI DUP1 PUSH4 0x6FB98A13 EQ PUSH2 0xF22 JUMPI DUP1 PUSH4 0x76863A19 EQ PUSH2 0xEE7 JUMPI DUP1 PUSH4 0x768EB96F EQ PUSH2 0xE9D JUMPI DUP1 PUSH4 0x840F3C0F EQ PUSH2 0x959 JUMPI DUP1 PUSH4 0x91D14854 EQ PUSH2 0x90C JUMPI DUP1 PUSH4 0x98BE7C8D EQ PUSH2 0x8D5 JUMPI DUP1 PUSH4 0xA217FDDF EQ PUSH2 0x8B9 JUMPI DUP1 PUSH4 0xA65542CA EQ PUSH2 0x64F JUMPI DUP1 PUSH4 0xA6C2AF01 EQ PUSH2 0x5B6 JUMPI DUP1 PUSH4 0xB53A7DFA EQ PUSH2 0x4C0 JUMPI DUP1 PUSH4 0xBFCF3F9E EQ PUSH2 0x380 JUMPI DUP1 PUSH4 0xC5053712 EQ PUSH2 0x362 JUMPI DUP1 PUSH4 0xD3EF47E8 EQ PUSH2 0x22B JUMPI DUP1 PUSH4 0xD547741F EQ PUSH2 0x1EA JUMPI DUP1 PUSH4 0xDCC8BD14 EQ PUSH2 0x1B0 JUMPI DUP1 PUSH4 0xE30BB563 EQ PUSH2 0x188 JUMPI PUSH4 0xF68E9553 EQ PUSH2 0x148 JUMPI PUSH1 0x0 DUP1 REVERT JUMPDEST CALLVALUE PUSH2 0x183 JUMPI PUSH1 0x0 CALLDATASIZE PUSH1 0x3 NOT ADD SLT PUSH2 0x183 JUMPI PUSH1 0x20 PUSH1 0x40 MLOAD PUSH32 0xEDCC084D3DCD65A1F7F23C65C46722FACA6953D28E43150A467CF43E5C309238 DUP2 MSTORE RETURN JUMPDEST PUSH1 0x0 DUP1 REVERT JUMPDEST CALLVALUE PUSH2 0x183 JUMPI PUSH1 0x20 CALLDATASIZE PUSH1 0x3 NOT ADD SLT PUSH2 0x183 JUMPI PUSH1 0x20 PUSH2 0x1A6 PUSH1 0x4 CALLDATALOAD PUSH2 0x1A1F JUMP JUMPDEST PUSH1 0x40 MLOAD SWAP1 ISZERO ISZERO DUP2 MSTORE RETURN JUMPDEST CALLVALUE PUSH2 0x183 JUMPI PUSH1 0x20 CALLDATASIZE PUSH1 0x3 NOT ADD SLT PUSH2 0x183 JUMPI PUSH1 0x1 PUSH1 0x1 PUSH1 0xA0 SHL SUB PUSH2 0x1D1 PUSH2 0x1439 JUMP JUMPDEST AND PUSH1 0x0 MSTORE PUSH1 0x3 PUSH1 0x20 MSTORE PUSH1 0x20 PUSH1 0x40 PUSH1 0x0 KECCAK256 SLOAD PUSH1 0x40 MLOAD SWAP1 DUP2 MSTORE RETURN JUMPDEST CALLVALUE PUSH2 0x183 JUMPI PUSH1 0x40 CALLDATASIZE PUSH1 0x3 NOT ADD SLT PUSH2 0x183 JUMPI PUSH2 0x229 PUSH1 0x4 CALLDATALOAD PUSH2 0x209 PUSH2 0x144F JUMP JUMPDEST SWAP1 DUP1 PUSH1 0x0 MSTORE PUSH1 0x0 PUSH1 0x20 MSTORE PUSH2 0x224 PUSH1 0x1 PUSH1 0x40 PUSH1 0x0 KECCAK256 ADD SLOAD PUSH2 0x164A JUMP JUMPDEST PUSH2 0x16EE JUMP JUMPDEST STOP JUMPDEST CALLVALUE PUSH2 0x183 JUMPI PUSH1 0x40 CALLDATASIZE PUSH1 0x3 NOT ADD SLT PUSH2 0x183 JUMPI CALLER PUSH1 0x0 SWAP1 DUP2 MSTORE PUSH32 0x1DDC098DA42ACDF4176DA08EC75800BC0FB2BCE2BE978B2037BCB0AE6966519 PUSH1 0x20 MSTORE PUSH1 0x40 SWAP1 KECCAK256 SLOAD PUSH1 0x4 CALLDATALOAD SWAP1 PUSH1 0x24 CALLDATALOAD SWAP1 PUSH32 0xEDCC084D3DCD65A1F7F23C65C46722FACA6953D28E43150A467CF43E5C309238 SWAP1 PUSH1 0xFF AND ISZERO PUSH2 0x344 JUMPI POP DUP2 PUSH1 0x0 MSTORE PUSH1 0x2 PUSH1 0x20 MSTORE PUSH1 0x9 PUSH1 0x40 PUSH1 0x0 KECCAK256 PUSH2 0x2BD PUSH1 0x5 DUP3 ADD SLOAD ISZERO ISZERO PUSH2 0x1885 JUMP JUMPDEST ADD SWAP1 DUP2 SLOAD PUSH1 0x0 DUP3 DUP3 ADD SWAP3 DUP4 SLT SWAP2 SLT SWAP1 DUP1 ISZERO DUP3 AND SWAP2 ISZERO AND OR PUSH2 0x32E JUMPI PUSH32 0x643D988938D60EB0F25F427E235470754905356536009CFF1FAF041B0E510B2E SWAP2 PUSH1 0x20 SWAP2 PUSH1 0x0 DUP2 SLT PUSH2 0x326 JUMPI JUMPDEST PUSH2 0x3E8 DUP1 DUP3 SGT PUSH2 0x31E JUMPI JUMPDEST POP DUP1 SWAP2 SSTORE PUSH1 0x40 MLOAD SWAP1 DUP2 MSTORE LOG2 STOP JUMPDEST SWAP1 POP DUP6 PUSH2 0x311 JUMP JUMPDEST POP PUSH1 0x0 PUSH2 0x306 JUMP JUMPDEST PUSH4 0x4E487B71 PUSH1 0xE0 SHL PUSH1 0x0 MSTORE PUSH1 0x11 PUSH1 0x4 MSTORE PUSH1 0x24 PUSH1 0x0 REVERT JUMPDEST PUSH1 0x44 SWAP1 PUSH1 0x40 MLOAD SWAP1 PUSH4 0xE2517D3F PUSH1 0xE0 SHL DUP3 MSTORE CALLER PUSH1 0x4 DUP4 ADD MSTORE PUSH1 0x24 DUP3 ADD MSTORE REVERT JUMPDEST CALLVALUE PUSH2 0x183 JUMPI PUSH1 0x0 CALLDATASIZE PUSH1 0x3 NOT ADD SLT PUSH2 0x183 JUMPI PUSH1 0x20 PUSH1 0x5 SLOAD PUSH1 0x40 MLOAD SWAP1 DUP2 MSTORE RETURN JUMPDEST CALLVALUE PUSH2 0x183 JUMPI PUSH1 0x40 CALLDATASIZE PUSH1 0x3 NOT ADD SLT PUSH2 0x183 JUMPI PUSH1 0x4 CALLDATALOAD PUSH1 0x24 CALLDATALOAD PUSH8 0xFFFFFFFFFFFFFFFF DUP2 GT PUSH2 0x183 JUMPI PUSH2 0x3B4 SWAP1 CALLDATASIZE SWAP1 PUSH1 0x4 ADD PUSH2 0x161C JUMP JUMPDEST DUP3 PUSH1 0x0 MSTORE PUSH1 0x2 PUSH1 0x20 MSTORE PUSH1 0x40 PUSH1 0x0 KECCAK256 PUSH2 0x3D1 PUSH1 0x5 DUP3 ADD SLOAD ISZERO ISZERO PUSH2 0x1885 JUMP JUMPDEST PUSH1 0x1 DUP2 ADD SLOAD PUSH1 0x1 PUSH1 0x1 PUSH1 0xA0 SHL SUB AND CALLER SUB PUSH2 0x48F JUMPI PUSH1 0x8 ADD DUP1 SLOAD PUSH1 0x1 PUSH1 0x40 SHL DUP2 LT ISZERO PUSH2 0x479 JUMPI PUSH2 0x405 SWAP2 PUSH1 0x1 DUP3 ADD DUP2 SSTORE PUSH2 0x1604 JUMP JUMPDEST PUSH2 0x463 JUMPI DUP3 PUSH2 0x438 DUP4 PUSH32 0x6F80033091ADE88A6AADD795353010F2ED3948866D4895D213607C2006EEB11F SWAP6 PUSH1 0x40 SWAP5 PUSH2 0x17C1 JUMP JUMPDEST DUP3 DUP3 MLOAD SWAP4 DUP5 SWAP3 PUSH1 0x20 DUP5 MSTORE DUP2 PUSH1 0x20 DUP6 ADD MSTORE DUP5 DUP5 ADD CALLDATACOPY PUSH1 0x0 DUP3 DUP3 ADD DUP5 ADD MSTORE PUSH1 0x1F ADD PUSH1 0x1F NOT AND DUP2 ADD SUB ADD SWAP1 LOG2 STOP JUMPDEST PUSH4 0x4E487B71 PUSH1 0xE0 SHL PUSH1 0x0 MSTORE PUSH1 0x0 PUSH1 0x4 MSTORE PUSH1 0x24 PUSH1 0x0 REVERT JUMPDEST PUSH4 0x4E487B71 PUSH1 0xE0 SHL PUSH1 0x0 MSTORE PUSH1 0x41 PUSH1 0x4 MSTORE PUSH1 0x24 PUSH1 0x0 REVERT JUMPDEST PUSH1 0x40 MLOAD PUSH3 0x461BCD PUSH1 0xE5 SHL DUP2 MSTORE PUSH1 0x20 PUSH1 0x4 DUP3 ADD MSTORE PUSH1 0x9 PUSH1 0x24 DUP3 ADD MSTORE PUSH9 0x2737BA1037BBB732B9 PUSH1 0xB9 SHL PUSH1 0x44 DUP3 ADD MSTORE PUSH1 0x64 SWAP1 REVERT JUMPDEST CALLVALUE PUSH2 0x183 JUMPI PUSH1 0x20 DUP1 PUSH1 0x3 NOT CALLDATASIZE ADD SLT PUSH2 0x183 JUMPI PUSH1 0x4 CALLDATALOAD PUSH1 0x0 MSTORE PUSH1 0x2 DUP2 MSTORE PUSH1 0x8 PUSH1 0x40 PUSH1 0x0 KECCAK256 ADD DUP1 SLOAD SWAP1 PUSH8 0xFFFFFFFFFFFFFFFF DUP3 GT PUSH2 0x479 JUMPI DUP3 SWAP1 PUSH1 0x40 MLOAD SWAP3 PUSH2 0x50B DUP4 DUP3 PUSH1 0x5 SHL ADD DUP6 PUSH2 0x1535 JUMP JUMPDEST DUP1 DUP5 MSTORE DUP3 DUP5 ADD DUP1 SWAP3 PUSH1 0x0 MSTORE DUP4 PUSH1 0x0 KECCAK256 PUSH1 0x0 SWAP2 JUMPDEST DUP4 DUP4 LT PUSH2 0x585 JUMPI POP POP POP POP PUSH1 0x40 MLOAD SWAP2 DUP1 DUP4 ADD SWAP4 DUP2 DUP5 MSTORE MLOAD DUP1 SWAP5 MSTORE PUSH1 0x40 DUP4 ADD SWAP4 PUSH1 0x40 DUP2 PUSH1 0x5 SHL DUP6 ADD ADD SWAP3 SWAP2 PUSH1 0x0 SWAP6 JUMPDEST DUP3 DUP8 LT PUSH2 0x559 JUMPI DUP6 DUP6 SUB DUP7 RETURN JUMPDEST SWAP1 SWAP2 SWAP3 SWAP4 DUP3 DUP1 PUSH2 0x575 PUSH1 0x1 SWAP4 PUSH1 0x3F NOT DUP11 DUP3 SUB ADD DUP7 MSTORE DUP9 MLOAD PUSH2 0x1557 JUMP JUMPDEST SWAP7 ADD SWAP3 ADD SWAP7 ADD SWAP6 SWAP3 SWAP2 SWAP1 SWAP3 PUSH2 0x54C JUMP JUMPDEST PUSH1 0x1 DUP7 DUP2 SWAP3 PUSH1 0x40 SWAP10 SWAP9 SWAP10 MLOAD PUSH2 0x5A5 DUP2 PUSH2 0x59E DUP2 DUP10 PUSH2 0x149F JUMP JUMPDEST SUB DUP3 PUSH2 0x1535 JUMP JUMPDEST DUP2 MSTORE ADD SWAP3 ADD SWAP3 ADD SWAP2 SWAP1 SWAP6 SWAP5 SWAP6 PUSH2 0x51E JUMP JUMPDEST CALLVALUE PUSH2 0x183 JUMPI PUSH1 0x20 CALLDATASIZE PUSH1 0x3 NOT ADD SLT PUSH2 0x183 JUMPI PUSH1 0xE0 PUSH1 0x4 CALLDATALOAD DUP1 PUSH1 0x0 MSTORE PUSH1 0x2 PUSH1 0x20 MSTORE PUSH1 0x40 PUSH1 0x0 KECCAK256 PUSH1 0x1 DUP1 PUSH1 0xA0 SHL SUB SWAP2 DUP3 PUSH1 0x1 DUP4 ADD SLOAD AND SWAP3 PUSH1 0x2 DUP4 ADD SLOAD AND SWAP2 PUSH1 0x4 DUP2 ADD SLOAD PUSH1 0xFF DUP1 DUP3 AND SWAP2 PUSH1 0x8 SHR AND SWAP1 PUSH2 0x614 PUSH1 0x9 PUSH1 0x5 DUP6 ADD SLOAD SWAP5 ADD SLOAD SWAP5 PUSH2 0x1A1F JUMP JUMPDEST SWAP5 PUSH1 0x40 MLOAD SWAP7 DUP8 MSTORE PUSH1 0x20 DUP8 ADD MSTORE PUSH2 0x629 DUP2 PUSH2 0x1597 JUMP JUMPDEST PUSH1 0x40 DUP7 ADD MSTORE PUSH2 0x637 DUP2 PUSH2 0x1597 JUMP JUMPDEST PUSH1 0x60 DUP6 ADD MSTORE PUSH1 0x80 DUP5 ADD MSTORE PUSH1 0xA0 DUP4 ADD MSTORE ISZERO ISZERO PUSH1 0xC0 DUP3 ADD MSTORE RETURN JUMPDEST CALLVALUE PUSH2 0x183 JUMPI PUSH1 0x60 CALLDATASIZE PUSH1 0x3 NOT ADD SLT PUSH2 0x183 JUMPI PUSH1 0x4 CALLDATALOAD PUSH8 0xFFFFFFFFFFFFFFFF PUSH1 0x24 CALLDATALOAD PUSH1 0x44 CALLDATALOAD DUP3 DUP2 GT PUSH2 0x183 JUMPI PUSH2 0x687 SWAP1 CALLDATASIZE SWAP1 PUSH1 0x4 ADD PUSH2 0x161C JUMP JUMPDEST CALLER PUSH1 0x0 SWAP1 DUP2 MSTORE PUSH32 0x68D8E801F6FA7711CFE52EA661E7062D523CEEE5C32EADE18290EE5A73F47803 PUSH1 0x20 SWAP1 DUP2 MSTORE PUSH1 0x40 SWAP1 SWAP2 KECCAK256 SLOAD SWAP1 SWAP5 SWAP3 SWAP2 PUSH32 0x365613AB96FEF39A9E7934CC5D7C323B2235514C6DF4C30831BF2F7B8E6F4704 SWAP2 PUSH1 0xFF AND ISZERO PUSH2 0x89A JUMPI DUP7 PUSH1 0x0 MSTORE PUSH1 0x2 DUP7 MSTORE PUSH1 0x40 PUSH1 0x0 KECCAK256 SWAP4 PUSH2 0x704 PUSH1 0x5 DUP7 ADD SLOAD ISZERO ISZERO PUSH2 0x1885 JUMP JUMPDEST PUSH1 0x40 MLOAD SWAP1 DUP8 DUP3 ADD SWAP2 DUP10 DUP4 MSTORE DUP8 PUSH1 0x40 DUP3 ADD MSTORE PUSH1 0x40 DUP2 MSTORE PUSH1 0x60 DUP2 ADD SWAP3 DUP2 DUP5 LT DUP4 DUP6 GT OR PUSH2 0x479 JUMPI DUP4 PUSH1 0x40 MSTORE DUP2 MLOAD SWAP1 KECCAK256 PUSH32 0x19457468657265756D205369676E6564204D6573736167653A0A333200000000 PUSH1 0x0 MSTORE PUSH1 0x1C MSTORE PUSH1 0x3C PUSH1 0x0 KECCAK256 SWAP2 DUP5 GT PUSH2 0x479 JUMPI PUSH2 0x777 PUSH1 0x1F DUP6 ADD PUSH1 0x1F NOT AND DUP11 ADD DUP5 PUSH2 0x1535 JUMP JUMPDEST DUP4 DUP4 MSTORE CALLDATASIZE DUP5 DUP8 ADD GT PUSH2 0x183 JUMPI PUSH1 0x80 DUP5 DUP3 PUSH2 0x79D SWAP7 PUSH2 0x7A6 SWAP10 DUP5 PUSH1 0x0 SWAP7 ADD CALLDATACOPY ADD ADD MSTORE PUSH2 0x18C8 JUMP JUMPDEST SWAP1 SWAP4 SWAP2 SWAP4 PUSH2 0x1994 JUMP JUMPDEST PUSH1 0x0 SWAP1 DUP2 MSTORE DUP1 DUP6 MSTORE PUSH1 0x40 DUP1 DUP3 KECCAK256 PUSH1 0x1 PUSH1 0x1 PUSH1 0xA0 SHL SUB SWAP1 SWAP4 AND DUP3 MSTORE SWAP2 DUP6 MSTORE KECCAK256 SLOAD PUSH1 0xFF AND ISZERO PUSH2 0x861 JUMPI SWAP1 PUSH1 0x4 DUP3 DUP3 PUSH1 0x7 PUSH32 0xF548CA5D6537E427ED352F10CA2A443DB16B5F063A752DD31E215D42C53B0CF4 SWAP7 SWAP6 ADD SSTORE TIMESTAMP PUSH1 0x6 DUP3 ADD SSTORE ADD DUP1 SLOAD PUSH1 0xFF DUP2 PUSH1 0x8 SHR AND PUSH2 0x812 DUP2 PUSH2 0x1597 JUMP JUMPDEST ISZERO PUSH2 0x823 JUMPI JUMPDEST POP POP PUSH1 0x40 MLOAD SWAP1 DUP2 MSTORE LOG2 STOP JUMPDEST PUSH2 0x100 SWAP1 PUSH2 0xFF00 NOT AND OR SWAP1 SSTORE DUP4 PUSH32 0x8F95C0FCE60BBCE52C2737B54AE071E31A6A9C014DA368D5A38632F2D502D536 DUP4 PUSH1 0x40 MLOAD PUSH1 0x1 DUP2 MSTORE LOG2 DUP5 DUP1 PUSH2 0x818 JUMP JUMPDEST PUSH1 0x40 MLOAD PUSH3 0x461BCD PUSH1 0xE5 SHL DUP2 MSTORE PUSH1 0x4 DUP2 ADD DUP5 SWAP1 MSTORE PUSH1 0x11 PUSH1 0x24 DUP3 ADD MSTORE PUSH17 0x496E76616C6964207369676E6174757265 PUSH1 0x78 SHL PUSH1 0x44 DUP3 ADD MSTORE PUSH1 0x64 SWAP1 REVERT JUMPDEST PUSH1 0x40 MLOAD PUSH4 0xE2517D3F PUSH1 0xE0 SHL DUP2 MSTORE CALLER PUSH1 0x4 DUP3 ADD MSTORE PUSH1 0x24 DUP2 ADD DUP4 SWAP1 MSTORE PUSH1 0x44 SWAP1 REVERT JUMPDEST CALLVALUE PUSH2 0x183 JUMPI PUSH1 0x0 CALLDATASIZE PUSH1 0x3 NOT ADD SLT PUSH2 0x183 JUMPI PUSH1 0x20 PUSH1 0x40 MLOAD PUSH1 0x0 DUP2 MSTORE RETURN JUMPDEST CALLVALUE PUSH2 0x183 JUMPI PUSH1 0x20 CALLDATASIZE PUSH1 0x3 NOT ADD SLT PUSH2 0x183 JUMPI PUSH1 0x4 CALLDATALOAD PUSH1 0x5 SLOAD DUP2 LT ISZERO PUSH2 0x183 JUMPI PUSH2 0x8FE PUSH1 0x20 SWAP2 PUSH2 0x15B7 JUMP JUMPDEST SWAP1 SLOAD PUSH1 0x40 MLOAD SWAP2 PUSH1 0x3 SHL SHR DUP2 MSTORE RETURN JUMPDEST CALLVALUE PUSH2 0x183 JUMPI PUSH1 0x40 CALLDATASIZE PUSH1 0x3 NOT ADD SLT PUSH2 0x183 JUMPI PUSH2 0x925 PUSH2 0x144F JUMP JUMPDEST PUSH1 0x4 CALLDATALOAD PUSH1 0x0 MSTORE PUSH1 0x0 PUSH1 0x20 MSTORE PUSH1 0x40 PUSH1 0x0 KECCAK256 SWAP1 PUSH1 0x1 DUP1 PUSH1 0xA0 SHL SUB AND PUSH1 0x0 MSTORE PUSH1 0x20 MSTORE PUSH1 0x20 PUSH1 0xFF PUSH1 0x40 PUSH1 0x0 KECCAK256 SLOAD AND PUSH1 0x40 MLOAD SWAP1 ISZERO ISZERO DUP2 MSTORE RETURN JUMPDEST CALLVALUE PUSH2 0x183 JUMPI PUSH1 0xC0 CALLDATASIZE PUSH1 0x3 NOT ADD SLT PUSH2 0x183 JUMPI PUSH1 0x24 CALLDATALOAD PUSH1 0x1 PUSH1 0x1 PUSH1 0xA0 SHL SUB DUP2 AND DUP2 SUB PUSH2 0x183 JUMPI PUSH1 0x44 CALLDATALOAD PUSH8 0xFFFFFFFFFFFFFFFF DUP2 GT PUSH2 0x183 JUMPI PUSH2 0x99D SWAP1 CALLDATASIZE SWAP1 PUSH1 0x4 ADD PUSH2 0x161C JUMP JUMPDEST PUSH1 0x4 PUSH1 0x64 SWAP4 SWAP3 SWAP4 CALLDATALOAD LT ISZERO PUSH2 0x183 JUMPI PUSH8 0xFFFFFFFFFFFFFFFF PUSH1 0x84 CALLDATALOAD GT PUSH2 0x183 JUMPI CALLDATASIZE PUSH1 0x23 PUSH1 0x84 CALLDATALOAD ADD SLT ISZERO PUSH2 0x183 JUMPI PUSH8 0xFFFFFFFFFFFFFFFF PUSH1 0x84 CALLDATALOAD PUSH1 0x4 ADD CALLDATALOAD GT PUSH2 0x183 JUMPI CALLDATASIZE PUSH1 0x24 PUSH1 0x84 CALLDATALOAD PUSH1 0x4 ADD CALLDATALOAD PUSH1 0x5 SHL PUSH1 0x84 CALLDATALOAD ADD ADD GT PUSH2 0x183 JUMPI PUSH1 0xA4 CALLDATALOAD PUSH8 0xFFFFFFFFFFFFFFFF DUP2 GT PUSH2 0x183 JUMPI PUSH2 0xA15 SWAP1 CALLDATASIZE SWAP1 PUSH1 0x4 ADD PUSH2 0x161C JUMP JUMPDEST SWAP2 PUSH1 0x2 PUSH1 0x1 SLOAD EQ PUSH2 0xE8B JUMPI PUSH1 0x2 PUSH1 0x1 SSTORE PUSH1 0x4 CALLDATALOAD PUSH1 0x0 MSTORE PUSH1 0x2 PUSH1 0x20 MSTORE PUSH1 0x5 PUSH1 0x40 PUSH1 0x0 KECCAK256 ADD SLOAD PUSH2 0xE46 JUMPI PUSH1 0x1 PUSH1 0x1 PUSH1 0xA0 SHL SUB DUP5 AND PUSH1 0x0 SWAP1 DUP2 MSTORE PUSH1 0x3 PUSH1 0x20 MSTORE PUSH1 0x40 SWAP1 KECCAK256 SLOAD PUSH2 0xE0B JUMPI PUSH1 0x20 DUP2 SUB PUSH2 0xDC6 JUMPI PUSH1 0x4 CALLDATALOAD PUSH1 0x0 DUP2 DUP2 MSTORE PUSH1 0x2 PUSH1 0x20 DUP2 SWAP1 MSTORE PUSH1 0x40 SWAP1 SWAP2 KECCAK256 SWAP2 DUP3 SSTORE PUSH1 0x1 DUP3 ADD DUP1 SLOAD PUSH1 0x1 PUSH1 0x1 PUSH1 0xA0 SHL SUB NOT SWAP1 DUP2 AND CALLER OR SWAP1 SWAP2 SSTORE SWAP1 DUP3 ADD DUP1 SLOAD SWAP1 SWAP2 AND PUSH1 0x1 PUSH1 0x1 PUSH1 0xA0 SHL SUB DUP8 AND OR SWAP1 SSTORE SWAP5 PUSH8 0xFFFFFFFFFFFFFFFF DUP3 GT PUSH2 0x479 JUMPI DUP2 SWAP1 PUSH2 0xAD1 DUP3 PUSH2 0xAC8 PUSH1 0x3 DUP11 ADD SLOAD PUSH2 0x1465 JUMP JUMPDEST PUSH1 0x3 DUP11 ADD PUSH2 0x177A JUMP JUMPDEST PUSH1 0x0 SWAP1 PUSH1 0x1F DUP4 GT PUSH1 0x1 EQ PUSH2 0xD55 JUMPI PUSH1 0x0 SWAP3 PUSH2 0xD4A JUMPI JUMPDEST POP POP DUP2 PUSH1 0x1 SHL SWAP2 PUSH1 0x0 NOT SWAP1 PUSH1 0x3 SHL SHR NOT AND OR PUSH1 0x3 DUP6 ADD SSTORE JUMPDEST PUSH1 0x4 DUP5 ADD PUSH2 0xB0E PUSH1 0x64 CALLDATALOAD PUSH2 0x1597 JUMP JUMPDEST DUP1 SLOAD PUSH2 0xFFFF NOT AND PUSH1 0x64 CALLDATALOAD PUSH1 0xFF AND OR SWAP1 SSTORE TIMESTAMP PUSH1 0x5 DUP6 ADD SSTORE PUSH1 0x0 PUSH1 0x6 DUP6 ADD DUP2 SWAP1 SSTORE PUSH1 0x7 DUP6 ADD SSTORE PUSH1 0x1 PUSH1 0x40 SHL PUSH1 0x4 PUSH1 0x84 CALLDATALOAD ADD CALLDATALOAD GT PUSH2 0x479 JUMPI PUSH1 0x8 DUP5 ADD DUP1 SLOAD PUSH1 0x4 PUSH1 0x84 CALLDATALOAD ADD CALLDATALOAD SWAP2 DUP3 SWAP1 SSTORE SWAP1 DUP2 GT PUSH2 0xCCC JUMPI JUMPDEST POP PUSH1 0x24 PUSH1 0x84 CALLDATALOAD ADD PUSH1 0x8 DUP6 ADD PUSH1 0x0 MSTORE PUSH1 0x20 PUSH1 0x0 KECCAK256 SWAP1 PUSH1 0x0 SWAP1 JUMPDEST PUSH1 0x84 CALLDATALOAD PUSH1 0x4 ADD CALLDATALOAD DUP3 LT PUSH2 0xC77 JUMPI POP POP POP PUSH1 0xA DUP5 PUSH1 0x64 PUSH1 0x9 PUSH2 0xB98 SWAP7 SWAP8 ADD SSTORE ADD PUSH2 0x17C1 JUMP JUMPDEST PUSH1 0x1 DUP1 PUSH1 0xA0 SHL SUB DUP2 AND PUSH1 0x0 MSTORE PUSH1 0x3 PUSH1 0x20 MSTORE PUSH1 0x4 CALLDATALOAD PUSH1 0x40 PUSH1 0x0 KECCAK256 SSTORE CALLER PUSH1 0x0 MSTORE PUSH1 0x4 PUSH1 0x20 MSTORE PUSH1 0x40 PUSH1 0x0 KECCAK256 DUP1 SLOAD SWAP1 PUSH1 0x1 PUSH1 0x40 SHL DUP3 LT ISZERO PUSH2 0x479 JUMPI DUP2 PUSH2 0xBE2 SWAP2 PUSH1 0x1 PUSH2 0xBFE SWAP5 ADD DUP2 SSTORE PUSH2 0x1604 JUMP JUMPDEST PUSH1 0x4 SWAP3 SWAP2 SWAP3 CALLDATALOAD SWAP1 DUP4 SLOAD SWAP1 PUSH1 0x3 SHL SWAP2 DUP3 SHL SWAP2 PUSH1 0x0 NOT SWAP1 SHL NOT AND OR SWAP1 JUMP JUMPDEST SWAP1 SSTORE PUSH1 0x5 SLOAD PUSH1 0x1 PUSH1 0x40 SHL DUP2 LT ISZERO PUSH2 0x479 JUMPI PUSH2 0xBE2 DUP2 PUSH1 0x1 PUSH2 0xC22 SWAP4 ADD PUSH1 0x5 SSTORE PUSH2 0x15B7 JUMP JUMPDEST SWAP1 SSTORE PUSH1 0x40 MLOAD PUSH1 0x1 PUSH1 0x1 PUSH1 0xA0 SHL SUB SWAP1 SWAP2 AND DUP2 MSTORE PUSH2 0xC3F PUSH1 0x64 CALLDATALOAD PUSH2 0x1597 JUMP JUMPDEST PUSH1 0x64 CALLDATALOAD PUSH1 0x20 DUP3 ADD MSTORE CALLER SWAP1 PUSH32 0x35714739A0BA98FDDBE7F2EF4AF04402F3CF8A615BCD4E9492AD37FDC514453D PUSH1 0x40 PUSH1 0x4 CALLDATALOAD SWAP3 LOG3 PUSH1 0x1 DUP1 SSTORE STOP JUMPDEST DUP1 CALLDATALOAD PUSH1 0x84 CALLDATALOAD CALLDATASIZE SUB PUSH1 0x42 NOT ADD DUP2 SLT ISZERO PUSH2 0x183 JUMPI PUSH1 0x84 CALLDATALOAD ADD PUSH1 0x24 DUP2 ADD CALLDATALOAD SWAP1 PUSH8 0xFFFFFFFFFFFFFFFF DUP3 GT PUSH2 0x183 JUMPI PUSH1 0x44 ADD SWAP1 DUP1 CALLDATASIZE SUB DUP3 SGT PUSH2 0x183 JUMPI PUSH1 0x1 SWAP3 PUSH2 0xCC0 PUSH1 0x20 SWAP3 DUP6 SWAP5 DUP9 PUSH2 0x17C1 JUMP JUMPDEST ADD SWAP4 ADD SWAP2 ADD SWAP1 SWAP2 PUSH2 0xB74 JUMP JUMPDEST PUSH1 0x8 DUP6 ADD PUSH1 0x0 MSTORE PUSH1 0x20 PUSH1 0x0 KECCAK256 SWAP1 PUSH1 0x84 CALLDATALOAD PUSH1 0x4 ADD CALLDATALOAD DUP3 ADD JUMPDEST DUP2 DUP4 ADD DUP2 LT PUSH2 0xCF3 JUMPI POP POP PUSH2 0xB5C JUMP JUMPDEST DUP1 PUSH2 0xD00 PUSH1 0x1 SWAP3 SLOAD PUSH2 0x1465 JUMP JUMPDEST DUP1 PUSH2 0xD0D JUMPI JUMPDEST POP ADD PUSH2 0xCE3 JUMP JUMPDEST PUSH1 0x1F DUP2 GT DUP4 EQ PUSH2 0xD23 JUMPI POP PUSH1 0x0 DUP2 SSTORE JUMPDEST DUP9 PUSH2 0xD06 JUMP JUMPDEST PUSH1 0x0 SWAP1 DUP3 DUP3 MSTORE PUSH2 0xD41 PUSH1 0x1F PUSH1 0x20 DUP5 KECCAK256 SWAP3 ADD PUSH1 0x5 SHR DUP3 ADD DUP6 DUP4 ADD PUSH2 0x1763 JUMP JUMPDEST DUP2 DUP4 SSTORE SSTORE PUSH2 0xD1D JUMP JUMPDEST ADD CALLDATALOAD SWAP1 POP DUP7 DUP1 PUSH2 0xAE7 JUMP JUMPDEST SWAP1 SWAP3 POP PUSH1 0x3 DUP8 ADD PUSH1 0x0 MSTORE PUSH1 0x20 PUSH1 0x0 KECCAK256 SWAP1 PUSH1 0x0 SWAP4 JUMPDEST PUSH1 0x1F NOT DUP5 AND DUP6 LT PUSH2 0xDAE JUMPI PUSH1 0x1 SWAP5 POP DUP4 PUSH1 0x1F NOT DUP2 AND LT PUSH2 0xD94 JUMPI JUMPDEST POP POP POP DUP2 SHL ADD PUSH1 0x3 DUP6 ADD SSTORE PUSH2 0xAFF JUMP JUMPDEST ADD CALLDATALOAD PUSH1 0x0 NOT PUSH1 0x3 DUP5 SWAP1 SHL PUSH1 0xF8 AND SHR NOT AND SWAP1 SSTORE DUP7 DUP1 DUP1 PUSH2 0xD84 JUMP JUMPDEST DUP2 DUP2 ADD CALLDATALOAD DUP4 SSTORE PUSH1 0x20 SWAP5 DUP6 ADD SWAP5 PUSH1 0x1 SWAP1 SWAP4 ADD SWAP3 ADD PUSH2 0xD69 JUMP JUMPDEST PUSH1 0x40 MLOAD PUSH3 0x461BCD PUSH1 0xE5 SHL DUP2 MSTORE PUSH1 0x20 PUSH1 0x4 DUP3 ADD MSTORE PUSH1 0x19 PUSH1 0x24 DUP3 ADD MSTORE PUSH32 0x496E76616C6964207075626C6963206B6579206C656E67746800000000000000 PUSH1 0x44 DUP3 ADD MSTORE PUSH1 0x64 SWAP1 REVERT JUMPDEST PUSH1 0x40 MLOAD PUSH3 0x461BCD PUSH1 0xE5 SHL DUP2 MSTORE PUSH1 0x20 PUSH1 0x4 DUP3 ADD MSTORE PUSH1 0x13 PUSH1 0x24 DUP3 ADD MSTORE PUSH19 0x15D85B1B195D08185B1C9958591E481D5CD959 PUSH1 0x6A SHL PUSH1 0x44 DUP3 ADD MSTORE PUSH1 0x64 SWAP1 REVERT JUMPDEST PUSH1 0x40 MLOAD PUSH3 0x461BCD PUSH1 0xE5 SHL DUP2 MSTORE PUSH1 0x20 PUSH1 0x4 DUP3 ADD MSTORE PUSH1 0x18 PUSH1 0x24 DUP3 ADD MSTORE PUSH32 0x4167656E7420616C726561647920726567697374657265640000000000000000 PUSH1 0x44 DUP3 ADD MSTORE PUSH1 0x64 SWAP1 REVERT JUMPDEST PUSH1 0x40 MLOAD PUSH4 0x3EE5AEB5 PUSH1 0xE0 SHL DUP2 MSTORE PUSH1 0x4 SWAP1 REVERT JUMPDEST CALLVALUE PUSH2 0x183 JUMPI PUSH1 0x40 CALLDATASIZE PUSH1 0x3 NOT ADD SLT PUSH2 0x183 JUMPI PUSH2 0xEB6 PUSH2 0x1439 JUMP JUMPDEST PUSH1 0x1 PUSH1 0x1 PUSH1 0xA0 SHL SUB AND PUSH1 0x0 SWAP1 DUP2 MSTORE PUSH1 0x4 PUSH1 0x20 MSTORE PUSH1 0x40 SWAP1 KECCAK256 DUP1 SLOAD PUSH1 0x24 CALLDATALOAD SWAP2 SWAP1 DUP3 LT ISZERO PUSH2 0x183 JUMPI PUSH1 0x20 SWAP2 PUSH2 0x8FE SWAP2 PUSH2 0x1604 JUMP JUMPDEST CALLVALUE PUSH2 0x183 JUMPI PUSH1 0x0 CALLDATASIZE PUSH1 0x3 NOT ADD SLT PUSH2 0x183 JUMPI PUSH1 0x20 PUSH1 0x40 MLOAD PUSH32 0x365613AB96FEF39A9E7934CC5D7C323B2235514C6DF4C30831BF2F7B8E6F4704 DUP2 MSTORE RETURN JUMPDEST CALLVALUE PUSH2 0x183 JUMPI PUSH1 0x20 CALLDATASIZE PUSH1 0x3 NOT ADD SLT PUSH2 0x183 JUMPI PUSH1 0x20 PUSH1 0x4 CALLDATALOAD DUP1 PUSH1 0x0 MSTORE PUSH1 0x2 DUP3 MSTORE PUSH1 0x40 PUSH1 0x0 KECCAK256 SWAP1 PUSH1 0x1 PUSH1 0xFF PUSH1 0x4 DUP5 ADD SLOAD PUSH1 0x8 SHR AND PUSH2 0xF5C DUP2 PUSH2 0x1597 JUMP JUMPDEST EQ SWAP2 DUP3 PUSH2 0xF86 JUMPI JUMPDEST POP DUP2 PUSH2 0xF76 JUMPI JUMPDEST POP PUSH1 0x40 MLOAD SWAP1 ISZERO ISZERO DUP2 MSTORE RETURN JUMPDEST PUSH2 0xF80 SWAP2 POP PUSH2 0x1A1F JUMP JUMPDEST DUP3 PUSH2 0xF6B JUMP JUMPDEST PUSH1 0x9 ADD SLOAD PUSH2 0x12C GT ISZERO SWAP2 POP DUP4 PUSH2 0xF64 JUMP JUMPDEST CALLVALUE PUSH2 0x183 JUMPI PUSH1 0x0 CALLDATASIZE PUSH1 0x3 NOT ADD SLT PUSH2 0x183 JUMPI PUSH1 0x20 PUSH1 0x40 MLOAD PUSH3 0x15180 DUP2 MSTORE RETURN JUMPDEST CALLVALUE PUSH2 0x183 JUMPI PUSH1 0x0 CALLDATASIZE PUSH1 0x3 NOT ADD SLT PUSH2 0x183 JUMPI PUSH1 0x0 DUP1 PUSH1 0x5 SLOAD SWAP1 JUMPDEST DUP2 DUP2 LT PUSH2 0xFE0 JUMPI PUSH1 0x20 DUP4 PUSH1 0x40 MLOAD SWAP1 DUP2 MSTORE RETURN JUMPDEST PUSH2 0xFE9 DUP2 PUSH2 0x15B7 JUMP JUMPDEST SWAP1 SLOAD SWAP1 PUSH1 0x3 SHL SHR PUSH1 0x0 MSTORE PUSH1 0x2 PUSH1 0x20 MSTORE PUSH1 0x1 PUSH1 0xFF PUSH1 0x4 PUSH1 0x40 PUSH1 0x0 KECCAK256 ADD SLOAD PUSH1 0x8 SHR AND PUSH2 0x1012 DUP2 PUSH2 0x1597 JUMP JUMPDEST EQ PUSH2 0x1026 JUMPI JUMPDEST PUSH2 0x1021 SWAP1 PUSH2 0x1A4D JUMP JUMPDEST PUSH2 0xFCE JUMP JUMPDEST SWAP2 PUSH2 0x1033 PUSH2 0x1021 SWAP2 PUSH2 0x1A4D JUMP JUMPDEST SWAP3 SWAP1 POP PUSH2 0x1018 JUMP JUMPDEST CALLVALUE PUSH2 0x183 JUMPI PUSH1 0x40 CALLDATASIZE PUSH1 0x3 NOT ADD SLT PUSH2 0x183 JUMPI PUSH2 0x1054 PUSH2 0x144F JUMP JUMPDEST CALLER PUSH1 0x1 PUSH1 0x1 PUSH1 0xA0 SHL SUB DUP3 AND SUB PUSH2 0x1070 JUMPI PUSH2 0x229 SWAP1 PUSH1 0x4 CALLDATALOAD PUSH2 0x16EE JUMP JUMPDEST PUSH1 0x40 MLOAD PUSH4 0x334BD919 PUSH1 0xE1 SHL DUP2 MSTORE PUSH1 0x4 SWAP1 REVERT JUMPDEST CALLVALUE PUSH2 0x183 JUMPI PUSH1 0x40 CALLDATASIZE PUSH1 0x3 NOT ADD SLT PUSH2 0x183 JUMPI PUSH2 0x229 PUSH1 0x4 CALLDATALOAD PUSH2 0x10A1 PUSH2 0x144F JUMP JUMPDEST SWAP1 DUP1 PUSH1 0x0 MSTORE PUSH1 0x0 PUSH1 0x20 MSTORE PUSH2 0x10BC PUSH1 0x1 PUSH1 0x40 PUSH1 0x0 KECCAK256 ADD SLOAD PUSH2 0x164A JUMP JUMPDEST PUSH2 0x1670 JUMP JUMPDEST CALLVALUE PUSH2 0x183 JUMPI PUSH1 0x20 CALLDATASIZE PUSH1 0x3 NOT ADD SLT PUSH2 0x183 JUMPI PUSH1 0x4 CALLDATALOAD PUSH1 0x0 MSTORE PUSH1 0x2 PUSH1 0x20 MSTORE PUSH1 0x40 PUSH1 0x0 KECCAK256 DUP1 SLOAD PUSH2 0x11C5 PUSH1 0x1 DUP1 PUSH1 0xA0 SHL SUB SWAP3 PUSH1 0xA DUP5 PUSH1 0x1 DUP4 ADD SLOAD AND SWAP5 PUSH1 0x2 DUP4 ADD SLOAD AND SWAP2 PUSH1 0x40 MLOAD SWAP3 PUSH2 0x111C DUP5 PUSH2 0x1115 DUP2 PUSH1 0x3 DUP7 ADD PUSH2 0x149F JUMP JUMPDEST SUB DUP6 PUSH2 0x1535 JUMP JUMPDEST PUSH1 0x4 DUP3 ADD SLOAD SWAP4 PUSH1 0xFF DUP1 DUP7 AND SWAP6 PUSH1 0x8 SHR AND PUSH1 0x5 DUP5 ADD SLOAD SWAP1 PUSH2 0x1184 PUSH1 0x6 DUP7 ADD SLOAD SWAP4 PUSH1 0x7 DUP8 ADD SLOAD SWAP6 PUSH2 0x1161 PUSH1 0x9 DUP10 ADD SLOAD SWAP9 PUSH2 0x115A PUSH1 0x40 MLOAD DUP1 SWAP13 DUP2 SWAP4 ADD PUSH2 0x149F JUMP JUMPDEST SUB DUP11 PUSH2 0x1535 JUMP JUMPDEST PUSH1 0x40 MLOAD SWAP13 DUP14 SWAP13 DUP14 MSTORE PUSH1 0x20 DUP14 ADD MSTORE PUSH1 0x40 DUP13 ADD MSTORE PUSH2 0x160 DUP1 PUSH1 0x60 DUP14 ADD MSTORE DUP12 ADD SWAP1 PUSH2 0x1557 JUMP JUMPDEST SWAP7 PUSH2 0x118E DUP2 PUSH2 0x1597 JUMP JUMPDEST PUSH1 0x80 DUP11 ADD MSTORE PUSH2 0x119C DUP2 PUSH2 0x1597 JUMP JUMPDEST PUSH1 0xA0 DUP10 ADD MSTORE PUSH1 0xC0 DUP9 ADD MSTORE PUSH1 0xE0 DUP8 ADD MSTORE PUSH2 0x100 DUP7 ADD MSTORE PUSH2 0x120 DUP6 ADD MSTORE DUP4 DUP3 SUB PUSH2 0x140 DUP6 ADD MSTORE PUSH2 0x1557 JUMP JUMPDEST SUB SWAP1 RETURN JUMPDEST CALLVALUE PUSH2 0x183 JUMPI PUSH1 0x20 CALLDATASIZE PUSH1 0x3 NOT ADD SLT PUSH2 0x183 JUMPI PUSH1 0x4 CALLDATALOAD PUSH1 0x0 MSTORE PUSH1 0x0 PUSH1 0x20 MSTORE PUSH1 0x20 PUSH1 0x1 PUSH1 0x40 PUSH1 0x0 KECCAK256 ADD SLOAD PUSH1 0x40 MLOAD SWAP1 DUP2 MSTORE RETURN JUMPDEST CALLVALUE PUSH2 0x183 JUMPI PUSH1 0x20 DUP1 PUSH1 0x3 NOT CALLDATASIZE ADD SLT PUSH2 0x183 JUMPI PUSH1 0x1 PUSH1 0x1 PUSH1 0xA0 SHL SUB PUSH2 0x121A PUSH2 0x1439 JUMP JUMPDEST AND PUSH1 0x0 MSTORE PUSH1 0x4 DUP2 MSTORE PUSH1 0x40 PUSH1 0x0 KECCAK256 PUSH1 0x40 MLOAD SWAP1 DUP2 DUP4 DUP3 SLOAD SWAP2 DUP3 DUP2 MSTORE ADD SWAP1 DUP2 SWAP3 PUSH1 0x0 MSTORE DUP5 PUSH1 0x0 KECCAK256 SWAP1 PUSH1 0x0 JUMPDEST DUP7 DUP3 DUP3 LT PUSH2 0x1298 JUMPI DUP7 DUP7 PUSH2 0x1258 DUP3 DUP9 SUB DUP4 PUSH2 0x1535 JUMP JUMPDEST PUSH1 0x40 MLOAD SWAP3 DUP4 SWAP3 DUP2 DUP5 ADD SWAP1 DUP3 DUP6 MSTORE MLOAD DUP1 SWAP2 MSTORE PUSH1 0x40 DUP5 ADD SWAP3 SWAP2 PUSH1 0x0 JUMPDEST DUP3 DUP2 LT PUSH2 0x1281 JUMPI POP POP POP POP SUB SWAP1 RETURN JUMPDEST DUP4 MLOAD DUP6 MSTORE DUP7 SWAP6 POP SWAP4 DUP2 ADD SWAP4 SWAP3 DUP2 ADD SWAP3 PUSH1 0x1 ADD PUSH2 0x1272 JUMP JUMPDEST DUP4 SLOAD DUP6 MSTORE SWAP1 SWAP4 ADD SWAP3 PUSH1 0x1 SWAP3 DUP4 ADD SWAP3 ADD PUSH2 0x1242 JUMP JUMPDEST CALLVALUE PUSH2 0x183 JUMPI PUSH1 0x0 CALLDATASIZE PUSH1 0x3 NOT ADD SLT PUSH2 0x183 JUMPI PUSH1 0x20 PUSH1 0x40 MLOAD PUSH2 0x12C DUP2 MSTORE RETURN JUMPDEST CALLVALUE PUSH2 0x183 JUMPI PUSH1 0x40 CALLDATASIZE PUSH1 0x3 NOT ADD SLT PUSH2 0x183 JUMPI PUSH1 0x4 CALLDATALOAD PUSH1 0x24 CALLDATALOAD PUSH1 0x4 DUP2 LT ISZERO PUSH2 0x183 JUMPI DUP2 PUSH1 0x0 MSTORE PUSH1 0x2 PUSH1 0x20 MSTORE PUSH1 0x40 PUSH1 0x0 KECCAK256 PUSH2 0x1306 PUSH1 0x5 DUP3 ADD SLOAD ISZERO ISZERO PUSH2 0x1885 JUMP JUMPDEST PUSH1 0x1 DUP2 ADD SLOAD PUSH1 0x1 PUSH1 0x1 PUSH1 0xA0 SHL SUB AND CALLER EQ DUP1 ISZERO PUSH2 0x13AE JUMPI JUMPDEST ISZERO PUSH2 0x1378 JUMPI PUSH32 0x8F95C0FCE60BBCE52C2737B54AE071E31A6A9C014DA368D5A38632F2D502D536 SWAP2 PUSH1 0x4 PUSH1 0x20 SWAP3 ADD PUSH2 0x1353 DUP3 PUSH2 0x1597 JUMP JUMPDEST DUP1 SLOAD PUSH2 0xFF00 NOT AND PUSH1 0x8 DUP4 SWAP1 SHL PUSH2 0xFF00 AND OR SWAP1 SSTORE PUSH1 0x40 MLOAD SWAP1 PUSH2 0x1373 DUP2 PUSH2 0x1597 JUMP JUMPDEST DUP2 MSTORE LOG2 STOP JUMPDEST PUSH1 0x40 MLOAD PUSH3 0x461BCD PUSH1 0xE5 SHL DUP2 MSTORE PUSH1 0x20 PUSH1 0x4 DUP3 ADD MSTORE PUSH1 0xE PUSH1 0x24 DUP3 ADD MSTORE PUSH14 0x139BDD08185D5D1A1BDC9A5E9959 PUSH1 0x92 SHL PUSH1 0x44 DUP3 ADD MSTORE PUSH1 0x64 SWAP1 REVERT JUMPDEST POP CALLER PUSH1 0x0 SWAP1 DUP2 MSTORE PUSH32 0xAD3228B676F7D3CD4284A5443F17F1962B36E491B30A40B2405849E597BA5FB5 PUSH1 0x20 MSTORE PUSH1 0x40 SWAP1 KECCAK256 SLOAD PUSH1 0xFF AND PUSH2 0x131D JUMP JUMPDEST CALLVALUE PUSH2 0x183 JUMPI PUSH1 0x20 CALLDATASIZE PUSH1 0x3 NOT ADD SLT PUSH2 0x183 JUMPI PUSH1 0x4 CALLDATALOAD SWAP1 PUSH4 0xFFFFFFFF PUSH1 0xE0 SHL DUP3 AND DUP1 SWAP3 SUB PUSH2 0x183 JUMPI PUSH1 0x20 SWAP2 PUSH4 0x7965DB0B PUSH1 0xE0 SHL DUP2 EQ SWAP1 DUP2 ISZERO PUSH2 0x1428 JUMPI JUMPDEST POP ISZERO ISZERO DUP2 MSTORE RETURN JUMPDEST PUSH4 0x1FFC9A7 PUSH1 0xE0 SHL EQ SWAP1 POP DUP4 PUSH2 0x1421 JUMP JUMPDEST PUSH1 0x4 CALLDATALOAD SWAP1 PUSH1 0x1 PUSH1 0x1 PUSH1 0xA0 SHL SUB DUP3 AND DUP3 SUB PUSH2 0x183 JUMPI JUMP JUMPDEST PUSH1 0x24 CALLDATALOAD SWAP1 PUSH1 0x1 PUSH1 0x1 PUSH1 0xA0 SHL SUB DUP3 AND DUP3 SUB PUSH2 0x183 JUMPI JUMP JUMPDEST SWAP1 PUSH1 0x1 DUP3 DUP2 SHR SWAP3 AND DUP1 ISZERO PUSH2 0x1495 JUMPI JUMPDEST PUSH1 0x20 DUP4 LT EQ PUSH2 0x147F JUMPI JUMP JUMPDEST PUSH4 0x4E487B71 PUSH1 0xE0 SHL PUSH1 0x0 MSTORE PUSH1 0x22 PUSH1 0x4 MSTORE PUSH1 0x24 PUSH1 0x0 REVERT JUMPDEST SWAP2 PUSH1 0x7F AND SWAP2 PUSH2 0x1474 JUMP JUMPDEST SWAP1 PUSH1 0x0 SWAP3 SWAP2 DUP1 SLOAD SWAP2 PUSH2 0x14B0 DUP4 PUSH2 0x1465 JUMP JUMPDEST SWAP2 DUP3 DUP3 MSTORE PUSH1 0x1 SWAP4 DUP5 DUP2 AND SWAP1 DUP2 PUSH1 0x0 EQ PUSH2 0x1512 JUMPI POP PUSH1 0x1 EQ PUSH2 0x14D2 JUMPI JUMPDEST POP POP POP POP JUMP JUMPDEST SWAP1 SWAP2 SWAP4 SWAP5 POP PUSH1 0x0 MSTORE PUSH1 0x20 SWAP3 DUP4 PUSH1 0x0 KECCAK256 SWAP3 DUP5 PUSH1 0x0 SWAP5 JUMPDEST DUP4 DUP7 LT PUSH2 0x14FE JUMPI POP POP POP POP ADD ADD SWAP1 CODESIZE DUP1 DUP1 DUP1 PUSH2 0x14CC JUMP JUMPDEST DUP1 SLOAD DUP6 DUP8 ADD DUP4 ADD MSTORE SWAP5 ADD SWAP4 DUP6 SWAP1 DUP3 ADD PUSH2 0x14E7 JUMP JUMPDEST SWAP3 SWAP5 POP POP POP PUSH1 0x20 SWAP4 SWAP5 POP PUSH1 0xFF NOT AND DUP4 DUP4 ADD MSTORE ISZERO ISZERO PUSH1 0x5 SHL ADD ADD SWAP1 CODESIZE DUP1 DUP1 DUP1 PUSH2 0x14CC JUMP JUMPDEST SWAP1 PUSH1 0x1F DUP1 NOT SWAP2 ADD AND DUP2 ADD SWAP1 DUP2 LT PUSH8 0xFFFFFFFFFFFFFFFF DUP3 GT OR PUSH2 0x479 JUMPI PUSH1 0x40 MSTORE JUMP JUMPDEST SWAP2 SWAP1 DUP3 MLOAD SWAP3 DUP4 DUP3 MSTORE PUSH1 0x0 JUMPDEST DUP5 DUP2 LT PUSH2 0x1583 JUMPI POP POP DUP3 PUSH1 0x0 PUSH1 0x20 DUP1 SWAP5 SWAP6 DUP5 ADD ADD MSTORE PUSH1 0x1F DUP1 NOT SWAP2 ADD AND ADD ADD SWAP1 JUMP JUMPDEST PUSH1 0x20 DUP2 DUP4 ADD DUP2 ADD MLOAD DUP5 DUP4 ADD DUP3 ADD MSTORE ADD PUSH2 0x1562 JUMP JUMPDEST PUSH1 0x4 GT ISZERO PUSH2 0x15A1 JUMPI JUMP JUMPDEST PUSH4 0x4E487B71 PUSH1 0xE0 SHL PUSH1 0x0 MSTORE PUSH1 0x21 PUSH1 0x4 MSTORE PUSH1 0x24 PUSH1 0x0 REVERT JUMPDEST PUSH1 0x5 SLOAD DUP2 LT ISZERO PUSH2 0x15EE JUMPI PUSH1 0x5 PUSH1 0x0 MSTORE PUSH32 0x36B6384B5ECA791C62761152D0C79BB0604C104A5FB6F4EB0703F3154BB3DB0 ADD SWAP1 PUSH1 0x0 SWAP1 JUMP JUMPDEST PUSH4 0x4E487B71 PUSH1 0xE0 SHL PUSH1 0x0 MSTORE PUSH1 0x32 PUSH1 0x4 MSTORE PUSH1 0x24 PUSH1 0x0 REVERT JUMPDEST DUP1 SLOAD DUP3 LT ISZERO PUSH2 0x15EE JUMPI PUSH1 0x0 MSTORE PUSH1 0x20 PUSH1 0x0 KECCAK256 ADD SWAP1 PUSH1 0x0 SWAP1 JUMP JUMPDEST SWAP2 DUP2 PUSH1 0x1F DUP5 ADD SLT ISZERO PUSH2 0x183 JUMPI DUP3 CALLDATALOAD SWAP2 PUSH8 0xFFFFFFFFFFFFFFFF DUP4 GT PUSH2 0x183 JUMPI PUSH1 0x20 DUP4 DUP2 DUP7 ADD SWAP6 ADD ADD GT PUSH2 0x183 JUMPI JUMP JUMPDEST DUP1 PUSH1 0x0 MSTORE PUSH1 0x0 PUSH1 0x20 MSTORE PUSH1 0x40 PUSH1 0x0 KECCAK256 CALLER PUSH1 0x0 MSTORE PUSH1 0x20 MSTORE PUSH1 0xFF PUSH1 0x40 PUSH1 0x0 KECCAK256 SLOAD AND ISZERO PUSH2 0x344 JUMPI POP JUMP JUMPDEST SWAP1 PUSH1 0x0 SWAP2 DUP1 DUP4 MSTORE DUP3 PUSH1 0x20 MSTORE PUSH1 0x40 DUP4 KECCAK256 SWAP2 PUSH1 0x1 DUP1 PUSH1 0xA0 SHL SUB AND SWAP2 DUP3 DUP5 MSTORE PUSH1 0x20 MSTORE PUSH1 0xFF PUSH1 0x40 DUP5 KECCAK256 SLOAD AND ISZERO PUSH1 0x0 EQ PUSH2 0x16E9 JUMPI DUP1 DUP4 MSTORE DUP3 PUSH1 0x20 MSTORE PUSH1 0x40 DUP4 KECCAK256 DUP3 DUP5 MSTORE PUSH1 0x20 MSTORE PUSH1 0x40 DUP4 KECCAK256 PUSH1 0x1 PUSH1 0xFF NOT DUP3 SLOAD AND OR SWAP1 SSTORE PUSH32 0x2F8788117E7EFF1D82E926EC794901D17C78024A50270940304540A733656F0D CALLER SWAP4 DUP1 LOG4 PUSH1 0x1 SWAP1 JUMP JUMPDEST POP POP SWAP1 JUMP JUMPDEST SWAP1 PUSH1 0x0 SWAP2 DUP1 DUP4 MSTORE DUP3 PUSH1 0x20 MSTORE PUSH1 0x40 DUP4 KECCAK256 SWAP2 PUSH1 0x1 DUP1 PUSH1 0xA0 SHL SUB AND SWAP2 DUP3 DUP5 MSTORE PUSH1 0x20 MSTORE PUSH1 0xFF PUSH1 0x40 DUP5 KECCAK256 SLOAD AND PUSH1 0x0 EQ PUSH2 0x16E9 JUMPI DUP1 DUP4 MSTORE DUP3 PUSH1 0x20 MSTORE PUSH1 0x40 DUP4 KECCAK256 DUP3 DUP5 MSTORE PUSH1 0x20 MSTORE PUSH1 0x40 DUP4 KECCAK256 PUSH1 0xFF NOT DUP2 SLOAD AND SWAP1 SSTORE PUSH32 0xF6391F5C32D9C69D2A47EA670B442974B53935D1EDC7FD64EB21E047A839171B CALLER SWAP4 DUP1 LOG4 PUSH1 0x1 SWAP1 JUMP JUMPDEST DUP2 DUP2 LT PUSH2 0x176E JUMPI POP POP JUMP JUMPDEST PUSH1 0x0 DUP2 SSTORE PUSH1 0x1 ADD PUSH2 0x1763 JUMP JUMPDEST SWAP2 SWAP1 PUSH1 0x1F DUP2 GT PUSH2 0x1789 JUMPI POP POP POP JUMP JUMPDEST PUSH2 0x17B5 SWAP3 PUSH1 0x0 MSTORE PUSH1 0x20 PUSH1 0x0 KECCAK256 SWAP1 PUSH1 0x20 PUSH1 0x1F DUP5 ADD PUSH1 0x5 SHR DUP4 ADD SWAP4 LT PUSH2 0x17B7 JUMPI JUMPDEST PUSH1 0x1F ADD PUSH1 0x5 SHR ADD SWAP1 PUSH2 0x1763 JUMP JUMPDEST JUMP JUMPDEST SWAP1 SWAP2 POP DUP2 SWAP1 PUSH2 0x17A8 JUMP JUMPDEST SWAP1 SWAP3 SWAP2 PUSH8 0xFFFFFFFFFFFFFFFF DUP2 GT PUSH2 0x479 JUMPI PUSH2 0x17E7 DUP2 PUSH2 0x17E1 DUP5 SLOAD PUSH2 0x1465 JUMP JUMPDEST DUP5 PUSH2 0x177A JUMP JUMPDEST PUSH1 0x0 PUSH1 0x1F DUP3 GT PUSH1 0x1 EQ PUSH2 0x1821 JUMPI DUP2 SWAP3 SWAP4 SWAP5 PUSH1 0x0 SWAP3 PUSH2 0x1816 JUMPI JUMPDEST POP POP DUP2 PUSH1 0x1 SHL SWAP2 PUSH1 0x0 NOT SWAP1 PUSH1 0x3 SHL SHR NOT AND OR SWAP1 SSTORE JUMP JUMPDEST ADD CALLDATALOAD SWAP1 POP CODESIZE DUP1 PUSH2 0x1800 JUMP JUMPDEST PUSH1 0x1F NOT DUP3 AND SWAP5 DUP4 DUP3 MSTORE PUSH1 0x20 SWAP2 DUP3 DUP2 KECCAK256 SWAP3 DUP2 SWAP1 JUMPDEST DUP9 DUP3 LT PUSH2 0x186D JUMPI POP POP DUP4 PUSH1 0x1 SWAP6 SWAP7 SWAP8 LT PUSH2 0x1853 JUMPI JUMPDEST POP POP POP DUP2 SHL ADD SWAP1 SSTORE JUMP JUMPDEST ADD CALLDATALOAD PUSH1 0x0 NOT PUSH1 0x3 DUP5 SWAP1 SHL PUSH1 0xF8 AND SHR NOT AND SWAP1 SSTORE CODESIZE DUP1 DUP1 PUSH2 0x1849 JUMP JUMPDEST DUP1 PUSH1 0x1 DUP5 SWAP7 DUP3 SWAP5 SWAP6 DUP8 ADD CALLDATALOAD DUP2 SSTORE ADD SWAP6 ADD SWAP3 ADD SWAP1 PUSH2 0x1834 JUMP JUMPDEST ISZERO PUSH2 0x188C JUMPI JUMP JUMPDEST PUSH1 0x40 MLOAD PUSH3 0x461BCD PUSH1 0xE5 SHL DUP2 MSTORE PUSH1 0x20 PUSH1 0x4 DUP3 ADD MSTORE PUSH1 0x14 PUSH1 0x24 DUP3 ADD MSTORE PUSH20 0x1059D95B9D081B9BDD081C9959DA5CDD195C9959 PUSH1 0x62 SHL PUSH1 0x44 DUP3 ADD MSTORE PUSH1 0x64 SWAP1 REVERT JUMPDEST DUP2 MLOAD SWAP2 SWAP1 PUSH1 0x41 DUP4 SUB PUSH2 0x18F9 JUMPI PUSH2 0x18F2 SWAP3 POP PUSH1 0x20 DUP3 ADD MLOAD SWAP1 PUSH1 0x60 PUSH1 0x40 DUP5 ADD MLOAD SWAP4 ADD MLOAD PUSH1 0x0 BYTE SWAP1 PUSH2 0x1904 JUMP JUMPDEST SWAP2 SWAP3 SWAP1 SWAP2 SWAP1 JUMP JUMPDEST POP POP PUSH1 0x0 SWAP2 PUSH1 0x2 SWAP2 SWAP1 JUMP JUMPDEST SWAP2 SWAP1 PUSH32 0x7FFFFFFFFFFFFFFFFFFFFFFFFFFFFFFF5D576E7357A4501DDFE92F46681B20A0 DUP5 GT PUSH2 0x1988 JUMPI SWAP3 PUSH1 0x20 SWAP3 SWAP2 PUSH1 0xFF PUSH1 0x80 SWAP6 PUSH1 0x40 MLOAD SWAP5 DUP6 MSTORE AND DUP5 DUP5 ADD MSTORE PUSH1 0x40 DUP4 ADD MSTORE PUSH1 0x60 DUP3 ADD MSTORE PUSH1 0x0 SWAP3 DUP4 SWAP2 DUP3 DUP1 MSTORE PUSH1 0x1 GAS STATICCALL ISZERO PUSH2 0x197C JUMPI DUP1 MLOAD PUSH1 0x1 PUSH1 0x1 PUSH1 0xA0 SHL SUB DUP2 AND ISZERO PUSH2 0x1973 JUMPI SWAP2 DUP2 SWAP1 JUMP JUMPDEST POP DUP1 SWAP2 PUSH1 0x1 SWAP2 SWAP1 JUMP JUMPDEST PUSH1 0x40 MLOAD SWAP1 RETURNDATASIZE SWAP1 DUP3 RETURNDATACOPY RETURNDATASIZE SWAP1 REVERT JUMPDEST POP POP POP PUSH1 0x0 SWAP2 PUSH1 0x3 SWAP2 SWAP1 JUMP JUMPDEST PUSH2 0x199D DUP2 PUSH2 0x1597 JUMP JUMPDEST DUP1 PUSH2 0x19A6 JUMPI POP POP JUMP JUMPDEST PUSH2 0x19AF DUP2 PUSH2 0x1597 JUMP JUMPDEST PUSH1 0x1 DUP2 SUB PUSH2 0x19C9 JUMPI PUSH1 0x40 MLOAD PUSH4 0xF645EEDF PUSH1 0xE0 SHL DUP2 MSTORE PUSH1 0x4 SWAP1 REVERT JUMPDEST PUSH2 0x19D2 DUP2 PUSH2 0x1597 JUMP JUMPDEST PUSH1 0x2 DUP2 SUB PUSH2 0x19F3 JUMPI PUSH1 0x40 MLOAD PUSH4 0xFCE698F7 PUSH1 0xE0 SHL DUP2 MSTORE PUSH1 0x4 DUP2 ADD DUP4 SWAP1 MSTORE PUSH1 0x24 SWAP1 REVERT JUMPDEST DUP1 PUSH2 0x19FF PUSH1 0x3 SWAP3 PUSH2 0x1597 JUMP JUMPDEST EQ PUSH2 0x1A07 JUMPI POP JUMP JUMPDEST PUSH1 0x24 SWAP1 PUSH1 0x40 MLOAD SWAP1 PUSH4 0x35E2F383 PUSH1 0xE2 SHL DUP3 MSTORE PUSH1 0x4 DUP3 ADD MSTORE REVERT JUMPDEST PUSH1 0x0 MSTORE PUSH1 0x2 PUSH1 0x20 MSTORE PUSH1 0x6 PUSH1 0x40 PUSH1 0x0 KECCAK256 ADD SLOAD DUP1 ISZERO PUSH2 0x1A47 JUMPI TIMESTAMP SUB TIMESTAMP DUP2 GT PUSH2 0x32E JUMPI PUSH3 0x15180 GT SWAP1 JUMP JUMPDEST POP PUSH1 0x0 SWAP1 JUMP JUMPDEST PUSH1 0x0 NOT DUP2 EQ PUSH2 0x32E JUMPI PUSH1 0x1 ADD SWAP1 JUMP INVALID LOG2 PUSH5 0x6970667358 0x22 SLT KECCAK256 0xDB SWAP5 ADD SGT DUP4 SWAP10 STOP 0x4F 0xFC PUSH19 0x1E0508CE836B53EE3F897D376FF5C8208BEF37 0xDD 0x2F DUP13 PUSH5 0x736F6C6343 STOP ADDMOD EQ STOP CALLER 0x2F DUP8 DUP9 GT PUSH31 0x7EFF1D82E926EC794901D17C78024A50270940304540A733656F0D00000000 "},"methodIdentifiers":{"ATTESTATION_EXPIRY()":"6a55a850","ATTESTATION_VERIFIER_ROLE()":"76863a19","DEFAULT_ADMIN_ROLE()":"a217fddf","MIN_SYNDICATE_REPUTATION()":"15b1bac7","REGISTRAR_ROLE()":"f68e9553","activeAgentCount()":"383e6f95","addCapability(bytes32,string)":"bfcf3f9e","agentIdByWallet(address)":"dcc8bd14","agents(bytes32)":"2e20ee18","agentsByOwner(address,uint256)":"768eb96f","allAgentIds(uint256)":"98be7c8d","getAgent(bytes32)":"a6c2af01","getAgentsByOwner(address)":"1ab6f888","getCapabilities(bytes32)":"b53a7dfa","getRoleAdmin(bytes32)":"248a9ca3","grantRole(bytes32,address)":"2f2ff15d","hasRole(bytes32,address)":"91d14854","isAttestationValid(bytes32)":"e30bb563","isSyndicateEligible(bytes32)":"6fb98a13","registerAgent(bytes32,address,bytes,uint8,string[],string)":"840f3c0f","renounceRole(bytes32,address)":"36568abe","revokeRole(bytes32,address)":"d547741f","supportsInterface(bytes4)":"01ffc9a7","totalAgents()":"c5053712","updateReputation(bytes32,int256)":"d3ef47e8","updateStatus(bytes32,uint8)":"054372ed","verifyAttestation(bytes32,bytes32,bytes)":"a65542ca"}}}}}